{
  "_format": "hh-sol-artifact-1",
  "contractName": "LSSVMPairMissingEnumerableETH",
  "sourceName": "contracts/LSSVMPairMissingEnumerableETH.sol",
  "abi": [
    {
      "inputs": [
        {
          "internalType": "enum CurveErrorCodes.Error",
          "name": "error",
          "type": "uint8"
        }
      ],
      "name": "BondingCurveError",
      "type": "error"
    },
    {
      "inputs": [],
      "name": "Ownable_NewOwnerZeroAddress",
      "type": "error"
    },
    {
      "inputs": [],
      "name": "Ownable_NotOwner",
      "type": "error"
    },
    {
      "anonymous": false,
      "inputs": [
        {
          "indexed": false,
          "internalType": "address",
          "name": "a",
          "type": "address"
        }
      ],
      "name": "AssetRecipientChange",
      "type": "event"
    },
    {
      "anonymous": false,
      "inputs": [
        {
          "indexed": false,
          "internalType": "uint128",
          "name": "newDelta",
          "type": "uint128"
        }
      ],
      "name": "DeltaUpdate",
      "type": "event"
    },
    {
      "anonymous": false,
      "inputs": [
        {
          "indexed": false,
          "internalType": "uint96",
          "name": "newFee",
          "type": "uint96"
        }
      ],
      "name": "FeeUpdate",
      "type": "event"
    },
    {
      "anonymous": false,
      "inputs": [],
      "name": "NFTWithdrawal",
      "type": "event"
    },
    {
      "anonymous": false,
      "inputs": [
        {
          "indexed": true,
          "internalType": "address",
          "name": "newOwner",
          "type": "address"
        }
      ],
      "name": "OwnershipTransferred",
      "type": "event"
    },
    {
      "anonymous": false,
      "inputs": [
        {
          "indexed": false,
          "internalType": "uint128",
          "name": "newSpotPrice",
          "type": "uint128"
        }
      ],
      "name": "SpotPriceUpdate",
      "type": "event"
    },
    {
      "anonymous": false,
      "inputs": [],
      "name": "SwapNFTInPair",
      "type": "event"
    },
    {
      "anonymous": false,
      "inputs": [],
      "name": "SwapNFTOutPair",
      "type": "event"
    },
    {
      "anonymous": false,
      "inputs": [
        {
          "indexed": false,
          "internalType": "uint256",
          "name": "amount",
          "type": "uint256"
        }
      ],
      "name": "TokenDeposit",
      "type": "event"
    },
    {
      "anonymous": false,
      "inputs": [
        {
          "indexed": false,
          "internalType": "uint256",
          "name": "amount",
          "type": "uint256"
        }
      ],
      "name": "TokenWithdrawal",
      "type": "event"
    },
    {
      "stateMutability": "payable",
      "type": "fallback"
    },
    {
      "inputs": [],
      "name": "assetRecipient",
      "outputs": [
        {
          "internalType": "address payable",
          "name": "",
          "type": "address"
        }
      ],
      "stateMutability": "view",
      "type": "function"
    },
    {
      "inputs": [],
      "name": "bondingCurve",
      "outputs": [
        {
          "internalType": "contract ICurve",
          "name": "_bondingCurve",
          "type": "address"
        }
      ],
      "stateMutability": "pure",
      "type": "function"
    },
    {
      "inputs": [
        {
          "internalType": "address payable",
          "name": "target",
          "type": "address"
        },
        {
          "internalType": "bytes",
          "name": "data",
          "type": "bytes"
        }
      ],
      "name": "call",
      "outputs": [],
      "stateMutability": "nonpayable",
      "type": "function"
    },
    {
      "inputs": [
        {
          "internalType": "address payable",
          "name": "newRecipient",
          "type": "address"
        }
      ],
      "name": "changeAssetRecipient",
      "outputs": [],
      "stateMutability": "nonpayable",
      "type": "function"
    },
    {
      "inputs": [
        {
          "internalType": "uint128",
          "name": "newDelta",
          "type": "uint128"
        }
      ],
      "name": "changeDelta",
      "outputs": [],
      "stateMutability": "nonpayable",
      "type": "function"
    },
    {
      "inputs": [
        {
          "internalType": "uint96",
          "name": "newFee",
          "type": "uint96"
        }
      ],
      "name": "changeFee",
      "outputs": [],
      "stateMutability": "nonpayable",
      "type": "function"
    },
    {
      "inputs": [
        {
          "internalType": "uint128",
          "name": "newSpotPrice",
          "type": "uint128"
        }
      ],
      "name": "changeSpotPrice",
      "outputs": [],
      "stateMutability": "nonpayable",
      "type": "function"
    },
    {
      "inputs": [],
      "name": "delta",
      "outputs": [
        {
          "internalType": "uint128",
          "name": "",
          "type": "uint128"
        }
      ],
      "stateMutability": "view",
      "type": "function"
    },
    {
      "inputs": [],
      "name": "factory",
      "outputs": [
        {
          "internalType": "contract ILSSVMPairFactoryLike",
          "name": "_factory",
          "type": "address"
        }
      ],
      "stateMutability": "pure",
      "type": "function"
    },
    {
      "inputs": [],
      "name": "fee",
      "outputs": [
        {
          "internalType": "uint96",
          "name": "",
          "type": "uint96"
        }
      ],
      "stateMutability": "view",
      "type": "function"
    },
    {
      "inputs": [],
      "name": "getAllHeldIds",
      "outputs": [
        {
          "internalType": "uint256[]",
          "name": "",
          "type": "uint256[]"
        }
      ],
      "stateMutability": "view",
      "type": "function"
    },
    {
      "inputs": [],
      "name": "getAssetRecipient",
      "outputs": [
        {
          "internalType": "address payable",
          "name": "_assetRecipient",
          "type": "address"
        }
      ],
      "stateMutability": "view",
      "type": "function"
    },
    {
      "inputs": [
        {
          "internalType": "uint256",
          "name": "numNFTs",
          "type": "uint256"
        }
      ],
      "name": "getBuyNFTQuote",
      "outputs": [
        {
          "internalType": "enum CurveErrorCodes.Error",
          "name": "error",
          "type": "uint8"
        },
        {
          "internalType": "uint256",
          "name": "newSpotPrice",
          "type": "uint256"
        },
        {
          "internalType": "uint256",
          "name": "newDelta",
          "type": "uint256"
        },
        {
          "internalType": "uint256",
          "name": "inputAmount",
          "type": "uint256"
        },
        {
          "internalType": "uint256",
          "name": "protocolFee",
          "type": "uint256"
        }
      ],
      "stateMutability": "view",
      "type": "function"
    },
    {
      "inputs": [
        {
          "internalType": "uint256",
          "name": "numNFTs",
          "type": "uint256"
        }
      ],
      "name": "getSellNFTQuote",
      "outputs": [
        {
          "internalType": "enum CurveErrorCodes.Error",
          "name": "error",
          "type": "uint8"
        },
        {
          "internalType": "uint256",
          "name": "newSpotPrice",
          "type": "uint256"
        },
        {
          "internalType": "uint256",
          "name": "newDelta",
          "type": "uint256"
        },
        {
          "internalType": "uint256",
          "name": "outputAmount",
          "type": "uint256"
        },
        {
          "internalType": "uint256",
          "name": "protocolFee",
          "type": "uint256"
        }
      ],
      "stateMutability": "view",
      "type": "function"
    },
    {
      "inputs": [
        {
          "internalType": "address",
          "name": "_owner",
          "type": "address"
        },
        {
          "internalType": "address payable",
          "name": "_assetRecipient",
          "type": "address"
        },
        {
          "internalType": "uint128",
          "name": "_delta",
          "type": "uint128"
        },
        {
          "internalType": "uint96",
          "name": "_fee",
          "type": "uint96"
        },
        {
          "internalType": "uint128",
          "name": "_spotPrice",
          "type": "uint128"
        }
      ],
      "name": "initialize",
      "outputs": [],
      "stateMutability": "payable",
      "type": "function"
    },
    {
      "inputs": [
        {
          "internalType": "bytes[]",
          "name": "calls",
          "type": "bytes[]"
        },
        {
          "internalType": "bool",
          "name": "revertOnFail",
          "type": "bool"
        }
      ],
      "name": "multicall",
      "outputs": [],
      "stateMutability": "nonpayable",
      "type": "function"
    },
    {
      "inputs": [],
      "name": "nft",
      "outputs": [
        {
          "internalType": "contract IERC721",
          "name": "_nft",
          "type": "address"
        }
      ],
      "stateMutability": "pure",
      "type": "function"
    },
    {
      "inputs": [
        {
          "internalType": "address",
          "name": "",
          "type": "address"
        },
        {
          "internalType": "address",
          "name": "",
          "type": "address"
        },
        {
          "internalType": "uint256[]",
          "name": "",
          "type": "uint256[]"
        },
        {
          "internalType": "uint256[]",
          "name": "",
          "type": "uint256[]"
        },
        {
          "internalType": "bytes",
          "name": "",
          "type": "bytes"
        }
      ],
      "name": "onERC1155BatchReceived",
      "outputs": [
        {
          "internalType": "bytes4",
          "name": "",
          "type": "bytes4"
        }
      ],
      "stateMutability": "nonpayable",
      "type": "function"
    },
    {
      "inputs": [
        {
          "internalType": "address",
          "name": "",
          "type": "address"
        },
        {
          "internalType": "address",
          "name": "",
          "type": "address"
        },
        {
          "internalType": "uint256",
          "name": "",
          "type": "uint256"
        },
        {
          "internalType": "uint256",
          "name": "",
          "type": "uint256"
        },
        {
          "internalType": "bytes",
          "name": "",
          "type": "bytes"
        }
      ],
      "name": "onERC1155Received",
      "outputs": [
        {
          "internalType": "bytes4",
          "name": "",
          "type": "bytes4"
        }
      ],
      "stateMutability": "nonpayable",
      "type": "function"
    },
    {
      "inputs": [
        {
          "internalType": "address",
          "name": "",
          "type": "address"
        },
        {
          "internalType": "address",
          "name": "",
          "type": "address"
        },
        {
          "internalType": "uint256",
          "name": "id",
          "type": "uint256"
        },
        {
          "internalType": "bytes",
          "name": "",
          "type": "bytes"
        }
      ],
      "name": "onERC721Received",
      "outputs": [
        {
          "internalType": "bytes4",
          "name": "",
          "type": "bytes4"
        }
      ],
      "stateMutability": "nonpayable",
      "type": "function"
    },
    {
      "inputs": [],
      "name": "owner",
      "outputs": [
        {
          "internalType": "address",
          "name": "",
          "type": "address"
        }
      ],
      "stateMutability": "view",
      "type": "function"
    },
    {
      "inputs": [],
      "name": "pairVariant",
      "outputs": [
        {
          "internalType": "enum ILSSVMPairFactoryLike.PairVariant",
          "name": "",
          "type": "uint8"
        }
      ],
      "stateMutability": "pure",
      "type": "function"
    },
    {
      "inputs": [],
      "name": "poolType",
      "outputs": [
        {
          "internalType": "enum LSSVMPair.PoolType",
          "name": "_poolType",
          "type": "uint8"
        }
      ],
      "stateMutability": "pure",
      "type": "function"
    },
    {
      "inputs": [],
      "name": "spotPrice",
      "outputs": [
        {
          "internalType": "uint128",
          "name": "",
          "type": "uint128"
        }
      ],
      "stateMutability": "view",
      "type": "function"
    },
    {
      "inputs": [
        {
          "internalType": "bytes4",
          "name": "interfaceId",
          "type": "bytes4"
        }
      ],
      "name": "supportsInterface",
      "outputs": [
        {
          "internalType": "bool",
          "name": "",
          "type": "bool"
        }
      ],
      "stateMutability": "view",
      "type": "function"
    },
    {
      "inputs": [
        {
          "internalType": "uint256[]",
          "name": "nftIds",
          "type": "uint256[]"
        },
        {
          "internalType": "uint256",
          "name": "minExpectedTokenOutput",
          "type": "uint256"
        },
        {
          "internalType": "address payable",
          "name": "tokenRecipient",
          "type": "address"
        },
        {
          "internalType": "bool",
          "name": "isRouter",
          "type": "bool"
        },
        {
          "internalType": "address",
          "name": "routerCaller",
          "type": "address"
        }
      ],
      "name": "swapNFTsForToken",
      "outputs": [
        {
          "internalType": "uint256",
          "name": "outputAmount",
          "type": "uint256"
        }
      ],
      "stateMutability": "nonpayable",
      "type": "function"
    },
    {
      "inputs": [
        {
          "internalType": "uint256",
          "name": "numNFTs",
          "type": "uint256"
        },
        {
          "internalType": "uint256",
          "name": "maxExpectedTokenInput",
          "type": "uint256"
        },
        {
          "internalType": "address",
          "name": "nftRecipient",
          "type": "address"
        },
        {
          "internalType": "bool",
          "name": "isRouter",
          "type": "bool"
        },
        {
          "internalType": "address",
          "name": "routerCaller",
          "type": "address"
        }
      ],
      "name": "swapTokenForAnyNFTs",
      "outputs": [
        {
          "internalType": "uint256",
          "name": "inputAmount",
          "type": "uint256"
        }
      ],
      "stateMutability": "payable",
      "type": "function"
    },
    {
      "inputs": [
        {
          "internalType": "uint256[]",
          "name": "nftIds",
          "type": "uint256[]"
        },
        {
          "internalType": "uint256",
          "name": "maxExpectedTokenInput",
          "type": "uint256"
        },
        {
          "internalType": "address",
          "name": "nftRecipient",
          "type": "address"
        },
        {
          "internalType": "bool",
          "name": "isRouter",
          "type": "bool"
        },
        {
          "internalType": "address",
          "name": "routerCaller",
          "type": "address"
        }
      ],
      "name": "swapTokenForSpecificNFTs",
      "outputs": [
        {
          "internalType": "uint256",
          "name": "inputAmount",
          "type": "uint256"
        }
      ],
      "stateMutability": "payable",
      "type": "function"
    },
    {
      "inputs": [
        {
          "internalType": "address",
          "name": "newOwner",
          "type": "address"
        }
      ],
      "name": "transferOwnership",
      "outputs": [],
      "stateMutability": "nonpayable",
      "type": "function"
    },
    {
      "inputs": [],
      "name": "withdrawAllETH",
      "outputs": [],
      "stateMutability": "nonpayable",
      "type": "function"
    },
    {
      "inputs": [
        {
          "internalType": "contract IERC1155",
          "name": "a",
          "type": "address"
        },
        {
          "internalType": "uint256[]",
          "name": "ids",
          "type": "uint256[]"
        },
        {
          "internalType": "uint256[]",
          "name": "amounts",
          "type": "uint256[]"
        }
      ],
      "name": "withdrawERC1155",
      "outputs": [],
      "stateMutability": "nonpayable",
      "type": "function"
    },
    {
      "inputs": [
        {
          "internalType": "contract ERC20",
          "name": "a",
          "type": "address"
        },
        {
          "internalType": "uint256",
          "name": "amount",
          "type": "uint256"
        }
      ],
      "name": "withdrawERC20",
      "outputs": [],
      "stateMutability": "nonpayable",
      "type": "function"
    },
    {
      "inputs": [
        {
          "internalType": "contract IERC721",
          "name": "a",
          "type": "address"
        },
        {
          "internalType": "uint256[]",
          "name": "nftIds",
          "type": "uint256[]"
        }
      ],
      "name": "withdrawERC721",
      "outputs": [],
      "stateMutability": "nonpayable",
      "type": "function"
    },
    {
      "inputs": [
        {
          "internalType": "uint256",
          "name": "amount",
          "type": "uint256"
        }
      ],
      "name": "withdrawETH",
      "outputs": [],
      "stateMutability": "nonpayable",
      "type": "function"
    },
    {
      "stateMutability": "payable",
      "type": "receive"
    }
  ],
  "bytecode": "0x608060405234801561001057600080fd5b50613b2c806100206000396000f3fe6080604052600436106101fd5760003560e01c80638da5cb5b1161010d578063c45a0155116100a0578063f14210a61161006f578063f14210a614610673578063f23a6e6114610693578063f2fde38b146106bf578063f4629549146106df578063fd17aef9146106ff57610238565b8063c45a0155146105f1578063d8a1890c14610606578063ddca3f4314610626578063eff1d50e1461065e57610238565b8063a5ceac99116100dc578063a5ceac9914610563578063b1d3f1c114610583578063b1dd61b6146105a3578063bc197c81146105c557610238565b80638da5cb5b146104f057806390386bbf1461050e578063a1db978214610523578063a5cb2b911461054357610238565b80632f4fefaf1161019057806347ccca021161015f57806347ccca02146104735780636809f664146104885780636b7a2200146104a85780636d8b99f7146104c857806379eac6c2146104db57610238565b80632f4fefaf146103d65780633053fc58146103f8578063398482d8146104145780633bfa67fe1461043457610238565b8063150b7a02116101cc578063150b7a021461033c5780631b8b921d146103755780631e9701d41461039557806328b8aee1146103b557610238565b806301ffc9a7146102755780630c295e56146102aa57806312b495a8146102db57806313edab811461031a57610238565b36610238576040513481527ff1b3be8dace0fecfbdb6fb0fa1cc014c612bcb1b46db027c1ece5fc11fff09d6906020015b60405180910390a1005b603d361461024557600080fd5b6040513481527ff1b3be8dace0fecfbdb6fb0fa1cc014c612bcb1b46db027c1ece5fc11fff09d69060200161022e565b34801561028157600080fd5b50610295610290366004612f14565b610712565b60405190151581526020015b60405180910390f35b3480156102b657600080fd5b506102ca6102c5366004612f3e565b610749565b6040516102a1959493929190612f7d565b3480156102e757600080fd5b5060025461030290600160801b90046001600160801b031681565b6040516001600160801b0390911681526020016102a1565b34801561032657600080fd5b5061033a61033536600461300b565b61089b565b005b34801561034857600080fd5b5061035c610357366004613122565b610a77565b6040516001600160e01b031990911681526020016102a1565b34801561038157600080fd5b5061033a61039036600461318d565b610ab4565b3480156103a157600080fd5b5061033a6103b036600461321f565b610c65565b6103c86103c3366004613275565b610de1565b6040519081526020016102a1565b3480156103e257600080fd5b506103eb610fd3565b6040516102a191906132d4565b34801561040457600080fd5b5060016040516102a1919061332c565b34801561042057600080fd5b50600254610302906001600160801b031681565b34801561044057600080fd5b5060035461045b90600160601b90046001600160a01b031681565b6040516001600160a01b0390911681526020016102a1565b34801561047f57600080fd5b5061045b61106b565b34801561049457600080fd5b5061033a6104a336600461334f565b611077565b3480156104b457600080fd5b5061033a6104c3366004613388565b6111f7565b6103c86104d63660046133a3565b61135d565b3480156104e757600080fd5b5061045b6114b3565b3480156104fc57600080fd5b506000546001600160a01b031661045b565b34801561051a57600080fd5b5061033a6114fa565b34801561052f57600080fd5b5061033a61053e366004613427565b61153f565b34801561054f57600080fd5b506102ca61055e366004612f3e565b61158d565b34801561056f57600080fd5b5061033a61057e366004613453565b6115df565b34801561058f57600080fd5b506103c861059e3660046133a3565b611688565b3480156105af57600080fd5b506105b86117de565b6040516102a191906134d5565b3480156105d157600080fd5b5061035c6105e0366004613567565b63bc197c8160e01b95945050505050565b3480156105fd57600080fd5b5061045b6117ea565b34801561061257600080fd5b5061033a61062136600461334f565b6117f6565b34801561063257600080fd5b50600354610646906001600160601b031681565b6040516001600160601b0390911681526020016102a1565b34801561066a57600080fd5b5061045b61196c565b34801561067f57600080fd5b5061033a61068e366004612f3e565b611978565b34801561069f57600080fd5b5061035c6106ae366004613614565b63f23a6e6160e01b95945050505050565b3480156106cb57600080fd5b5061033a6106da36600461367c565b611a0d565b3480156106eb57600080fd5b5061033a6106fa36600461367c565b611b0a565b61033a61070d366004613699565b611c1a565b60006001600160e01b03198216630271189760e51b148061074357506301ffc9a760e01b6001600160e01b03198316145b92915050565b600080600080600061075961196c565b6002546003546001600160a01b03929092169163097cc63d916001600160801b0380821692600160801b90920416908a906001600160601b031661079b6117ea565b6001600160a01b0316631ce4c78b6040518163ffffffff1660e01b815260040160206040518083038186803b1580156107d357600080fd5b505afa1580156107e7573d6000803e3d6000fd5b505050506040513d601f19601f8201168201806040525081019061080b91906136fa565b6040518663ffffffff1660e01b815260040161082b959493929190613713565b60a06040518083038186803b15801561084357600080fd5b505afa158015610857573d6000803e3d6000fd5b505050506040513d601f19601f8201168201806040525081019061087b919061374d565b939a6001600160801b039384169a50919092169750909550909350915050565b336108ae6000546001600160a01b031690565b6001600160a01b0316146108d557604051635eee3ad160e01b815260040160405180910390fd5b60006108df61106b565b9050816001600160a01b038581169083161461098b5760005b8181101561098557856001600160a01b03166342842e0e3033888886818110610923576109236137af565b905060200201356040518463ffffffff1660e01b8152600401610948939291906137c5565b600060405180830381600087803b15801561096257600080fd5b505af1158015610976573d6000803e3d6000fd5b505050508060010190506108f8565b50610a70565b60005b81811015610a4557826001600160a01b03166342842e0e30338888868181106109b9576109b96137af565b905060200201356040518463ffffffff1660e01b81526004016109de939291906137c5565b600060405180830381600087803b1580156109f857600080fd5b505af1158015610a0c573d6000803e3d6000fd5b50505050610a3c858583818110610a2557610a256137af565b90506020020135600461201a90919063ffffffff16565b5060010161098e565b506040517f242b9b8fb5c0e6298454fcf80a0fbcbb7308620133d92b50091a1f64cee790e890600090a15b5050505050565b600080610a8261106b565b9050336001600160a01b0382161415610aa257610aa060048561202d565b505b50630a85bd0160e11b95945050505050565b33610ac76000546001600160a01b031690565b6001600160a01b031614610aee57604051635eee3ad160e01b815260040160405180910390fd5b6000610af86117ea565b6040516303f752bd60e31b81526001600160a01b03868116600483015291925090821690631fba95e89060240160206040518083038186803b158015610b3d57600080fd5b505afa158015610b51573d6000803e3d6000fd5b505050506040513d601f19601f82011682018060405250810190610b7591906137e9565b610bc65760405162461bcd60e51b815260206004820152601a60248201527f546172676574206d7573742062652077686974656c697374656400000000000060448201526064015b60405180910390fd5b6000846001600160a01b031660008585604051610be4929190613806565b60006040518083038185875af1925050503d8060008114610c21576040519150601f19603f3d011682016040523d82523d6000602084013e610c26565b606091505b5050905080610a705760405162461bcd60e51b815260206004820152600b60248201526a10d85b1b0819985a5b195960aa1b6044820152606401610bbd565b33610c786000546001600160a01b031690565b6001600160a01b031614610c9f57604051635eee3ad160e01b815260040160405180910390fd5b60005b82811015610d615760008030868685818110610cc057610cc06137af565b9050602002810190610cd29190613816565b604051610ce0929190613806565b600060405180830381855af49150503d8060008114610d1b576040519150601f19603f3d011682016040523d82523d6000602084013e610d20565b606091505b509150915081158015610d305750835b15610d5757610d3e81612039565b60405162461bcd60e51b8152600401610bbd9190613888565b5050600101610ca2565b5033610d756000546001600160a01b031690565b6001600160a01b031614610ddc5760405162461bcd60e51b815260206004820152602860248201527f4f776e6572736869702063616e6e6f74206265206368616e67656420696e206d6044820152671d5b1d1a58d85b1b60c21b6064820152608401610bbd565b505050565b600060026001541415610e065760405162461bcd60e51b8152600401610bbd906138bb565b60026001556000610e156117ea565b90506000610e2161196c565b90506000610e2d61106b565b90506000610e396117de565b90506001816002811115610e4f57610e4f612f57565b1480610e6c57506002816002811115610e6a57610e6a612f57565b145b610e885760405162461bcd60e51b8152600401610bbd906138f2565b60008a118015610f0e57506040516370a0823160e01b81523060048201526001600160a01b038316906370a082319060240160206040518083038186803b158015610ed257600080fd5b505afa158015610ee6573d6000803e3d6000fd5b505050506040513d601f19601f82011682018060405250810190610f0a91906136fa565b8a11155b610f645760405162461bcd60e51b815260206004820152602160248201527f41736b20666f72203e203020616e64203c3d2062616c616e63654f66204e46546044820152607360f81b6064820152608401610bbd565b506000610f738a8a8587612098565b95509050610f84858888878561236b565b610f8f82898c61241d565b610f98856124d9565b6040517fbc479dfc6cb9c1a9d880f987ee4b30fa43dd7f06aec121db685b67d587c93c9390600090a150506001805550909695505050505050565b60606000610fe160046124f5565b90506000816001600160401b03811115610ffd57610ffd61305f565b604051908082528060200260200182016040528015611026578160200160208202803683370190505b50905060005b828110156110645761103f6004826124ff565b828281518110611051576110516137af565b602090810291909101015260010161102c565b5092915050565b60141936013560601c90565b3361108a6000546001600160a01b031690565b6001600160a01b0316146110b157604051635eee3ad160e01b815260040160405180910390fd5b60006110bb61196c565b6040516302b99f3360e21b81526001600160801b03841660048201529091506001600160a01b03821690630ae67ccc9060240160206040518083038186803b15801561110657600080fd5b505afa15801561111a573d6000803e3d6000fd5b505050506040513d601f19601f8201168201806040525081019061113e91906137e9565b6111845760405162461bcd60e51b8152602060048201526017602482015276496e76616c69642064656c746120666f7220637572766560481b6044820152606401610bbd565b6002546001600160801b03838116600160801b90920416146111f357600280546001600160801b03908116600160801b918516918202179091556040519081527fc958ae052d28f8d17bc2c4ddbabb699a3cab5cccefd034d0fc971efdadc01da5906020015b60405180910390a15b5050565b3361120a6000546001600160a01b031690565b6001600160a01b03161461123157604051635eee3ad160e01b815260040160405180910390fd5b600061123b6117de565b9050600281600281111561125157611251612f57565b146112955760405162461bcd60e51b81526020600482015260146024820152734f6e6c7920666f7220547261646520706f6f6c7360601b6044820152606401610bbd565b670c7d713b49da0000826001600160601b0316106112f55760405162461bcd60e51b815260206004820152601f60248201527f547261646520666565206d757374206265206c657373207468616e20393025006044820152606401610bbd565b6003546001600160601b038381169116146111f357600380546bffffffffffffffffffffffff19166001600160601b0384169081179091556040519081527f66c55c30868c51e7ad52e3d85d1403576a9967614e67c48e25b55a10baa650c0906020016111ea565b6000600260015414156113825760405162461bcd60e51b8152600401610bbd906138bb565b600260015560006113916117ea565b9050600061139d61196c565b905060006113a96117de565b905060018160028111156113bf576113bf612f57565b14806113dc575060028160028111156113da576113da612f57565b145b6113f85760405162461bcd60e51b8152600401610bbd906138f2565b8861143d5760405162461bcd60e51b81526020600482015260156024820152744d7573742061736b20666f72203e2030204e46547360581b6044820152606401610bbd565b50600061144c89898486612098565b9450905061145d848787868561236b565b61147061146861106b565b888c8c61250b565b611479846124d9565b6040517fbc479dfc6cb9c1a9d880f987ee4b30fa43dd7f06aec121db685b67d587c93c9390600090a1505060018055509695505050505050565b600060026114bf6117de565b60028111156114d0576114d0612f57565b14156114db57503090565b50600354600160601b90046001600160a01b0316806114f75750305b90565b3361150d6000546001600160a01b031690565b6001600160a01b03161461153457604051635eee3ad160e01b815260040160405180910390fd5b61153d47611978565b565b336115526000546001600160a01b031690565b6001600160a01b03161461157957604051635eee3ad160e01b815260040160405180910390fd5b6111f36001600160a01b03831633836125af565b600080600080600061159d61196c565b6002546003546001600160a01b039290921691637ca542ac916001600160801b0380821692600160801b90920416908a906001600160601b031661079b6117ea565b336115f26000546001600160a01b031690565b6001600160a01b03161461161957604051635eee3ad160e01b815260040160405180910390fd5b604051631759616b60e11b81526001600160a01b03861690632eb2c2d69061164f90309033908990899089908990600401613951565b600060405180830381600087803b15801561166957600080fd5b505af115801561167d573d6000803e3d6000fd5b505050505050505050565b6000600260015414156116ad5760405162461bcd60e51b8152600401610bbd906138bb565b600260015560006116bc6117ea565b905060006116c861196c565b905060006116d46117de565b905060008160028111156116ea576116ea612f57565b14806117075750600281600281111561170557611705612f57565b145b6117235760405162461bcd60e51b8152600401610bbd906138f2565b886117685760405162461bcd60e51b81526020600482015260156024820152744d7573742061736b20666f72203e2030204e46547360581b6044820152606401610bbd565b5060006117778989848661262d565b9450905061178587856127f8565b61178f8382612811565b6117a461179a61106b565b8b8b868a8a61283a565b6040517f3614eb567740a0ee3897c0e2b11ad6a5720d2e4438f9c8accf6c95c24af3a47090600090a1505060018055509695505050505050565b60001936013560f81c90565b603c1936013560601c90565b336118096000546001600160a01b031690565b6001600160a01b03161461183057604051635eee3ad160e01b815260040160405180910390fd5b600061183a61196c565b604051631437765d60e31b81526001600160801b03841660048201529091506001600160a01b0382169063a1bbb2e89060240160206040518083038186803b15801561188557600080fd5b505afa158015611899573d6000803e3d6000fd5b505050506040513d601f19601f820116820180604052508101906118bd91906137e9565b6119095760405162461bcd60e51b815260206004820181905260248201527f496e76616c6964206e65772073706f7420707269636520666f722063757276656044820152606401610bbd565b6002546001600160801b038381169116146111f357600280546001600160801b0319166001600160801b0384169081179091556040519081527ff06180fdbe95e5193df4dcd1352726b1f04cb58599ce58552cc952447af2ffbb906020016111ea565b60281936013560601c90565b3361198b6000546001600160a01b031690565b6001600160a01b0316146119b257604051635eee3ad160e01b815260040160405180910390fd5b6119d7816119c86000546001600160a01b031690565b6001600160a01b031690612d0f565b6040518181527f0e266e8f38544aa1480d73762386eb10df55b1b8453d935762e891c44b69a1e69060200160405180910390a150565b33611a206000546001600160a01b031690565b6001600160a01b031614611a4757604051635eee3ad160e01b815260040160405180910390fd5b6001600160a01b038116611a6e57604051633b7c6c7f60e21b815260040160405180910390fd5b611a7781612d60565b6001600160a01b0381163b15611b07576040516314e8368d60e31b81523360048201526001600160a01b0382169063a741b46890602401600060405180830381600087803b158015611ac857600080fd5b505af1925050508015611ad9575060015b611b07573d808015610ddc576040519150601f19603f3d011682016040523d82523d6000602084013e505050565b50565b33611b1d6000546001600160a01b031690565b6001600160a01b031614611b4457604051635eee3ad160e01b815260040160405180910390fd5b6000611b4e6117de565b90506002816002811115611b6457611b64612f57565b1415611ba85760405162461bcd60e51b81526020600482015260136024820152724e6f7420666f7220547261646520706f6f6c7360681b6044820152606401610bbd565b6003546001600160a01b03838116600160601b90920416146111f357600380546001600160601b0316600160601b6001600160a01b038516908102919091179091556040519081527f678f61dcdee86474eddea0407caf8f1f5130382a90dedabaef94906ed86a27b4906020016111ea565b6000546001600160a01b031615611c615760405162461bcd60e51b815260206004820152600b60248201526a125b9a5d1a585b1a5e995960aa1b6044820152606401610bbd565b600080546001600160a01b0319166001600160a01b038716179055611c8560018055565b6000611c8f61196c565b90506000611c9b6117de565b90506000816002811115611cb157611cb1612f57565b1480611cce57506001816002811115611ccc57611ccc612f57565b145b15611d5d576001600160601b03841615611d385760405162461bcd60e51b815260206004820152602560248201527f4f6e6c7920547261646520506f6f6c732063616e2068617665206e6f6e7a65726044820152646f2066656560d81b6064820152608401610bbd565b600380546001600160601b0316600160601b6001600160a01b03891602179055611e5d565b6002816002811115611d7157611d71612f57565b1415611e5d57670c7d713b49da0000846001600160601b031610611dd75760405162461bcd60e51b815260206004820152601f60248201527f547261646520666565206d757374206265206c657373207468616e20393025006044820152606401610bbd565b6001600160a01b03861615611e3c5760405162461bcd60e51b815260206004820152602560248201527f547261646520706f6f6c732063616e27742073657420617373657420726563696044820152641c1a595b9d60da1b6064820152608401610bbd565b600380546bffffffffffffffffffffffff19166001600160601b0386161790555b6040516302b99f3360e21b81526001600160801b03861660048201526001600160a01b03831690630ae67ccc9060240160206040518083038186803b158015611ea557600080fd5b505afa158015611eb9573d6000803e3d6000fd5b505050506040513d601f19601f82011682018060405250810190611edd91906137e9565b611f235760405162461bcd60e51b8152602060048201526017602482015276496e76616c69642064656c746120666f7220637572766560481b6044820152606401610bbd565b604051631437765d60e31b81526001600160801b03841660048201526001600160a01b0383169063a1bbb2e89060240160206040518083038186803b158015611f6b57600080fd5b505afa158015611f7f573d6000803e3d6000fd5b505050506040513d601f19601f82011682018060405250810190611fa391906137e9565b611fef5760405162461bcd60e51b815260206004820181905260248201527f496e76616c6964206e65772073706f7420707269636520666f722063757276656044820152606401610bbd565b50506001600160801b039081169216600160801b026001600160801b03191691909117600255505050565b60006120268383612da8565b9392505050565b60006120268383612e9b565b606060448251101561207e57505060408051808201909152601d81527f5472616e73616374696f6e2072657665727465642073696c656e746c79000000602082015290565b6004820191508180602001905181019061074391906139b0565b600080600080600260009054906101000a90046001600160801b03169050600080600260109054906101000a90046001600160801b031690506000886001600160a01b0316637ca542ac85848e600360009054906101000a90046001600160601b03168d6001600160a01b0316631ce4c78b6040518163ffffffff1660e01b815260040160206040518083038186803b15801561213457600080fd5b505afa158015612148573d6000803e3d6000fd5b505050506040513d601f19601f8201168201806040525081019061216c91906136fa565b6040518663ffffffff1660e01b815260040161218c959493929190613713565b60a06040518083038186803b1580156121a457600080fd5b505afa1580156121b8573d6000803e3d6000fd5b505050506040513d601f19601f820116820180604052508101906121dc919061374d565b9a5098509196509350905060008560028111156121fb576121fb612f57565b1461221b578460405163393cb16b60e21b8152600401610bbd91906134d5565b898611156122605760405162461bcd60e51b8152602060048201526012602482015271496e20746f6f206d616e7920746f6b656e7360701b6044820152606401610bbd565b826001600160801b0316846001600160801b03161415806122935750806001600160801b0316826001600160801b031614155b156122b1576001600160801b03818116600160801b02908416176002555b826001600160801b0316846001600160801b031614612307576040516001600160801b03841681527ff06180fdbe95e5193df4dcd1352726b1f04cb58599ce58552cc952447af2ffbb9060200160405180910390a15b806001600160801b0316826001600160801b03161461235d576040516001600160801b03821681527fc958ae052d28f8d17bc2c4ddbabb699a3cab5cccefd034d0fc971efdadc01da59060200160405180910390a15b505050505094509492505050565b843410156123b15760405162461bcd60e51b81526020600482015260136024820152720a6cadce840e8dede40d8d2e8e8d8ca408aa89606b1b6044820152606401610bbd565b60006123bb6114b3565b90506001600160a01b03811630146123ea576123ea6123da8388613a26565b6001600160a01b03831690612d0f565b811561241557478211156123fc574791505b8115612415576124156001600160a01b03841683612d0f565b505050505050565b6000600161242b60046124f5565b6124359190613a26565b905060005b82811015610a7057600061244f6004846124ff565b604051632142170760e11b81529091506001600160a01b038716906342842e0e90612482903090899086906004016137c5565b600060405180830381600087803b15801561249c57600080fd5b505af11580156124b0573d6000803e3d6000fd5b505050506124c881600461201a90919063ffffffff16565b50506000199091019060010161243a565b80341115611b0757611b076124ee8234613a26565b3390612d0f565b6000610743825490565b60006120268383612eea565b8060005b8181101561241557856001600160a01b03166342842e0e308787878681811061253a5761253a6137af565b905060200201356040518463ffffffff1660e01b815260040161255f939291906137c5565b600060405180830381600087803b15801561257957600080fd5b505af115801561258d573d6000803e3d6000fd5b505050506125a6848483818110610a2557610a256137af565b5060010161250f565b600060405163a9059cbb60e01b8152836004820152826024820152602060006044836000895af13d15601f3d11600160005114161716915050806126275760405162461bcd60e51b815260206004820152600f60248201526e1514905394d1915497d19052531151608a1b6044820152606401610bbd565b50505050565b600080600080600260009054906101000a90046001600160801b03169050600080600260109054906101000a90046001600160801b031690506000886001600160a01b031663097cc63d85848e600360009054906101000a90046001600160601b03168d6001600160a01b0316631ce4c78b6040518163ffffffff1660e01b815260040160206040518083038186803b1580156126c957600080fd5b505afa1580156126dd573d6000803e3d6000fd5b505050506040513d601f19601f8201168201806040525081019061270191906136fa565b6040518663ffffffff1660e01b8152600401612721959493929190613713565b60a06040518083038186803b15801561273957600080fd5b505afa15801561274d573d6000803e3d6000fd5b505050506040513d601f19601f82011682018060405250810190612771919061374d565b9a50985091965093509050600085600281111561279057612790612f57565b146127b0578460405163393cb16b60e21b8152600401610bbd91906134d5565b898610156122605760405162461bcd60e51b81526020600482015260156024820152744f757420746f6f206c6974746c6520746f6b656e7360581b6044820152606401610bbd565b80156111f3576111f36001600160a01b03831682612d0f565b80156111f357478111156127f857504780156111f3576111f36001600160a01b03831682612d0f565b60006128446114b3565b9050848315612c755760405163a93ec68b60e01b81523360048201819052906000906001600160a01b0388169063a93ec68b90602401604080518083038186803b15801561289157600080fd5b505afa1580156128a5573d6000803e3d6000fd5b505050506040513d601f19601f820116820180604052508101906128c99190613a4b565b509050806129065760405162461bcd60e51b815260206004820152600a6024820152692737ba103937baba32b960b11b6044820152606401610bbd565b6001831115612afb576040516370a0823160e01b81526001600160a01b038581166004830152600091908c16906370a082319060240160206040518083038186803b15801561295457600080fd5b505afa158015612968573d6000803e3d6000fd5b505050506040513d601f19601f8201168201806040525081019061298c91906136fa565b905060005b84811015612a2957836001600160a01b031663748ff3398d89898f8f878181106129bd576129bd6137af565b905060200201356129cc600190565b6040518663ffffffff1660e01b81526004016129ec959493929190613a85565b600060405180830381600087803b158015612a0657600080fd5b505af1158015612a1a573d6000803e3d6000fd5b50505050806001019050612991565b506040516370a0823160e01b81526001600160a01b038681166004830152859183918e16906370a082319060240160206040518083038186803b158015612a6f57600080fd5b505afa158015612a83573d6000803e3d6000fd5b505050506040513d601f19601f82011682018060405250810190612aa791906136fa565b612ab19190613a26565b14612af55760405162461bcd60e51b81526020600482015260146024820152731391951cc81b9bdd081d1c985b9cd9995c9c995960621b6044820152606401610bbd565b50612c6e565b816001600160a01b031663748ff3398b87878d8d6000818110612b2057612b206137af565b90506020020135612b2f600190565b6040518663ffffffff1660e01b8152600401612b4f959493929190613a85565b600060405180830381600087803b158015612b6957600080fd5b505af1158015612b7d573d6000803e3d6000fd5b50505050836001600160a01b03168a6001600160a01b0316636352211e8b8b6000818110612bad57612bad6137af565b905060200201356040518263ffffffff1660e01b8152600401612bd291815260200190565b60206040518083038186803b158015612bea57600080fd5b505afa158015612bfe573d6000803e3d6000fd5b505050506040513d601f19601f82011682018060405250810190612c229190613ac3565b6001600160a01b031614612c6e5760405162461bcd60e51b8152602060048201526013602482015272139195081b9bdd081d1c985b9cd9995c9c9959606a1b6044820152606401610bbd565b5050612d05565b60005b8181101561167d57886001600160a01b03166342842e0e33858b8b86818110612ca357612ca36137af565b905060200201356040518463ffffffff1660e01b8152600401612cc8939291906137c5565b600060405180830381600087803b158015612ce257600080fd5b505af1158015612cf6573d6000803e3d6000fd5b50505050806001019050612c78565b5050505050505050565b600080600080600085875af1905080610ddc5760405162461bcd60e51b815260206004820152601360248201527211551217d514905394d1915497d19052531151606a1b6044820152606401610bbd565b600080546001600160a01b0319166001600160a01b038316908117825560405190917f04dba622d284ed0014ee4b9a6a68386be1a4c08a4913ae272de89199cc68616391a250565b60008181526001830160205260408120548015612e91576000612dcc600183613a26565b8554909150600090612de090600190613a26565b9050818114612e45576000866000018281548110612e0057612e006137af565b9060005260206000200154905080876000018481548110612e2357612e236137af565b6000918252602080832090910192909255918252600188019052604090208390555b8554869080612e5657612e56613ae0565b600190038181906000526020600020016000905590558560010160008681526020019081526020016000206000905560019350505050610743565b6000915050610743565b6000818152600183016020526040812054612ee257508154600181810184556000848152602080822090930184905584548482528286019093526040902091909155610743565b506000610743565b6000826000018281548110612f0157612f016137af565b9060005260206000200154905092915050565b600060208284031215612f2657600080fd5b81356001600160e01b03198116811461202657600080fd5b600060208284031215612f5057600080fd5b5035919050565b634e487b7160e01b600052602160045260246000fd5b60038110611b0757611b07612f57565b60a08101612f8a87612f6d565b95815260208101949094526040840192909252606083015260809091015290565b6001600160a01b0381168114611b0757600080fd5b60008083601f840112612fd257600080fd5b5081356001600160401b03811115612fe957600080fd5b6020830191508360208260051b850101111561300457600080fd5b9250929050565b60008060006040848603121561302057600080fd5b833561302b81612fab565b925060208401356001600160401b0381111561304657600080fd5b61305286828701612fc0565b9497909650939450505050565b634e487b7160e01b600052604160045260246000fd5b604051601f8201601f191681016001600160401b038111828210171561309d5761309d61305f565b604052919050565b60006001600160401b038211156130be576130be61305f565b50601f01601f191660200190565b600082601f8301126130dd57600080fd5b81356130f06130eb826130a5565b613075565b81815284602083860101111561310557600080fd5b816020850160208301376000918101602001919091529392505050565b6000806000806080858703121561313857600080fd5b843561314381612fab565b9350602085013561315381612fab565b92506040850135915060608501356001600160401b0381111561317557600080fd5b613181878288016130cc565b91505092959194509250565b6000806000604084860312156131a257600080fd5b83356131ad81612fab565b925060208401356001600160401b03808211156131c957600080fd5b818601915086601f8301126131dd57600080fd5b8135818111156131ec57600080fd5b8760208285010111156131fe57600080fd5b6020830194508093505050509250925092565b8015158114611b0757600080fd5b60008060006040848603121561323457600080fd5b83356001600160401b0381111561324a57600080fd5b61325686828701612fc0565b909450925050602084013561326a81613211565b809150509250925092565b600080600080600060a0868803121561328d57600080fd5b853594506020860135935060408601356132a681612fab565b925060608601356132b681613211565b915060808601356132c681612fab565b809150509295509295909350565b6020808252825182820181905260009190848201906040850190845b8181101561330c578351835292840192918401916001016132f0565b50909695505050505050565b6004811061332857613328612f57565b9052565b602081016107438284613318565b6001600160801b0381168114611b0757600080fd5b60006020828403121561336157600080fd5b81356120268161333a565b80356001600160601b038116811461338357600080fd5b919050565b60006020828403121561339a57600080fd5b6120268261336c565b60008060008060008060a087890312156133bc57600080fd5b86356001600160401b038111156133d257600080fd5b6133de89828a01612fc0565b9097509550506020870135935060408701356133f981612fab565b9250606087013561340981613211565b9150608087013561341981612fab565b809150509295509295509295565b6000806040838503121561343a57600080fd5b823561344581612fab565b946020939093013593505050565b60008060008060006060868803121561346b57600080fd5b853561347681612fab565b945060208601356001600160401b038082111561349257600080fd5b61349e89838a01612fc0565b909650945060408801359150808211156134b757600080fd5b506134c488828901612fc0565b969995985093965092949392505050565b602081016134e283612f6d565b91905290565b600082601f8301126134f957600080fd5b813560206001600160401b038211156135145761351461305f565b8160051b613523828201613075565b928352848101820192828101908785111561353d57600080fd5b83870192505b8483101561355c57823582529183019190830190613543565b979650505050505050565b600080600080600060a0868803121561357f57600080fd5b853561358a81612fab565b9450602086013561359a81612fab565b935060408601356001600160401b03808211156135b657600080fd5b6135c289838a016134e8565b945060608801359150808211156135d857600080fd5b6135e489838a016134e8565b935060808801359150808211156135fa57600080fd5b50613607888289016130cc565b9150509295509295909350565b600080600080600060a0868803121561362c57600080fd5b853561363781612fab565b9450602086013561364781612fab565b9350604086013592506060860135915060808601356001600160401b0381111561367057600080fd5b613607888289016130cc565b60006020828403121561368e57600080fd5b813561202681612fab565b600080600080600060a086880312156136b157600080fd5b85356136bc81612fab565b945060208601356136cc81612fab565b935060408601356136dc8161333a565b92506136ea6060870161336c565b915060808601356132c68161333a565b60006020828403121561370c57600080fd5b5051919050565b6001600160801b03958616815293909416602084015260408301919091526001600160601b03166060820152608081019190915260a00190565b600080600080600060a0868803121561376557600080fd5b85516003811061377457600080fd5b60208701519095506137858161333a565b60408701519094506137968161333a565b6060870151608090970151959894975095949392505050565b634e487b7160e01b600052603260045260246000fd5b6001600160a01b039384168152919092166020820152604081019190915260600190565b6000602082840312156137fb57600080fd5b815161202681613211565b8183823760009101908152919050565b6000808335601e1984360301811261382d57600080fd5b8301803591506001600160401b0382111561384757600080fd5b60200191503681900382131561300457600080fd5b60005b8381101561387757818101518382015260200161385f565b838111156126275750506000910152565b60208152600082518060208401526138a781604085016020870161385c565b601f01601f19169190910160400192915050565b6020808252601f908201527f5265656e7472616e637947756172643a207265656e7472616e742063616c6c00604082015260600190565b6020808252600f908201526e57726f6e6720506f6f6c207479706560881b604082015260600190565b81835260006001600160fb1b0383111561393457600080fd5b8260051b8083602087013760009401602001938452509192915050565b6001600160a01b0387811682528616602082015260a06040820181905260009061397e908301868861391b565b828103606084015261399181858761391b565b8381036080909401939093525050600081526020019695505050505050565b6000602082840312156139c257600080fd5b81516001600160401b038111156139d857600080fd5b8201601f810184136139e957600080fd5b80516139f76130eb826130a5565b818152856020838501011115613a0c57600080fd5b613a1d82602083016020860161385c565b95945050505050565b600082821015613a4657634e487b7160e01b600052601160045260246000fd5b500390565b60008060408385031215613a5e57600080fd5b8251613a6981613211565b6020840151909250613a7a81613211565b809150509250929050565b6001600160a01b0386811682528581166020830152841660408201526060810183905260a08101613ab96080830184613318565b9695505050505050565b600060208284031215613ad557600080fd5b815161202681612fab565b634e487b7160e01b600052603160045260246000fdfea2646970667358221220d44336e983f0a531a9f6d5ffe3f0f1fd16b1db9df740c05a7a0b7d92f3c1da3064736f6c63430008090033",
  "linkReferences": {},
  "deployedLinkReferences": {}
}