{
  "_format": "hh-sol-artifact-1",
  "contractName": "LSSVMPairMissingEnumerableERC20",
  "sourceName": "contracts/LSSVMPairMissingEnumerableERC20.sol",
  "abi": [
    {
      "inputs": [
        {
          "internalType": "enum CurveErrorCodes.Error",
          "name": "error",
          "type": "uint8"
        }
      ],
      "name": "BondingCurveError",
      "type": "error"
    },
    {
      "inputs": [],
      "name": "Ownable_NewOwnerZeroAddress",
      "type": "error"
    },
    {
      "inputs": [],
      "name": "Ownable_NotOwner",
      "type": "error"
    },
    {
      "anonymous": false,
      "inputs": [
        {
          "indexed": false,
          "internalType": "address",
          "name": "a",
          "type": "address"
        }
      ],
      "name": "AssetRecipientChange",
      "type": "event"
    },
    {
      "anonymous": false,
      "inputs": [
        {
          "indexed": false,
          "internalType": "uint128",
          "name": "newDelta",
          "type": "uint128"
        }
      ],
      "name": "DeltaUpdate",
      "type": "event"
    },
    {
      "anonymous": false,
      "inputs": [
        {
          "indexed": false,
          "internalType": "uint96",
          "name": "newFee",
          "type": "uint96"
        }
      ],
      "name": "FeeUpdate",
      "type": "event"
    },
    {
      "anonymous": false,
      "inputs": [],
      "name": "NFTWithdrawal",
      "type": "event"
    },
    {
      "anonymous": false,
      "inputs": [
        {
          "indexed": true,
          "internalType": "address",
          "name": "newOwner",
          "type": "address"
        }
      ],
      "name": "OwnershipTransferred",
      "type": "event"
    },
    {
      "anonymous": false,
      "inputs": [
        {
          "indexed": false,
          "internalType": "uint128",
          "name": "newSpotPrice",
          "type": "uint128"
        }
      ],
      "name": "SpotPriceUpdate",
      "type": "event"
    },
    {
      "anonymous": false,
      "inputs": [],
      "name": "SwapNFTInPair",
      "type": "event"
    },
    {
      "anonymous": false,
      "inputs": [],
      "name": "SwapNFTOutPair",
      "type": "event"
    },
    {
      "anonymous": false,
      "inputs": [
        {
          "indexed": false,
          "internalType": "uint256",
          "name": "amount",
          "type": "uint256"
        }
      ],
      "name": "TokenDeposit",
      "type": "event"
    },
    {
      "anonymous": false,
      "inputs": [
        {
          "indexed": false,
          "internalType": "uint256",
          "name": "amount",
          "type": "uint256"
        }
      ],
      "name": "TokenWithdrawal",
      "type": "event"
    },
    {
      "inputs": [],
      "name": "assetRecipient",
      "outputs": [
        {
          "internalType": "address payable",
          "name": "",
          "type": "address"
        }
      ],
      "stateMutability": "view",
      "type": "function"
    },
    {
      "inputs": [],
      "name": "bondingCurve",
      "outputs": [
        {
          "internalType": "contract ICurve",
          "name": "_bondingCurve",
          "type": "address"
        }
      ],
      "stateMutability": "pure",
      "type": "function"
    },
    {
      "inputs": [
        {
          "internalType": "address payable",
          "name": "target",
          "type": "address"
        },
        {
          "internalType": "bytes",
          "name": "data",
          "type": "bytes"
        }
      ],
      "name": "call",
      "outputs": [],
      "stateMutability": "nonpayable",
      "type": "function"
    },
    {
      "inputs": [
        {
          "internalType": "address payable",
          "name": "newRecipient",
          "type": "address"
        }
      ],
      "name": "changeAssetRecipient",
      "outputs": [],
      "stateMutability": "nonpayable",
      "type": "function"
    },
    {
      "inputs": [
        {
          "internalType": "uint128",
          "name": "newDelta",
          "type": "uint128"
        }
      ],
      "name": "changeDelta",
      "outputs": [],
      "stateMutability": "nonpayable",
      "type": "function"
    },
    {
      "inputs": [
        {
          "internalType": "uint96",
          "name": "newFee",
          "type": "uint96"
        }
      ],
      "name": "changeFee",
      "outputs": [],
      "stateMutability": "nonpayable",
      "type": "function"
    },
    {
      "inputs": [
        {
          "internalType": "uint128",
          "name": "newSpotPrice",
          "type": "uint128"
        }
      ],
      "name": "changeSpotPrice",
      "outputs": [],
      "stateMutability": "nonpayable",
      "type": "function"
    },
    {
      "inputs": [],
      "name": "delta",
      "outputs": [
        {
          "internalType": "uint128",
          "name": "",
          "type": "uint128"
        }
      ],
      "stateMutability": "view",
      "type": "function"
    },
    {
      "inputs": [],
      "name": "factory",
      "outputs": [
        {
          "internalType": "contract ILSSVMPairFactoryLike",
          "name": "_factory",
          "type": "address"
        }
      ],
      "stateMutability": "pure",
      "type": "function"
    },
    {
      "inputs": [],
      "name": "fee",
      "outputs": [
        {
          "internalType": "uint96",
          "name": "",
          "type": "uint96"
        }
      ],
      "stateMutability": "view",
      "type": "function"
    },
    {
      "inputs": [],
      "name": "getAllHeldIds",
      "outputs": [
        {
          "internalType": "uint256[]",
          "name": "",
          "type": "uint256[]"
        }
      ],
      "stateMutability": "view",
      "type": "function"
    },
    {
      "inputs": [],
      "name": "getAssetRecipient",
      "outputs": [
        {
          "internalType": "address payable",
          "name": "_assetRecipient",
          "type": "address"
        }
      ],
      "stateMutability": "view",
      "type": "function"
    },
    {
      "inputs": [
        {
          "internalType": "uint256",
          "name": "numNFTs",
          "type": "uint256"
        }
      ],
      "name": "getBuyNFTQuote",
      "outputs": [
        {
          "internalType": "enum CurveErrorCodes.Error",
          "name": "error",
          "type": "uint8"
        },
        {
          "internalType": "uint256",
          "name": "newSpotPrice",
          "type": "uint256"
        },
        {
          "internalType": "uint256",
          "name": "newDelta",
          "type": "uint256"
        },
        {
          "internalType": "uint256",
          "name": "inputAmount",
          "type": "uint256"
        },
        {
          "internalType": "uint256",
          "name": "protocolFee",
          "type": "uint256"
        }
      ],
      "stateMutability": "view",
      "type": "function"
    },
    {
      "inputs": [
        {
          "internalType": "uint256",
          "name": "numNFTs",
          "type": "uint256"
        }
      ],
      "name": "getSellNFTQuote",
      "outputs": [
        {
          "internalType": "enum CurveErrorCodes.Error",
          "name": "error",
          "type": "uint8"
        },
        {
          "internalType": "uint256",
          "name": "newSpotPrice",
          "type": "uint256"
        },
        {
          "internalType": "uint256",
          "name": "newDelta",
          "type": "uint256"
        },
        {
          "internalType": "uint256",
          "name": "outputAmount",
          "type": "uint256"
        },
        {
          "internalType": "uint256",
          "name": "protocolFee",
          "type": "uint256"
        }
      ],
      "stateMutability": "view",
      "type": "function"
    },
    {
      "inputs": [
        {
          "internalType": "address",
          "name": "_owner",
          "type": "address"
        },
        {
          "internalType": "address payable",
          "name": "_assetRecipient",
          "type": "address"
        },
        {
          "internalType": "uint128",
          "name": "_delta",
          "type": "uint128"
        },
        {
          "internalType": "uint96",
          "name": "_fee",
          "type": "uint96"
        },
        {
          "internalType": "uint128",
          "name": "_spotPrice",
          "type": "uint128"
        }
      ],
      "name": "initialize",
      "outputs": [],
      "stateMutability": "payable",
      "type": "function"
    },
    {
      "inputs": [
        {
          "internalType": "bytes[]",
          "name": "calls",
          "type": "bytes[]"
        },
        {
          "internalType": "bool",
          "name": "revertOnFail",
          "type": "bool"
        }
      ],
      "name": "multicall",
      "outputs": [],
      "stateMutability": "nonpayable",
      "type": "function"
    },
    {
      "inputs": [],
      "name": "nft",
      "outputs": [
        {
          "internalType": "contract IERC721",
          "name": "_nft",
          "type": "address"
        }
      ],
      "stateMutability": "pure",
      "type": "function"
    },
    {
      "inputs": [
        {
          "internalType": "address",
          "name": "",
          "type": "address"
        },
        {
          "internalType": "address",
          "name": "",
          "type": "address"
        },
        {
          "internalType": "uint256[]",
          "name": "",
          "type": "uint256[]"
        },
        {
          "internalType": "uint256[]",
          "name": "",
          "type": "uint256[]"
        },
        {
          "internalType": "bytes",
          "name": "",
          "type": "bytes"
        }
      ],
      "name": "onERC1155BatchReceived",
      "outputs": [
        {
          "internalType": "bytes4",
          "name": "",
          "type": "bytes4"
        }
      ],
      "stateMutability": "nonpayable",
      "type": "function"
    },
    {
      "inputs": [
        {
          "internalType": "address",
          "name": "",
          "type": "address"
        },
        {
          "internalType": "address",
          "name": "",
          "type": "address"
        },
        {
          "internalType": "uint256",
          "name": "",
          "type": "uint256"
        },
        {
          "internalType": "uint256",
          "name": "",
          "type": "uint256"
        },
        {
          "internalType": "bytes",
          "name": "",
          "type": "bytes"
        }
      ],
      "name": "onERC1155Received",
      "outputs": [
        {
          "internalType": "bytes4",
          "name": "",
          "type": "bytes4"
        }
      ],
      "stateMutability": "nonpayable",
      "type": "function"
    },
    {
      "inputs": [
        {
          "internalType": "address",
          "name": "",
          "type": "address"
        },
        {
          "internalType": "address",
          "name": "",
          "type": "address"
        },
        {
          "internalType": "uint256",
          "name": "id",
          "type": "uint256"
        },
        {
          "internalType": "bytes",
          "name": "",
          "type": "bytes"
        }
      ],
      "name": "onERC721Received",
      "outputs": [
        {
          "internalType": "bytes4",
          "name": "",
          "type": "bytes4"
        }
      ],
      "stateMutability": "nonpayable",
      "type": "function"
    },
    {
      "inputs": [],
      "name": "owner",
      "outputs": [
        {
          "internalType": "address",
          "name": "",
          "type": "address"
        }
      ],
      "stateMutability": "view",
      "type": "function"
    },
    {
      "inputs": [],
      "name": "pairVariant",
      "outputs": [
        {
          "internalType": "enum ILSSVMPairFactoryLike.PairVariant",
          "name": "",
          "type": "uint8"
        }
      ],
      "stateMutability": "pure",
      "type": "function"
    },
    {
      "inputs": [],
      "name": "poolType",
      "outputs": [
        {
          "internalType": "enum LSSVMPair.PoolType",
          "name": "_poolType",
          "type": "uint8"
        }
      ],
      "stateMutability": "pure",
      "type": "function"
    },
    {
      "inputs": [],
      "name": "spotPrice",
      "outputs": [
        {
          "internalType": "uint128",
          "name": "",
          "type": "uint128"
        }
      ],
      "stateMutability": "view",
      "type": "function"
    },
    {
      "inputs": [
        {
          "internalType": "bytes4",
          "name": "interfaceId",
          "type": "bytes4"
        }
      ],
      "name": "supportsInterface",
      "outputs": [
        {
          "internalType": "bool",
          "name": "",
          "type": "bool"
        }
      ],
      "stateMutability": "view",
      "type": "function"
    },
    {
      "inputs": [
        {
          "internalType": "uint256[]",
          "name": "nftIds",
          "type": "uint256[]"
        },
        {
          "internalType": "uint256",
          "name": "minExpectedTokenOutput",
          "type": "uint256"
        },
        {
          "internalType": "address payable",
          "name": "tokenRecipient",
          "type": "address"
        },
        {
          "internalType": "bool",
          "name": "isRouter",
          "type": "bool"
        },
        {
          "internalType": "address",
          "name": "routerCaller",
          "type": "address"
        }
      ],
      "name": "swapNFTsForToken",
      "outputs": [
        {
          "internalType": "uint256",
          "name": "outputAmount",
          "type": "uint256"
        }
      ],
      "stateMutability": "nonpayable",
      "type": "function"
    },
    {
      "inputs": [
        {
          "internalType": "uint256",
          "name": "numNFTs",
          "type": "uint256"
        },
        {
          "internalType": "uint256",
          "name": "maxExpectedTokenInput",
          "type": "uint256"
        },
        {
          "internalType": "address",
          "name": "nftRecipient",
          "type": "address"
        },
        {
          "internalType": "bool",
          "name": "isRouter",
          "type": "bool"
        },
        {
          "internalType": "address",
          "name": "routerCaller",
          "type": "address"
        }
      ],
      "name": "swapTokenForAnyNFTs",
      "outputs": [
        {
          "internalType": "uint256",
          "name": "inputAmount",
          "type": "uint256"
        }
      ],
      "stateMutability": "payable",
      "type": "function"
    },
    {
      "inputs": [
        {
          "internalType": "uint256[]",
          "name": "nftIds",
          "type": "uint256[]"
        },
        {
          "internalType": "uint256",
          "name": "maxExpectedTokenInput",
          "type": "uint256"
        },
        {
          "internalType": "address",
          "name": "nftRecipient",
          "type": "address"
        },
        {
          "internalType": "bool",
          "name": "isRouter",
          "type": "bool"
        },
        {
          "internalType": "address",
          "name": "routerCaller",
          "type": "address"
        }
      ],
      "name": "swapTokenForSpecificNFTs",
      "outputs": [
        {
          "internalType": "uint256",
          "name": "inputAmount",
          "type": "uint256"
        }
      ],
      "stateMutability": "payable",
      "type": "function"
    },
    {
      "inputs": [],
      "name": "token",
      "outputs": [
        {
          "internalType": "contract ERC20",
          "name": "_token",
          "type": "address"
        }
      ],
      "stateMutability": "pure",
      "type": "function"
    },
    {
      "inputs": [
        {
          "internalType": "address",
          "name": "newOwner",
          "type": "address"
        }
      ],
      "name": "transferOwnership",
      "outputs": [],
      "stateMutability": "nonpayable",
      "type": "function"
    },
    {
      "inputs": [
        {
          "internalType": "contract IERC1155",
          "name": "a",
          "type": "address"
        },
        {
          "internalType": "uint256[]",
          "name": "ids",
          "type": "uint256[]"
        },
        {
          "internalType": "uint256[]",
          "name": "amounts",
          "type": "uint256[]"
        }
      ],
      "name": "withdrawERC1155",
      "outputs": [],
      "stateMutability": "nonpayable",
      "type": "function"
    },
    {
      "inputs": [
        {
          "internalType": "contract ERC20",
          "name": "a",
          "type": "address"
        },
        {
          "internalType": "uint256",
          "name": "amount",
          "type": "uint256"
        }
      ],
      "name": "withdrawERC20",
      "outputs": [],
      "stateMutability": "nonpayable",
      "type": "function"
    },
    {
      "inputs": [
        {
          "internalType": "contract IERC721",
          "name": "a",
          "type": "address"
        },
        {
          "internalType": "uint256[]",
          "name": "nftIds",
          "type": "uint256[]"
        }
      ],
      "name": "withdrawERC721",
      "outputs": [],
      "stateMutability": "nonpayable",
      "type": "function"
    }
  ],
  "bytecode": "0x608060405234801561001057600080fd5b50613d77806100206000396000f3fe6080604052600436106101ee5760003560e01c806379eac6c21161010d578063c45a0155116100a0578063f23a6e611161006f578063f23a6e61146105dc578063f2fde38b14610608578063f462954914610628578063fc0c546a14610648578063fd17aef91461066357600080fd5b8063c45a01551461055a578063d8a1890c1461056f578063ddca3f431461058f578063eff1d50e146105c757600080fd5b8063a5ceac99116100dc578063a5ceac99146104cc578063b1d3f1c1146104ec578063b1dd61b61461050c578063bc197c811461052e57600080fd5b806379eac6c2146104595780638da5cb5b1461046e578063a1db97821461048c578063a5cb2b91146104ac57600080fd5b80632f4fefaf1161018557806347ccca021161015457806347ccca02146103f15780636809f664146104065780636b7a2200146104265780636d8b99f71461044657600080fd5b80632f4fefaf146103545780633053fc5814610376578063398482d8146103925780633bfa67fe146103b257600080fd5b8063150b7a02116101c1578063150b7a02146102ba5780631b8b921d146102f35780631e9701d41461031357806328b8aee11461033357600080fd5b806301ffc9a7146101f35780630c295e561461022857806312b495a81461025957806313edab8114610298575b600080fd5b3480156101ff57600080fd5b5061021361020e36600461315f565b610676565b60405190151581526020015b60405180910390f35b34801561023457600080fd5b50610248610243366004613189565b6106ad565b60405161021f9594939291906131c8565b34801561026557600080fd5b5060025461028090600160801b90046001600160801b031681565b6040516001600160801b03909116815260200161021f565b3480156102a457600080fd5b506102b86102b3366004613256565b6107ff565b005b3480156102c657600080fd5b506102da6102d536600461336d565b6109db565b6040516001600160e01b0319909116815260200161021f565b3480156102ff57600080fd5b506102b861030e3660046133d8565b610a18565b34801561031f57600080fd5b506102b861032e36600461346a565b610bc9565b6103466103413660046134c0565b610d45565b60405190815260200161021f565b34801561036057600080fd5b50610369610f2e565b60405161021f919061351f565b34801561038257600080fd5b50600360405161021f9190613577565b34801561039e57600080fd5b50600254610280906001600160801b031681565b3480156103be57600080fd5b506003546103d990600160601b90046001600160a01b031681565b6040516001600160a01b03909116815260200161021f565b3480156103fd57600080fd5b506103d9610fc6565b34801561041257600080fd5b506102b861042136600461359a565b610fd2565b34801561043257600080fd5b506102b86104413660046135d3565b611152565b6103466104543660046135ee565b6112b8565b34801561046557600080fd5b506103d9611405565b34801561047a57600080fd5b506000546001600160a01b03166103d9565b34801561049857600080fd5b506102b86104a7366004613672565b61144c565b3480156104b857600080fd5b506102486104c7366004613189565b6114e3565b3480156104d857600080fd5b506102b86104e736600461369e565b611535565b3480156104f857600080fd5b506103466105073660046135ee565b6115de565b34801561051857600080fd5b50610521611734565b60405161021f9190613720565b34801561053a57600080fd5b506102da6105493660046137b2565b63bc197c8160e01b95945050505050565b34801561056657600080fd5b506103d9611740565b34801561057b57600080fd5b506102b861058a36600461359a565b61174c565b34801561059b57600080fd5b506003546105af906001600160601b031681565b6040516001600160601b03909116815260200161021f565b3480156105d357600080fd5b506103d96118c2565b3480156105e857600080fd5b506102da6105f736600461385f565b63f23a6e6160e01b95945050505050565b34801561061457600080fd5b506102b86106233660046138c7565b6118ce565b34801561063457600080fd5b506102b86106433660046138c7565b6119cb565b34801561065457600080fd5b5036601319013560601c6103d9565b6102b86106713660046138e4565b611adb565b60006001600160e01b03198216630271189760e51b14806106a757506301ffc9a760e01b6001600160e01b03198316145b92915050565b60008060008060006106bd6118c2565b6002546003546001600160a01b03929092169163097cc63d916001600160801b0380821692600160801b90920416908a906001600160601b03166106ff611740565b6001600160a01b0316631ce4c78b6040518163ffffffff1660e01b815260040160206040518083038186803b15801561073757600080fd5b505afa15801561074b573d6000803e3d6000fd5b505050506040513d601f19601f8201168201806040525081019061076f9190613945565b6040518663ffffffff1660e01b815260040161078f95949392919061395e565b60a06040518083038186803b1580156107a757600080fd5b505afa1580156107bb573d6000803e3d6000fd5b505050506040513d601f19601f820116820180604052508101906107df9190613998565b939a6001600160801b039384169a50919092169750909550909350915050565b336108126000546001600160a01b031690565b6001600160a01b03161461083957604051635eee3ad160e01b815260040160405180910390fd5b6000610843610fc6565b9050816001600160a01b03858116908316146108ef5760005b818110156108e957856001600160a01b03166342842e0e3033888886818110610887576108876139fa565b905060200201356040518463ffffffff1660e01b81526004016108ac93929190613a10565b600060405180830381600087803b1580156108c657600080fd5b505af11580156108da573d6000803e3d6000fd5b5050505080600101905061085c565b506109d4565b60005b818110156109a957826001600160a01b03166342842e0e303388888681811061091d5761091d6139fa565b905060200201356040518463ffffffff1660e01b815260040161094293929190613a10565b600060405180830381600087803b15801561095c57600080fd5b505af1158015610970573d6000803e3d6000fd5b505050506109a0858583818110610989576109896139fa565b905060200201356004611edb90919063ffffffff16565b506001016108f2565b506040517f242b9b8fb5c0e6298454fcf80a0fbcbb7308620133d92b50091a1f64cee790e890600090a15b5050505050565b6000806109e6610fc6565b9050336001600160a01b0382161415610a0657610a04600485611eee565b505b50630a85bd0160e11b95945050505050565b33610a2b6000546001600160a01b031690565b6001600160a01b031614610a5257604051635eee3ad160e01b815260040160405180910390fd5b6000610a5c611740565b6040516303f752bd60e31b81526001600160a01b03868116600483015291925090821690631fba95e89060240160206040518083038186803b158015610aa157600080fd5b505afa158015610ab5573d6000803e3d6000fd5b505050506040513d601f19601f82011682018060405250810190610ad99190613a34565b610b2a5760405162461bcd60e51b815260206004820152601a60248201527f546172676574206d7573742062652077686974656c697374656400000000000060448201526064015b60405180910390fd5b6000846001600160a01b031660008585604051610b48929190613a51565b60006040518083038185875af1925050503d8060008114610b85576040519150601f19603f3d011682016040523d82523d6000602084013e610b8a565b606091505b50509050806109d45760405162461bcd60e51b815260206004820152600b60248201526a10d85b1b0819985a5b195960aa1b6044820152606401610b21565b33610bdc6000546001600160a01b031690565b6001600160a01b031614610c0357604051635eee3ad160e01b815260040160405180910390fd5b60005b82811015610cc55760008030868685818110610c2457610c246139fa565b9050602002810190610c369190613a61565b604051610c44929190613a51565b600060405180830381855af49150503d8060008114610c7f576040519150601f19603f3d011682016040523d82523d6000602084013e610c84565b606091505b509150915081158015610c945750835b15610cbb57610ca281611efa565b60405162461bcd60e51b8152600401610b219190613ad3565b5050600101610c06565b5033610cd96000546001600160a01b031690565b6001600160a01b031614610d405760405162461bcd60e51b815260206004820152602860248201527f4f776e6572736869702063616e6e6f74206265206368616e67656420696e206d6044820152671d5b1d1a58d85b1b60c21b6064820152608401610b21565b505050565b600060026001541415610d6a5760405162461bcd60e51b8152600401610b2190613b06565b60026001556000610d79611740565b90506000610d856118c2565b90506000610d91610fc6565b90506000610d9d611734565b90506001816002811115610db357610db36131a2565b1480610dd057506002816002811115610dce57610dce6131a2565b145b610dec5760405162461bcd60e51b8152600401610b2190613b3d565b60008a118015610e7257506040516370a0823160e01b81523060048201526001600160a01b038316906370a082319060240160206040518083038186803b158015610e3657600080fd5b505afa158015610e4a573d6000803e3d6000fd5b505050506040513d601f19601f82011682018060405250810190610e6e9190613945565b8a11155b610ec85760405162461bcd60e51b815260206004820152602160248201527f41736b20666f72203e203020616e64203c3d2062616c616e63654f66204e46546044820152607360f81b6064820152608401610b21565b506000610ed78a8a8587611f59565b95509050610ee8858888878561222c565b610ef382898c6125bd565b6040517fbc479dfc6cb9c1a9d880f987ee4b30fa43dd7f06aec121db685b67d587c93c9390600090a150506001805550909695505050505050565b60606000610f3c6004612679565b90506000816001600160401b03811115610f5857610f586132aa565b604051908082528060200260200182016040528015610f81578160200160208202803683370190505b50905060005b82811015610fbf57610f9a600482612683565b828281518110610fac57610fac6139fa565b6020908102919091010152600101610f87565b5092915050565b60281936013560601c90565b33610fe56000546001600160a01b031690565b6001600160a01b03161461100c57604051635eee3ad160e01b815260040160405180910390fd5b60006110166118c2565b6040516302b99f3360e21b81526001600160801b03841660048201529091506001600160a01b03821690630ae67ccc9060240160206040518083038186803b15801561106157600080fd5b505afa158015611075573d6000803e3d6000fd5b505050506040513d601f19601f820116820180604052508101906110999190613a34565b6110df5760405162461bcd60e51b8152602060048201526017602482015276496e76616c69642064656c746120666f7220637572766560481b6044820152606401610b21565b6002546001600160801b03838116600160801b909204161461114e57600280546001600160801b03908116600160801b918516918202179091556040519081527fc958ae052d28f8d17bc2c4ddbabb699a3cab5cccefd034d0fc971efdadc01da5906020015b60405180910390a15b5050565b336111656000546001600160a01b031690565b6001600160a01b03161461118c57604051635eee3ad160e01b815260040160405180910390fd5b6000611196611734565b905060028160028111156111ac576111ac6131a2565b146111f05760405162461bcd60e51b81526020600482015260146024820152734f6e6c7920666f7220547261646520706f6f6c7360601b6044820152606401610b21565b670c7d713b49da0000826001600160601b0316106112505760405162461bcd60e51b815260206004820152601f60248201527f547261646520666565206d757374206265206c657373207468616e20393025006044820152606401610b21565b6003546001600160601b0383811691161461114e57600380546bffffffffffffffffffffffff19166001600160601b0384169081179091556040519081527f66c55c30868c51e7ad52e3d85d1403576a9967614e67c48e25b55a10baa650c090602001611145565b6000600260015414156112dd5760405162461bcd60e51b8152600401610b2190613b06565b600260015560006112ec611740565b905060006112f86118c2565b90506000611304611734565b9050600181600281111561131a5761131a6131a2565b148061133757506002816002811115611335576113356131a2565b145b6113535760405162461bcd60e51b8152600401610b2190613b3d565b886113985760405162461bcd60e51b81526020600482015260156024820152744d7573742061736b20666f72203e2030204e46547360581b6044820152606401610b21565b5060006113a789898486611f59565b945090506113b8848787868561222c565b6113cb6113c3610fc6565b888c8c61268f565b6040517fbc479dfc6cb9c1a9d880f987ee4b30fa43dd7f06aec121db685b67d587c93c9390600090a1505060018055509695505050505050565b60006002611411611734565b6002811115611422576114226131a2565b141561142d57503090565b50600354600160601b90046001600160a01b0316806114495750305b90565b3361145f6000546001600160a01b031690565b6001600160a01b03161461148657604051635eee3ad160e01b815260040160405180910390fd5b61149a6001600160a01b038316338361273b565b6001600160a01b03821660131936013560601c141561114e576040518181527f0e266e8f38544aa1480d73762386eb10df55b1b8453d935762e891c44b69a1e690602001611145565b60008060008060006114f36118c2565b6002546003546001600160a01b039290921691637ca542ac916001600160801b0380821692600160801b90920416908a906001600160601b03166106ff611740565b336115486000546001600160a01b031690565b6001600160a01b03161461156f57604051635eee3ad160e01b815260040160405180910390fd5b604051631759616b60e11b81526001600160a01b03861690632eb2c2d6906115a590309033908990899089908990600401613b9c565b600060405180830381600087803b1580156115bf57600080fd5b505af11580156115d3573d6000803e3d6000fd5b505050505050505050565b6000600260015414156116035760405162461bcd60e51b8152600401610b2190613b06565b60026001556000611612611740565b9050600061161e6118c2565b9050600061162a611734565b90506000816002811115611640576116406131a2565b148061165d5750600281600281111561165b5761165b6131a2565b145b6116795760405162461bcd60e51b8152600401610b2190613b3d565b886116be5760405162461bcd60e51b81526020600482015260156024820152744d7573742061736b20666f72203e2030204e46547360581b6044820152606401610b21565b5060006116cd898984866127b9565b945090506116db8785612984565b6116e5838261299d565b6116fa6116f0610fc6565b8b8b868a8a612a53565b6040517f3614eb567740a0ee3897c0e2b11ad6a5720d2e4438f9c8accf6c95c24af3a47090600090a1505060018055509695505050505050565b60141936013560f81c90565b60501936013560601c90565b3361175f6000546001600160a01b031690565b6001600160a01b03161461178657604051635eee3ad160e01b815260040160405180910390fd5b60006117906118c2565b604051631437765d60e31b81526001600160801b03841660048201529091506001600160a01b0382169063a1bbb2e89060240160206040518083038186803b1580156117db57600080fd5b505afa1580156117ef573d6000803e3d6000fd5b505050506040513d601f19601f820116820180604052508101906118139190613a34565b61185f5760405162461bcd60e51b815260206004820181905260248201527f496e76616c6964206e65772073706f7420707269636520666f722063757276656044820152606401610b21565b6002546001600160801b0383811691161461114e57600280546001600160801b0319166001600160801b0384169081179091556040519081527ff06180fdbe95e5193df4dcd1352726b1f04cb58599ce58552cc952447af2ffbb90602001611145565b603c1936013560601c90565b336118e16000546001600160a01b031690565b6001600160a01b03161461190857604051635eee3ad160e01b815260040160405180910390fd5b6001600160a01b03811661192f57604051633b7c6c7f60e21b815260040160405180910390fd5b61193881612f28565b6001600160a01b0381163b156119c8576040516314e8368d60e31b81523360048201526001600160a01b0382169063a741b46890602401600060405180830381600087803b15801561198957600080fd5b505af192505050801561199a575060015b6119c8573d808015610d40576040519150601f19603f3d011682016040523d82523d6000602084013e505050565b50565b336119de6000546001600160a01b031690565b6001600160a01b031614611a0557604051635eee3ad160e01b815260040160405180910390fd5b6000611a0f611734565b90506002816002811115611a2557611a256131a2565b1415611a695760405162461bcd60e51b81526020600482015260136024820152724e6f7420666f7220547261646520706f6f6c7360681b6044820152606401610b21565b6003546001600160a01b03838116600160601b909204161461114e57600380546001600160601b0316600160601b6001600160a01b038516908102919091179091556040519081527f678f61dcdee86474eddea0407caf8f1f5130382a90dedabaef94906ed86a27b490602001611145565b6000546001600160a01b031615611b225760405162461bcd60e51b815260206004820152600b60248201526a125b9a5d1a585b1a5e995960aa1b6044820152606401610b21565b600080546001600160a01b0319166001600160a01b038716179055611b4660018055565b6000611b506118c2565b90506000611b5c611734565b90506000816002811115611b7257611b726131a2565b1480611b8f57506001816002811115611b8d57611b8d6131a2565b145b15611c1e576001600160601b03841615611bf95760405162461bcd60e51b815260206004820152602560248201527f4f6e6c7920547261646520506f6f6c732063616e2068617665206e6f6e7a65726044820152646f2066656560d81b6064820152608401610b21565b600380546001600160601b0316600160601b6001600160a01b03891602179055611d1e565b6002816002811115611c3257611c326131a2565b1415611d1e57670c7d713b49da0000846001600160601b031610611c985760405162461bcd60e51b815260206004820152601f60248201527f547261646520666565206d757374206265206c657373207468616e20393025006044820152606401610b21565b6001600160a01b03861615611cfd5760405162461bcd60e51b815260206004820152602560248201527f547261646520706f6f6c732063616e27742073657420617373657420726563696044820152641c1a595b9d60da1b6064820152608401610b21565b600380546bffffffffffffffffffffffff19166001600160601b0386161790555b6040516302b99f3360e21b81526001600160801b03861660048201526001600160a01b03831690630ae67ccc9060240160206040518083038186803b158015611d6657600080fd5b505afa158015611d7a573d6000803e3d6000fd5b505050506040513d601f19601f82011682018060405250810190611d9e9190613a34565b611de45760405162461bcd60e51b8152602060048201526017602482015276496e76616c69642064656c746120666f7220637572766560481b6044820152606401610b21565b604051631437765d60e31b81526001600160801b03841660048201526001600160a01b0383169063a1bbb2e89060240160206040518083038186803b158015611e2c57600080fd5b505afa158015611e40573d6000803e3d6000fd5b505050506040513d601f19601f82011682018060405250810190611e649190613a34565b611eb05760405162461bcd60e51b815260206004820181905260248201527f496e76616c6964206e65772073706f7420707269636520666f722063757276656044820152606401610b21565b50506001600160801b039081169216600160801b026001600160801b03191691909117600255505050565b6000611ee78383612f70565b9392505050565b6000611ee78383613063565b6060604482511015611f3f57505060408051808201909152601d81527f5472616e73616374696f6e2072657665727465642073696c656e746c79000000602082015290565b600482019150818060200190518101906106a79190613bfb565b600080600080600260009054906101000a90046001600160801b03169050600080600260109054906101000a90046001600160801b031690506000886001600160a01b0316637ca542ac85848e600360009054906101000a90046001600160601b03168d6001600160a01b0316631ce4c78b6040518163ffffffff1660e01b815260040160206040518083038186803b158015611ff557600080fd5b505afa158015612009573d6000803e3d6000fd5b505050506040513d601f19601f8201168201806040525081019061202d9190613945565b6040518663ffffffff1660e01b815260040161204d95949392919061395e565b60a06040518083038186803b15801561206557600080fd5b505afa158015612079573d6000803e3d6000fd5b505050506040513d601f19601f8201168201806040525081019061209d9190613998565b9a5098509196509350905060008560028111156120bc576120bc6131a2565b146120dc578460405163393cb16b60e21b8152600401610b219190613720565b898611156121215760405162461bcd60e51b8152602060048201526012602482015271496e20746f6f206d616e7920746f6b656e7360701b6044820152606401610b21565b826001600160801b0316846001600160801b03161415806121545750806001600160801b0316826001600160801b031614155b15612172576001600160801b03818116600160801b02908416176002555b826001600160801b0316846001600160801b0316146121c8576040516001600160801b03841681527ff06180fdbe95e5193df4dcd1352726b1f04cb58599ce58552cc952447af2ffbb9060200160405180910390a15b806001600160801b0316826001600160801b03161461221e576040516001600160801b03821681527fc958ae052d28f8d17bc2c4ddbabb699a3cab5cccefd034d0fc971efdadc01da59060200160405180910390a15b505050505094509492505050565b34156122675760405162461bcd60e51b815260206004820152600a60248201526922a9219918103830b4b960b11b6044820152606401610b21565b60131936013560601c600061227a611405565b905085156125785760405163a93ec68b60e01b81523360048201819052906000906001600160a01b0387169063a93ec68b90602401604080518083038186803b1580156122c657600080fd5b505afa1580156122da573d6000803e3d6000fd5b505050506040513d601f19601f820116820180604052508101906122fe9190613c71565b5090508061233b5760405162461bcd60e51b815260206004820152600a6024820152692737ba103937baba32b960b11b6044820152606401610b21565b506040516370a0823160e01b81526001600160a01b038381166004830152600091908516906370a082319060240160206040518083038186803b15801561238157600080fd5b505afa158015612395573d6000803e3d6000fd5b505050506040513d601f19601f820116820180604052508101906123b99190613945565b90506001600160a01b038216634b456d0c8589866123d78a8f613cab565b60036040518663ffffffff1660e01b81526004016123f9959493929190613cd0565b600060405180830381600087803b15801561241357600080fd5b505af1158015612427573d6000803e3d6000fd5b5050505084896124379190613cab565b6040516370a0823160e01b81526001600160a01b0385811660048301528391908716906370a082319060240160206040518083038186803b15801561247b57600080fd5b505afa15801561248f573d6000803e3d6000fd5b505050506040513d601f19601f820116820180604052508101906124b39190613945565b6124bd9190613cab565b1461250a5760405162461bcd60e51b815260206004820152601860248201527f4552433230206e6f74207472616e7366657272656420696e00000000000000006044820152606401610b21565b6040516312d15b4360e21b81526001600160a01b03831690634b456d0c9061253f9087908b908b908b90600390600401613cd0565b600060405180830381600087803b15801561255957600080fd5b505af115801561256d573d6000803e3d6000fd5b5050505050506125b4565b6125993382612587868b613cab565b6001600160a01b0386169291906130b2565b82156125b4576125b46001600160a01b0383163386866130b2565b50505050505050565b600060016125cb6004612679565b6125d59190613cab565b905060005b828110156109d45760006125ef600484612683565b604051632142170760e11b81529091506001600160a01b038716906342842e0e9061262290309089908690600401613a10565b600060405180830381600087803b15801561263c57600080fd5b505af1158015612650573d6000803e3d6000fd5b50505050612668816004611edb90919063ffffffff16565b5050600019909101906001016125da565b60006106a7825490565b6000611ee78383613135565b8060005b8181101561273357856001600160a01b03166342842e0e30878787868181106126be576126be6139fa565b905060200201356040518463ffffffff1660e01b81526004016126e393929190613a10565b600060405180830381600087803b1580156126fd57600080fd5b505af1158015612711573d6000803e3d6000fd5b5050505061272a848483818110610989576109896139fa565b50600101612693565b505050505050565b600060405163a9059cbb60e01b8152836004820152826024820152602060006044836000895af13d15601f3d11600160005114161716915050806127b35760405162461bcd60e51b815260206004820152600f60248201526e1514905394d1915497d19052531151608a1b6044820152606401610b21565b50505050565b600080600080600260009054906101000a90046001600160801b03169050600080600260109054906101000a90046001600160801b031690506000886001600160a01b031663097cc63d85848e600360009054906101000a90046001600160601b03168d6001600160a01b0316631ce4c78b6040518163ffffffff1660e01b815260040160206040518083038186803b15801561285557600080fd5b505afa158015612869573d6000803e3d6000fd5b505050506040513d601f19601f8201168201806040525081019061288d9190613945565b6040518663ffffffff1660e01b81526004016128ad95949392919061395e565b60a06040518083038186803b1580156128c557600080fd5b505afa1580156128d9573d6000803e3d6000fd5b505050506040513d601f19601f820116820180604052508101906128fd9190613998565b9a50985091965093509050600085600281111561291c5761291c6131a2565b1461293c578460405163393cb16b60e21b8152600401610b219190613720565b898610156121215760405162461bcd60e51b81526020600482015260156024820152744f757420746f6f206c6974746c6520746f6b656e7360581b6044820152606401610b21565b801561114e5761114e60131936013560601c838361273b565b801561114e57600036601319013560601c6040516370a0823160e01b81523060048201529091506000906001600160a01b038316906370a082319060240160206040518083038186803b1580156129f357600080fd5b505afa158015612a07573d6000803e3d6000fd5b505050506040513d601f19601f82011682018060405250810190612a2b9190613945565b905080831115612a39578092505b82156127b3576127b36001600160a01b038316858561273b565b6000612a5d611405565b9050848315612e8e5760405163a93ec68b60e01b81523360048201819052906000906001600160a01b0388169063a93ec68b90602401604080518083038186803b158015612aaa57600080fd5b505afa158015612abe573d6000803e3d6000fd5b505050506040513d601f19601f82011682018060405250810190612ae29190613c71565b50905080612b1f5760405162461bcd60e51b815260206004820152600a6024820152692737ba103937baba32b960b11b6044820152606401610b21565b6001831115612d14576040516370a0823160e01b81526001600160a01b038581166004830152600091908c16906370a082319060240160206040518083038186803b158015612b6d57600080fd5b505afa158015612b81573d6000803e3d6000fd5b505050506040513d601f19601f82011682018060405250810190612ba59190613945565b905060005b84811015612c4257836001600160a01b031663748ff3398d89898f8f87818110612bd657612bd66139fa565b90506020020135612be5600390565b6040518663ffffffff1660e01b8152600401612c05959493929190613cd0565b600060405180830381600087803b158015612c1f57600080fd5b505af1158015612c33573d6000803e3d6000fd5b50505050806001019050612baa565b506040516370a0823160e01b81526001600160a01b038681166004830152859183918e16906370a082319060240160206040518083038186803b158015612c8857600080fd5b505afa158015612c9c573d6000803e3d6000fd5b505050506040513d601f19601f82011682018060405250810190612cc09190613945565b612cca9190613cab565b14612d0e5760405162461bcd60e51b81526020600482015260146024820152731391951cc81b9bdd081d1c985b9cd9995c9c995960621b6044820152606401610b21565b50612e87565b816001600160a01b031663748ff3398b87878d8d6000818110612d3957612d396139fa565b90506020020135612d48600390565b6040518663ffffffff1660e01b8152600401612d68959493929190613cd0565b600060405180830381600087803b158015612d8257600080fd5b505af1158015612d96573d6000803e3d6000fd5b50505050836001600160a01b03168a6001600160a01b0316636352211e8b8b6000818110612dc657612dc66139fa565b905060200201356040518263ffffffff1660e01b8152600401612deb91815260200190565b60206040518083038186803b158015612e0357600080fd5b505afa158015612e17573d6000803e3d6000fd5b505050506040513d601f19601f82011682018060405250810190612e3b9190613d0e565b6001600160a01b031614612e875760405162461bcd60e51b8152602060048201526013602482015272139195081b9bdd081d1c985b9cd9995c9c9959606a1b6044820152606401610b21565b5050612f1e565b60005b818110156115d357886001600160a01b03166342842e0e33858b8b86818110612ebc57612ebc6139fa565b905060200201356040518463ffffffff1660e01b8152600401612ee193929190613a10565b600060405180830381600087803b158015612efb57600080fd5b505af1158015612f0f573d6000803e3d6000fd5b50505050806001019050612e91565b5050505050505050565b600080546001600160a01b0319166001600160a01b038316908117825560405190917f04dba622d284ed0014ee4b9a6a68386be1a4c08a4913ae272de89199cc68616391a250565b60008181526001830160205260408120548015613059576000612f94600183613cab565b8554909150600090612fa890600190613cab565b905081811461300d576000866000018281548110612fc857612fc86139fa565b9060005260206000200154905080876000018481548110612feb57612feb6139fa565b6000918252602080832090910192909255918252600188019052604090208390555b855486908061301e5761301e613d2b565b6001900381819060005260206000200160009055905585600101600086815260200190815260200160002060009055600193505050506106a7565b60009150506106a7565b60008181526001830160205260408120546130aa575081546001818101845560008481526020808220909301849055845484825282860190935260409020919091556106a7565b5060006106a7565b60006040516323b872dd60e01b81528460048201528360248201528260448201526020600060648360008a5af13d15601f3d11600160005114161716915050806109d45760405162461bcd60e51b81526020600482015260146024820152731514905394d1915497d19493d357d1905253115160621b6044820152606401610b21565b600082600001828154811061314c5761314c6139fa565b9060005260206000200154905092915050565b60006020828403121561317157600080fd5b81356001600160e01b031981168114611ee757600080fd5b60006020828403121561319b57600080fd5b5035919050565b634e487b7160e01b600052602160045260246000fd5b600381106119c8576119c86131a2565b60a081016131d5876131b8565b95815260208101949094526040840192909252606083015260809091015290565b6001600160a01b03811681146119c857600080fd5b60008083601f84011261321d57600080fd5b5081356001600160401b0381111561323457600080fd5b6020830191508360208260051b850101111561324f57600080fd5b9250929050565b60008060006040848603121561326b57600080fd5b8335613276816131f6565b925060208401356001600160401b0381111561329157600080fd5b61329d8682870161320b565b9497909650939450505050565b634e487b7160e01b600052604160045260246000fd5b604051601f8201601f191681016001600160401b03811182821017156132e8576132e86132aa565b604052919050565b60006001600160401b03821115613309576133096132aa565b50601f01601f191660200190565b600082601f83011261332857600080fd5b813561333b613336826132f0565b6132c0565b81815284602083860101111561335057600080fd5b816020850160208301376000918101602001919091529392505050565b6000806000806080858703121561338357600080fd5b843561338e816131f6565b9350602085013561339e816131f6565b92506040850135915060608501356001600160401b038111156133c057600080fd5b6133cc87828801613317565b91505092959194509250565b6000806000604084860312156133ed57600080fd5b83356133f8816131f6565b925060208401356001600160401b038082111561341457600080fd5b818601915086601f83011261342857600080fd5b81358181111561343757600080fd5b87602082850101111561344957600080fd5b6020830194508093505050509250925092565b80151581146119c857600080fd5b60008060006040848603121561347f57600080fd5b83356001600160401b0381111561349557600080fd5b6134a18682870161320b565b90945092505060208401356134b58161345c565b809150509250925092565b600080600080600060a086880312156134d857600080fd5b853594506020860135935060408601356134f1816131f6565b925060608601356135018161345c565b91506080860135613511816131f6565b809150509295509295909350565b6020808252825182820181905260009190848201906040850190845b818110156135575783518352928401929184019160010161353b565b50909695505050505050565b60048110613573576135736131a2565b9052565b602081016106a78284613563565b6001600160801b03811681146119c857600080fd5b6000602082840312156135ac57600080fd5b8135611ee781613585565b80356001600160601b03811681146135ce57600080fd5b919050565b6000602082840312156135e557600080fd5b611ee7826135b7565b60008060008060008060a0878903121561360757600080fd5b86356001600160401b0381111561361d57600080fd5b61362989828a0161320b565b909750955050602087013593506040870135613644816131f6565b925060608701356136548161345c565b91506080870135613664816131f6565b809150509295509295509295565b6000806040838503121561368557600080fd5b8235613690816131f6565b946020939093013593505050565b6000806000806000606086880312156136b657600080fd5b85356136c1816131f6565b945060208601356001600160401b03808211156136dd57600080fd5b6136e989838a0161320b565b9096509450604088013591508082111561370257600080fd5b5061370f8882890161320b565b969995985093965092949392505050565b6020810161372d836131b8565b91905290565b600082601f83011261374457600080fd5b813560206001600160401b0382111561375f5761375f6132aa565b8160051b61376e8282016132c0565b928352848101820192828101908785111561378857600080fd5b83870192505b848310156137a75782358252918301919083019061378e565b979650505050505050565b600080600080600060a086880312156137ca57600080fd5b85356137d5816131f6565b945060208601356137e5816131f6565b935060408601356001600160401b038082111561380157600080fd5b61380d89838a01613733565b9450606088013591508082111561382357600080fd5b61382f89838a01613733565b9350608088013591508082111561384557600080fd5b5061385288828901613317565b9150509295509295909350565b600080600080600060a0868803121561387757600080fd5b8535613882816131f6565b94506020860135613892816131f6565b9350604086013592506060860135915060808601356001600160401b038111156138bb57600080fd5b61385288828901613317565b6000602082840312156138d957600080fd5b8135611ee7816131f6565b600080600080600060a086880312156138fc57600080fd5b8535613907816131f6565b94506020860135613917816131f6565b9350604086013561392781613585565b9250613935606087016135b7565b9150608086013561351181613585565b60006020828403121561395757600080fd5b5051919050565b6001600160801b03958616815293909416602084015260408301919091526001600160601b03166060820152608081019190915260a00190565b600080600080600060a086880312156139b057600080fd5b8551600381106139bf57600080fd5b60208701519095506139d081613585565b60408701519094506139e181613585565b6060870151608090970151959894975095949392505050565b634e487b7160e01b600052603260045260246000fd5b6001600160a01b039384168152919092166020820152604081019190915260600190565b600060208284031215613a4657600080fd5b8151611ee78161345c565b8183823760009101908152919050565b6000808335601e19843603018112613a7857600080fd5b8301803591506001600160401b03821115613a9257600080fd5b60200191503681900382131561324f57600080fd5b60005b83811015613ac2578181015183820152602001613aaa565b838111156127b35750506000910152565b6020815260008251806020840152613af2816040850160208701613aa7565b601f01601f19169190910160400192915050565b6020808252601f908201527f5265656e7472616e637947756172643a207265656e7472616e742063616c6c00604082015260600190565b6020808252600f908201526e57726f6e6720506f6f6c207479706560881b604082015260600190565b81835260006001600160fb1b03831115613b7f57600080fd5b8260051b8083602087013760009401602001938452509192915050565b6001600160a01b0387811682528616602082015260a060408201819052600090613bc99083018688613b66565b8281036060840152613bdc818587613b66565b8381036080909401939093525050600081526020019695505050505050565b600060208284031215613c0d57600080fd5b81516001600160401b03811115613c2357600080fd5b8201601f81018413613c3457600080fd5b8051613c42613336826132f0565b818152856020838501011115613c5757600080fd5b613c68826020830160208601613aa7565b95945050505050565b60008060408385031215613c8457600080fd5b8251613c8f8161345c565b6020840151909250613ca08161345c565b809150509250929050565b600082821015613ccb57634e487b7160e01b600052601160045260246000fd5b500390565b6001600160a01b0386811682528581166020830152841660408201526060810183905260a08101613d046080830184613563565b9695505050505050565b600060208284031215613d2057600080fd5b8151611ee7816131f6565b634e487b7160e01b600052603160045260246000fdfea264697066735822122009e0efa8b6a9faa22fc780a0fd7c5485cce1f20c7e4f3446a479afa73a9d024f64736f6c63430008090033",
  "linkReferences": {},
  "deployedLinkReferences": {}
}