{
  "_format": "hh-sol-artifact-1",
  "contractName": "LSSVMPairEnumerableERC20",
  "sourceName": "contracts/LSSVMPairEnumerableERC20.sol",
  "abi": [
    {
      "inputs": [
        {
          "internalType": "enum CurveErrorCodes.Error",
          "name": "error",
          "type": "uint8"
        }
      ],
      "name": "BondingCurveError",
      "type": "error"
    },
    {
      "inputs": [],
      "name": "Ownable_NewOwnerZeroAddress",
      "type": "error"
    },
    {
      "inputs": [],
      "name": "Ownable_NotOwner",
      "type": "error"
    },
    {
      "anonymous": false,
      "inputs": [
        {
          "indexed": false,
          "internalType": "address",
          "name": "a",
          "type": "address"
        }
      ],
      "name": "AssetRecipientChange",
      "type": "event"
    },
    {
      "anonymous": false,
      "inputs": [
        {
          "indexed": false,
          "internalType": "uint128",
          "name": "newDelta",
          "type": "uint128"
        }
      ],
      "name": "DeltaUpdate",
      "type": "event"
    },
    {
      "anonymous": false,
      "inputs": [
        {
          "indexed": false,
          "internalType": "uint96",
          "name": "newFee",
          "type": "uint96"
        }
      ],
      "name": "FeeUpdate",
      "type": "event"
    },
    {
      "anonymous": false,
      "inputs": [],
      "name": "NFTWithdrawal",
      "type": "event"
    },
    {
      "anonymous": false,
      "inputs": [
        {
          "indexed": true,
          "internalType": "address",
          "name": "newOwner",
          "type": "address"
        }
      ],
      "name": "OwnershipTransferred",
      "type": "event"
    },
    {
      "anonymous": false,
      "inputs": [
        {
          "indexed": false,
          "internalType": "uint128",
          "name": "newSpotPrice",
          "type": "uint128"
        }
      ],
      "name": "SpotPriceUpdate",
      "type": "event"
    },
    {
      "anonymous": false,
      "inputs": [],
      "name": "SwapNFTInPair",
      "type": "event"
    },
    {
      "anonymous": false,
      "inputs": [],
      "name": "SwapNFTOutPair",
      "type": "event"
    },
    {
      "anonymous": false,
      "inputs": [
        {
          "indexed": false,
          "internalType": "uint256",
          "name": "amount",
          "type": "uint256"
        }
      ],
      "name": "TokenDeposit",
      "type": "event"
    },
    {
      "anonymous": false,
      "inputs": [
        {
          "indexed": false,
          "internalType": "uint256",
          "name": "amount",
          "type": "uint256"
        }
      ],
      "name": "TokenWithdrawal",
      "type": "event"
    },
    {
      "inputs": [],
      "name": "assetRecipient",
      "outputs": [
        {
          "internalType": "address payable",
          "name": "",
          "type": "address"
        }
      ],
      "stateMutability": "view",
      "type": "function"
    },
    {
      "inputs": [],
      "name": "bondingCurve",
      "outputs": [
        {
          "internalType": "contract ICurve",
          "name": "_bondingCurve",
          "type": "address"
        }
      ],
      "stateMutability": "pure",
      "type": "function"
    },
    {
      "inputs": [
        {
          "internalType": "address payable",
          "name": "target",
          "type": "address"
        },
        {
          "internalType": "bytes",
          "name": "data",
          "type": "bytes"
        }
      ],
      "name": "call",
      "outputs": [],
      "stateMutability": "nonpayable",
      "type": "function"
    },
    {
      "inputs": [
        {
          "internalType": "address payable",
          "name": "newRecipient",
          "type": "address"
        }
      ],
      "name": "changeAssetRecipient",
      "outputs": [],
      "stateMutability": "nonpayable",
      "type": "function"
    },
    {
      "inputs": [
        {
          "internalType": "uint128",
          "name": "newDelta",
          "type": "uint128"
        }
      ],
      "name": "changeDelta",
      "outputs": [],
      "stateMutability": "nonpayable",
      "type": "function"
    },
    {
      "inputs": [
        {
          "internalType": "uint96",
          "name": "newFee",
          "type": "uint96"
        }
      ],
      "name": "changeFee",
      "outputs": [],
      "stateMutability": "nonpayable",
      "type": "function"
    },
    {
      "inputs": [
        {
          "internalType": "uint128",
          "name": "newSpotPrice",
          "type": "uint128"
        }
      ],
      "name": "changeSpotPrice",
      "outputs": [],
      "stateMutability": "nonpayable",
      "type": "function"
    },
    {
      "inputs": [],
      "name": "delta",
      "outputs": [
        {
          "internalType": "uint128",
          "name": "",
          "type": "uint128"
        }
      ],
      "stateMutability": "view",
      "type": "function"
    },
    {
      "inputs": [],
      "name": "factory",
      "outputs": [
        {
          "internalType": "contract ILSSVMPairFactoryLike",
          "name": "_factory",
          "type": "address"
        }
      ],
      "stateMutability": "pure",
      "type": "function"
    },
    {
      "inputs": [],
      "name": "fee",
      "outputs": [
        {
          "internalType": "uint96",
          "name": "",
          "type": "uint96"
        }
      ],
      "stateMutability": "view",
      "type": "function"
    },
    {
      "inputs": [],
      "name": "getAllHeldIds",
      "outputs": [
        {
          "internalType": "uint256[]",
          "name": "",
          "type": "uint256[]"
        }
      ],
      "stateMutability": "view",
      "type": "function"
    },
    {
      "inputs": [],
      "name": "getAssetRecipient",
      "outputs": [
        {
          "internalType": "address payable",
          "name": "_assetRecipient",
          "type": "address"
        }
      ],
      "stateMutability": "view",
      "type": "function"
    },
    {
      "inputs": [
        {
          "internalType": "uint256",
          "name": "numNFTs",
          "type": "uint256"
        }
      ],
      "name": "getBuyNFTQuote",
      "outputs": [
        {
          "internalType": "enum CurveErrorCodes.Error",
          "name": "error",
          "type": "uint8"
        },
        {
          "internalType": "uint256",
          "name": "newSpotPrice",
          "type": "uint256"
        },
        {
          "internalType": "uint256",
          "name": "newDelta",
          "type": "uint256"
        },
        {
          "internalType": "uint256",
          "name": "inputAmount",
          "type": "uint256"
        },
        {
          "internalType": "uint256",
          "name": "protocolFee",
          "type": "uint256"
        }
      ],
      "stateMutability": "view",
      "type": "function"
    },
    {
      "inputs": [
        {
          "internalType": "uint256",
          "name": "numNFTs",
          "type": "uint256"
        }
      ],
      "name": "getSellNFTQuote",
      "outputs": [
        {
          "internalType": "enum CurveErrorCodes.Error",
          "name": "error",
          "type": "uint8"
        },
        {
          "internalType": "uint256",
          "name": "newSpotPrice",
          "type": "uint256"
        },
        {
          "internalType": "uint256",
          "name": "newDelta",
          "type": "uint256"
        },
        {
          "internalType": "uint256",
          "name": "outputAmount",
          "type": "uint256"
        },
        {
          "internalType": "uint256",
          "name": "protocolFee",
          "type": "uint256"
        }
      ],
      "stateMutability": "view",
      "type": "function"
    },
    {
      "inputs": [
        {
          "internalType": "address",
          "name": "_owner",
          "type": "address"
        },
        {
          "internalType": "address payable",
          "name": "_assetRecipient",
          "type": "address"
        },
        {
          "internalType": "uint128",
          "name": "_delta",
          "type": "uint128"
        },
        {
          "internalType": "uint96",
          "name": "_fee",
          "type": "uint96"
        },
        {
          "internalType": "uint128",
          "name": "_spotPrice",
          "type": "uint128"
        }
      ],
      "name": "initialize",
      "outputs": [],
      "stateMutability": "payable",
      "type": "function"
    },
    {
      "inputs": [
        {
          "internalType": "bytes[]",
          "name": "calls",
          "type": "bytes[]"
        },
        {
          "internalType": "bool",
          "name": "revertOnFail",
          "type": "bool"
        }
      ],
      "name": "multicall",
      "outputs": [],
      "stateMutability": "nonpayable",
      "type": "function"
    },
    {
      "inputs": [],
      "name": "nft",
      "outputs": [
        {
          "internalType": "contract IERC721",
          "name": "_nft",
          "type": "address"
        }
      ],
      "stateMutability": "pure",
      "type": "function"
    },
    {
      "inputs": [
        {
          "internalType": "address",
          "name": "",
          "type": "address"
        },
        {
          "internalType": "address",
          "name": "",
          "type": "address"
        },
        {
          "internalType": "uint256[]",
          "name": "",
          "type": "uint256[]"
        },
        {
          "internalType": "uint256[]",
          "name": "",
          "type": "uint256[]"
        },
        {
          "internalType": "bytes",
          "name": "",
          "type": "bytes"
        }
      ],
      "name": "onERC1155BatchReceived",
      "outputs": [
        {
          "internalType": "bytes4",
          "name": "",
          "type": "bytes4"
        }
      ],
      "stateMutability": "nonpayable",
      "type": "function"
    },
    {
      "inputs": [
        {
          "internalType": "address",
          "name": "",
          "type": "address"
        },
        {
          "internalType": "address",
          "name": "",
          "type": "address"
        },
        {
          "internalType": "uint256",
          "name": "",
          "type": "uint256"
        },
        {
          "internalType": "uint256",
          "name": "",
          "type": "uint256"
        },
        {
          "internalType": "bytes",
          "name": "",
          "type": "bytes"
        }
      ],
      "name": "onERC1155Received",
      "outputs": [
        {
          "internalType": "bytes4",
          "name": "",
          "type": "bytes4"
        }
      ],
      "stateMutability": "nonpayable",
      "type": "function"
    },
    {
      "inputs": [
        {
          "internalType": "address",
          "name": "",
          "type": "address"
        },
        {
          "internalType": "address",
          "name": "",
          "type": "address"
        },
        {
          "internalType": "uint256",
          "name": "",
          "type": "uint256"
        },
        {
          "internalType": "bytes",
          "name": "",
          "type": "bytes"
        }
      ],
      "name": "onERC721Received",
      "outputs": [
        {
          "internalType": "bytes4",
          "name": "",
          "type": "bytes4"
        }
      ],
      "stateMutability": "nonpayable",
      "type": "function"
    },
    {
      "inputs": [],
      "name": "owner",
      "outputs": [
        {
          "internalType": "address",
          "name": "",
          "type": "address"
        }
      ],
      "stateMutability": "view",
      "type": "function"
    },
    {
      "inputs": [],
      "name": "pairVariant",
      "outputs": [
        {
          "internalType": "enum ILSSVMPairFactoryLike.PairVariant",
          "name": "",
          "type": "uint8"
        }
      ],
      "stateMutability": "pure",
      "type": "function"
    },
    {
      "inputs": [],
      "name": "poolType",
      "outputs": [
        {
          "internalType": "enum LSSVMPair.PoolType",
          "name": "_poolType",
          "type": "uint8"
        }
      ],
      "stateMutability": "pure",
      "type": "function"
    },
    {
      "inputs": [],
      "name": "spotPrice",
      "outputs": [
        {
          "internalType": "uint128",
          "name": "",
          "type": "uint128"
        }
      ],
      "stateMutability": "view",
      "type": "function"
    },
    {
      "inputs": [
        {
          "internalType": "bytes4",
          "name": "interfaceId",
          "type": "bytes4"
        }
      ],
      "name": "supportsInterface",
      "outputs": [
        {
          "internalType": "bool",
          "name": "",
          "type": "bool"
        }
      ],
      "stateMutability": "view",
      "type": "function"
    },
    {
      "inputs": [
        {
          "internalType": "uint256[]",
          "name": "nftIds",
          "type": "uint256[]"
        },
        {
          "internalType": "uint256",
          "name": "minExpectedTokenOutput",
          "type": "uint256"
        },
        {
          "internalType": "address payable",
          "name": "tokenRecipient",
          "type": "address"
        },
        {
          "internalType": "bool",
          "name": "isRouter",
          "type": "bool"
        },
        {
          "internalType": "address",
          "name": "routerCaller",
          "type": "address"
        }
      ],
      "name": "swapNFTsForToken",
      "outputs": [
        {
          "internalType": "uint256",
          "name": "outputAmount",
          "type": "uint256"
        }
      ],
      "stateMutability": "nonpayable",
      "type": "function"
    },
    {
      "inputs": [
        {
          "internalType": "uint256",
          "name": "numNFTs",
          "type": "uint256"
        },
        {
          "internalType": "uint256",
          "name": "maxExpectedTokenInput",
          "type": "uint256"
        },
        {
          "internalType": "address",
          "name": "nftRecipient",
          "type": "address"
        },
        {
          "internalType": "bool",
          "name": "isRouter",
          "type": "bool"
        },
        {
          "internalType": "address",
          "name": "routerCaller",
          "type": "address"
        }
      ],
      "name": "swapTokenForAnyNFTs",
      "outputs": [
        {
          "internalType": "uint256",
          "name": "inputAmount",
          "type": "uint256"
        }
      ],
      "stateMutability": "payable",
      "type": "function"
    },
    {
      "inputs": [
        {
          "internalType": "uint256[]",
          "name": "nftIds",
          "type": "uint256[]"
        },
        {
          "internalType": "uint256",
          "name": "maxExpectedTokenInput",
          "type": "uint256"
        },
        {
          "internalType": "address",
          "name": "nftRecipient",
          "type": "address"
        },
        {
          "internalType": "bool",
          "name": "isRouter",
          "type": "bool"
        },
        {
          "internalType": "address",
          "name": "routerCaller",
          "type": "address"
        }
      ],
      "name": "swapTokenForSpecificNFTs",
      "outputs": [
        {
          "internalType": "uint256",
          "name": "inputAmount",
          "type": "uint256"
        }
      ],
      "stateMutability": "payable",
      "type": "function"
    },
    {
      "inputs": [],
      "name": "token",
      "outputs": [
        {
          "internalType": "contract ERC20",
          "name": "_token",
          "type": "address"
        }
      ],
      "stateMutability": "pure",
      "type": "function"
    },
    {
      "inputs": [
        {
          "internalType": "address",
          "name": "newOwner",
          "type": "address"
        }
      ],
      "name": "transferOwnership",
      "outputs": [],
      "stateMutability": "nonpayable",
      "type": "function"
    },
    {
      "inputs": [
        {
          "internalType": "contract IERC1155",
          "name": "a",
          "type": "address"
        },
        {
          "internalType": "uint256[]",
          "name": "ids",
          "type": "uint256[]"
        },
        {
          "internalType": "uint256[]",
          "name": "amounts",
          "type": "uint256[]"
        }
      ],
      "name": "withdrawERC1155",
      "outputs": [],
      "stateMutability": "nonpayable",
      "type": "function"
    },
    {
      "inputs": [
        {
          "internalType": "contract ERC20",
          "name": "a",
          "type": "address"
        },
        {
          "internalType": "uint256",
          "name": "amount",
          "type": "uint256"
        }
      ],
      "name": "withdrawERC20",
      "outputs": [],
      "stateMutability": "nonpayable",
      "type": "function"
    },
    {
      "inputs": [
        {
          "internalType": "contract IERC721",
          "name": "a",
          "type": "address"
        },
        {
          "internalType": "uint256[]",
          "name": "nftIds",
          "type": "uint256[]"
        }
      ],
      "name": "withdrawERC721",
      "outputs": [],
      "stateMutability": "nonpayable",
      "type": "function"
    }
  ],
  "bytecode": "0x608060405234801561001057600080fd5b50613c5e806100206000396000f3fe6080604052600436106101ee5760003560e01c806379eac6c21161010d578063c45a0155116100a0578063f23a6e611161006f578063f23a6e61146105ed578063f2fde38b14610619578063f462954914610639578063fc0c546a14610659578063fd17aef91461067457600080fd5b8063c45a01551461056b578063d8a1890c14610580578063ddca3f43146105a0578063eff1d50e146105d857600080fd5b8063a5ceac99116100dc578063a5ceac99146104dd578063b1d3f1c1146104fd578063b1dd61b61461051d578063bc197c811461053f57600080fd5b806379eac6c21461046a5780638da5cb5b1461047f578063a1db97821461049d578063a5cb2b91146104bd57600080fd5b80632f4fefaf1161018557806347ccca021161015457806347ccca02146103fc5780636809f664146104175780636b7a2200146104375780636d8b99f71461045757600080fd5b80632f4fefaf1461035f5780633053fc5814610381578063398482d81461039d5780633bfa67fe146103bd57600080fd5b8063150b7a02116101c1578063150b7a02146102ba5780631b8b921d146102fe5780631e9701d41461031e57806328b8aee11461033e57600080fd5b806301ffc9a7146101f35780630c295e561461022857806312b495a81461025957806313edab8114610298575b600080fd5b3480156101ff57600080fd5b5061021361020e366004613055565b610687565b60405190151581526020015b60405180910390f35b34801561023457600080fd5b50610248610243366004613086565b6106be565b60405161021f9594939291906130c5565b34801561026557600080fd5b5060025461028090600160801b90046001600160801b031681565b6040516001600160801b03909116815260200161021f565b3480156102a457600080fd5b506102b86102b3366004613153565b610810565b005b3480156102c657600080fd5b506102e56102d536600461326a565b630a85bd0160e11b949350505050565b6040516001600160e01b0319909116815260200161021f565b34801561030a57600080fd5b506102b86103193660046132d5565b61090b565b34801561032a57600080fd5b506102b8610339366004613367565b610ac3565b61035161034c3660046133bd565b610c3f565b60405190815260200161021f565b34801561036b57600080fd5b50610374610e25565b60405161021f919061341c565b34801561038d57600080fd5b50600260405161021f9190613474565b3480156103a957600080fd5b50600254610280906001600160801b031681565b3480156103c957600080fd5b506003546103e490600160601b90046001600160a01b031681565b6040516001600160a01b03909116815260200161021f565b34801561040857600080fd5b5036602819013560601c6103e4565b34801561042357600080fd5b506102b8610432366004613497565b610fac565b34801561044357600080fd5b506102b86104523660046134d0565b61112c565b6103516104653660046134eb565b611292565b34801561047657600080fd5b506103e46113e0565b34801561048b57600080fd5b506000546001600160a01b03166103e4565b3480156104a957600080fd5b506102b86104b836600461356f565b611427565b3480156104c957600080fd5b506102486104d8366004613086565b6114be565b3480156104e957600080fd5b506102b86104f836600461359b565b611510565b34801561050957600080fd5b506103516105183660046134eb565b6115b9565b34801561052957600080fd5b50610532611710565b60405161021f919061361d565b34801561054b57600080fd5b506102e561055a3660046136af565b63bc197c8160e01b95945050505050565b34801561057757600080fd5b506103e461171c565b34801561058c57600080fd5b506102b861059b366004613497565b611728565b3480156105ac57600080fd5b506003546105c0906001600160601b031681565b6040516001600160601b03909116815260200161021f565b3480156105e457600080fd5b506103e461189e565b3480156105f957600080fd5b506102e561060836600461375c565b63f23a6e6160e01b95945050505050565b34801561062557600080fd5b506102b86106343660046137c4565b6118aa565b34801561064557600080fd5b506102b86106543660046137c4565b6119a7565b34801561066557600080fd5b5036601319013560601c6103e4565b6102b86106823660046137e1565b611ab7565b60006001600160e01b03198216630271189760e51b14806106b857506301ffc9a760e01b6001600160e01b03198316145b92915050565b60008060008060006106ce61189e565b6002546003546001600160a01b03929092169163097cc63d916001600160801b0380821692600160801b90920416908a906001600160601b031661071061171c565b6001600160a01b0316631ce4c78b6040518163ffffffff1660e01b815260040160206040518083038186803b15801561074857600080fd5b505afa15801561075c573d6000803e3d6000fd5b505050506040513d601f19601f820116820180604052508101906107809190613842565b6040518663ffffffff1660e01b81526004016107a095949392919061385b565b60a06040518083038186803b1580156107b857600080fd5b505afa1580156107cc573d6000803e3d6000fd5b505050506040513d601f19601f820116820180604052508101906107f09190613895565b939a6001600160801b039384169a50919092169750909550909350915050565b336108236000546001600160a01b031690565b6001600160a01b03161461084a57604051635eee3ad160e01b815260040160405180910390fd5b8060005b818110156108db57846001600160a01b03166342842e0e3033878786818110610879576108796138f7565b905060200201356040518463ffffffff1660e01b815260040161089e9392919061390d565b600060405180830381600087803b1580156108b857600080fd5b505af11580156108cc573d6000803e3d6000fd5b5050505080600101905061084e565b506040517f242b9b8fb5c0e6298454fcf80a0fbcbb7308620133d92b50091a1f64cee790e890600090a150505050565b3361091e6000546001600160a01b031690565b6001600160a01b03161461094557604051635eee3ad160e01b815260040160405180910390fd5b600061094f61171c565b6040516303f752bd60e31b81526001600160a01b03868116600483015291925090821690631fba95e89060240160206040518083038186803b15801561099457600080fd5b505afa1580156109a8573d6000803e3d6000fd5b505050506040513d601f19601f820116820180604052508101906109cc9190613931565b610a1d5760405162461bcd60e51b815260206004820152601a60248201527f546172676574206d7573742062652077686974656c697374656400000000000060448201526064015b60405180910390fd5b6000846001600160a01b031660008585604051610a3b92919061394e565b60006040518083038185875af1925050503d8060008114610a78576040519150601f19603f3d011682016040523d82523d6000602084013e610a7d565b606091505b5050905080610abc5760405162461bcd60e51b815260206004820152600b60248201526a10d85b1b0819985a5b195960aa1b6044820152606401610a14565b5050505050565b33610ad66000546001600160a01b031690565b6001600160a01b031614610afd57604051635eee3ad160e01b815260040160405180910390fd5b60005b82811015610bbf5760008030868685818110610b1e57610b1e6138f7565b9050602002810190610b30919061395e565b604051610b3e92919061394e565b600060405180830381855af49150503d8060008114610b79576040519150601f19603f3d011682016040523d82523d6000602084013e610b7e565b606091505b509150915081158015610b8e5750835b15610bb557610b9c81611eb7565b60405162461bcd60e51b8152600401610a1491906139d0565b5050600101610b00565b5033610bd36000546001600160a01b031690565b6001600160a01b031614610c3a5760405162461bcd60e51b815260206004820152602860248201527f4f776e6572736869702063616e6e6f74206265206368616e67656420696e206d6044820152671d5b1d1a58d85b1b60c21b6064820152608401610a14565b505050565b600060026001541415610c645760405162461bcd60e51b8152600401610a1490613a03565b60026001556000610c7361171c565b90506000610c7f61189e565b905060281936013560601c6000610c94611710565b90506001816002811115610caa57610caa61309f565b1480610cc757506002816002811115610cc557610cc561309f565b145b610ce35760405162461bcd60e51b8152600401610a1490613a3a565b60008a118015610d6957506040516370a0823160e01b81523060048201526001600160a01b038316906370a082319060240160206040518083038186803b158015610d2d57600080fd5b505afa158015610d41573d6000803e3d6000fd5b505050506040513d601f19601f82011682018060405250810190610d659190613842565b8a11155b610dbf5760405162461bcd60e51b815260206004820152602160248201527f41736b20666f72203e203020616e64203c3d2062616c616e63654f66204e46546044820152607360f81b6064820152608401610a14565b506000610dce8a8a8587611f16565b95509050610ddf85888887856121e9565b610dea82898c61257a565b6040517fbc479dfc6cb9c1a9d880f987ee4b30fa43dd7f06aec121db685b67d587c93c9390600090a150506001805550909695505050505050565b60606000366028190135821c6040516370a0823160e01b81523060048201529091506000906001600160a01b038316906370a082319060240160206040518083038186803b158015610e7657600080fd5b505afa158015610e8a573d6000803e3d6000fd5b505050506040513d601f19601f82011682018060405250810190610eae9190613842565b90506000816001600160401b03811115610eca57610eca6131a7565b604051908082528060200260200182016040528015610ef3578160200160208202803683370190505b50905060005b82811015610fa457604051632f745c5960e01b8152306004820152602481018290526001600160a01b03851690632f745c599060440160206040518083038186803b158015610f4757600080fd5b505afa158015610f5b573d6000803e3d6000fd5b505050506040513d601f19601f82011682018060405250810190610f7f9190613842565b828281518110610f9157610f916138f7565b6020908102919091010152600101610ef9565b509392505050565b33610fbf6000546001600160a01b031690565b6001600160a01b031614610fe657604051635eee3ad160e01b815260040160405180910390fd5b6000610ff061189e565b6040516302b99f3360e21b81526001600160801b03841660048201529091506001600160a01b03821690630ae67ccc9060240160206040518083038186803b15801561103b57600080fd5b505afa15801561104f573d6000803e3d6000fd5b505050506040513d601f19601f820116820180604052508101906110739190613931565b6110b95760405162461bcd60e51b8152602060048201526017602482015276496e76616c69642064656c746120666f7220637572766560481b6044820152606401610a14565b6002546001600160801b03838116600160801b909204161461112857600280546001600160801b03908116600160801b918516918202179091556040519081527fc958ae052d28f8d17bc2c4ddbabb699a3cab5cccefd034d0fc971efdadc01da5906020015b60405180910390a15b5050565b3361113f6000546001600160a01b031690565b6001600160a01b03161461116657604051635eee3ad160e01b815260040160405180910390fd5b6000611170611710565b905060028160028111156111865761118661309f565b146111ca5760405162461bcd60e51b81526020600482015260146024820152734f6e6c7920666f7220547261646520706f6f6c7360601b6044820152606401610a14565b670c7d713b49da0000826001600160601b03161061122a5760405162461bcd60e51b815260206004820152601f60248201527f547261646520666565206d757374206265206c657373207468616e20393025006044820152606401610a14565b6003546001600160601b0383811691161461112857600380546bffffffffffffffffffffffff19166001600160601b0384169081179091556040519081527f66c55c30868c51e7ad52e3d85d1403576a9967614e67c48e25b55a10baa650c09060200161111f565b6000600260015414156112b75760405162461bcd60e51b8152600401610a1490613a03565b600260015560006112c661171c565b905060006112d261189e565b905060006112de611710565b905060018160028111156112f4576112f461309f565b14806113115750600281600281111561130f5761130f61309f565b145b61132d5760405162461bcd60e51b8152600401610a1490613a3a565b886113725760405162461bcd60e51b81526020600482015260156024820152744d7573742061736b20666f72203e2030204e46547360581b6044820152606401610a14565b50600061138189898486611f16565b9450905061139284878786856121e9565b6113a636602819013560601c888c8c612704565b6040517fbc479dfc6cb9c1a9d880f987ee4b30fa43dd7f06aec121db685b67d587c93c9390600090a1505060018055509695505050505050565b600060026113ec611710565b60028111156113fd576113fd61309f565b141561140857503090565b50600354600160601b90046001600160a01b0316806114245750305b90565b3361143a6000546001600160a01b031690565b6001600160a01b03161461146157604051635eee3ad160e01b815260040160405180910390fd5b6114756001600160a01b038316338361279d565b6001600160a01b03821660131936013560601c1415611128576040518181527f0e266e8f38544aa1480d73762386eb10df55b1b8453d935762e891c44b69a1e69060200161111f565b60008060008060006114ce61189e565b6002546003546001600160a01b039290921691637ca542ac916001600160801b0380821692600160801b90920416908a906001600160601b031661071061171c565b336115236000546001600160a01b031690565b6001600160a01b03161461154a57604051635eee3ad160e01b815260040160405180910390fd5b604051631759616b60e11b81526001600160a01b03861690632eb2c2d69061158090309033908990899089908990600401613a99565b600060405180830381600087803b15801561159a57600080fd5b505af11580156115ae573d6000803e3d6000fd5b505050505050505050565b6000600260015414156115de5760405162461bcd60e51b8152600401610a1490613a03565b600260015560006115ed61171c565b905060006115f961189e565b90506000611605611710565b9050600081600281111561161b5761161b61309f565b1480611638575060028160028111156116365761163661309f565b145b6116545760405162461bcd60e51b8152600401610a1490613a3a565b886116995760405162461bcd60e51b81526020600482015260156024820152744d7573742061736b20666f72203e2030204e46547360581b6044820152606401610a14565b5060006116a88989848661281b565b945090506116b687856129e6565b6116c083826129ff565b6116d636602819013560601c8b8b868a8a612ab5565b6040517f3614eb567740a0ee3897c0e2b11ad6a5720d2e4438f9c8accf6c95c24af3a47090600090a1505060018055509695505050505050565b60141936013560f81c90565b60501936013560601c90565b3361173b6000546001600160a01b031690565b6001600160a01b03161461176257604051635eee3ad160e01b815260040160405180910390fd5b600061176c61189e565b604051631437765d60e31b81526001600160801b03841660048201529091506001600160a01b0382169063a1bbb2e89060240160206040518083038186803b1580156117b757600080fd5b505afa1580156117cb573d6000803e3d6000fd5b505050506040513d601f19601f820116820180604052508101906117ef9190613931565b61183b5760405162461bcd60e51b815260206004820181905260248201527f496e76616c6964206e65772073706f7420707269636520666f722063757276656044820152606401610a14565b6002546001600160801b0383811691161461112857600280546001600160801b0319166001600160801b0384169081179091556040519081527ff06180fdbe95e5193df4dcd1352726b1f04cb58599ce58552cc952447af2ffbb9060200161111f565b603c1936013560601c90565b336118bd6000546001600160a01b031690565b6001600160a01b0316146118e457604051635eee3ad160e01b815260040160405180910390fd5b6001600160a01b03811661190b57604051633b7c6c7f60e21b815260040160405180910390fd5b61191481612f8a565b6001600160a01b0381163b156119a4576040516314e8368d60e31b81523360048201526001600160a01b0382169063a741b46890602401600060405180830381600087803b15801561196557600080fd5b505af1925050508015611976575060015b6119a4573d808015610c3a576040519150601f19603f3d011682016040523d82523d6000602084013e505050565b50565b336119ba6000546001600160a01b031690565b6001600160a01b0316146119e157604051635eee3ad160e01b815260040160405180910390fd5b60006119eb611710565b90506002816002811115611a0157611a0161309f565b1415611a455760405162461bcd60e51b81526020600482015260136024820152724e6f7420666f7220547261646520706f6f6c7360681b6044820152606401610a14565b6003546001600160a01b03838116600160601b909204161461112857600380546001600160601b0316600160601b6001600160a01b038516908102919091179091556040519081527f678f61dcdee86474eddea0407caf8f1f5130382a90dedabaef94906ed86a27b49060200161111f565b6000546001600160a01b031615611afe5760405162461bcd60e51b815260206004820152600b60248201526a125b9a5d1a585b1a5e995960aa1b6044820152606401610a14565b600080546001600160a01b0319166001600160a01b038716179055611b2260018055565b6000611b2c61189e565b90506000611b38611710565b90506000816002811115611b4e57611b4e61309f565b1480611b6b57506001816002811115611b6957611b6961309f565b145b15611bfa576001600160601b03841615611bd55760405162461bcd60e51b815260206004820152602560248201527f4f6e6c7920547261646520506f6f6c732063616e2068617665206e6f6e7a65726044820152646f2066656560d81b6064820152608401610a14565b600380546001600160601b0316600160601b6001600160a01b03891602179055611cfa565b6002816002811115611c0e57611c0e61309f565b1415611cfa57670c7d713b49da0000846001600160601b031610611c745760405162461bcd60e51b815260206004820152601f60248201527f547261646520666565206d757374206265206c657373207468616e20393025006044820152606401610a14565b6001600160a01b03861615611cd95760405162461bcd60e51b815260206004820152602560248201527f547261646520706f6f6c732063616e27742073657420617373657420726563696044820152641c1a595b9d60da1b6064820152608401610a14565b600380546bffffffffffffffffffffffff19166001600160601b0386161790555b6040516302b99f3360e21b81526001600160801b03861660048201526001600160a01b03831690630ae67ccc9060240160206040518083038186803b158015611d4257600080fd5b505afa158015611d56573d6000803e3d6000fd5b505050506040513d601f19601f82011682018060405250810190611d7a9190613931565b611dc05760405162461bcd60e51b8152602060048201526017602482015276496e76616c69642064656c746120666f7220637572766560481b6044820152606401610a14565b604051631437765d60e31b81526001600160801b03841660048201526001600160a01b0383169063a1bbb2e89060240160206040518083038186803b158015611e0857600080fd5b505afa158015611e1c573d6000803e3d6000fd5b505050506040513d601f19601f82011682018060405250810190611e409190613931565b611e8c5760405162461bcd60e51b815260206004820181905260248201527f496e76616c6964206e65772073706f7420707269636520666f722063757276656044820152606401610a14565b50506001600160801b039081169216600160801b026001600160801b03191691909117600255505050565b6060604482511015611efc57505060408051808201909152601d81527f5472616e73616374696f6e2072657665727465642073696c656e746c79000000602082015290565b600482019150818060200190518101906106b89190613af8565b600080600080600260009054906101000a90046001600160801b03169050600080600260109054906101000a90046001600160801b031690506000886001600160a01b0316637ca542ac85848e600360009054906101000a90046001600160601b03168d6001600160a01b0316631ce4c78b6040518163ffffffff1660e01b815260040160206040518083038186803b158015611fb257600080fd5b505afa158015611fc6573d6000803e3d6000fd5b505050506040513d601f19601f82011682018060405250810190611fea9190613842565b6040518663ffffffff1660e01b815260040161200a95949392919061385b565b60a06040518083038186803b15801561202257600080fd5b505afa158015612036573d6000803e3d6000fd5b505050506040513d601f19601f8201168201806040525081019061205a9190613895565b9a5098509196509350905060008560028111156120795761207961309f565b14612099578460405163393cb16b60e21b8152600401610a14919061361d565b898611156120de5760405162461bcd60e51b8152602060048201526012602482015271496e20746f6f206d616e7920746f6b656e7360701b6044820152606401610a14565b826001600160801b0316846001600160801b03161415806121115750806001600160801b0316826001600160801b031614155b1561212f576001600160801b03818116600160801b02908416176002555b826001600160801b0316846001600160801b031614612185576040516001600160801b03841681527ff06180fdbe95e5193df4dcd1352726b1f04cb58599ce58552cc952447af2ffbb9060200160405180910390a15b806001600160801b0316826001600160801b0316146121db576040516001600160801b03821681527fc958ae052d28f8d17bc2c4ddbabb699a3cab5cccefd034d0fc971efdadc01da59060200160405180910390a15b505050505094509492505050565b34156122245760405162461bcd60e51b815260206004820152600a60248201526922a9219918103830b4b960b11b6044820152606401610a14565b60131936013560601c60006122376113e0565b905085156125355760405163a93ec68b60e01b81523360048201819052906000906001600160a01b0387169063a93ec68b90602401604080518083038186803b15801561228357600080fd5b505afa158015612297573d6000803e3d6000fd5b505050506040513d601f19601f820116820180604052508101906122bb9190613b6e565b509050806122f85760405162461bcd60e51b815260206004820152600a6024820152692737ba103937baba32b960b11b6044820152606401610a14565b506040516370a0823160e01b81526001600160a01b038381166004830152600091908516906370a082319060240160206040518083038186803b15801561233e57600080fd5b505afa158015612352573d6000803e3d6000fd5b505050506040513d601f19601f820116820180604052508101906123769190613842565b90506001600160a01b038216634b456d0c8589866123948a8f613ba8565b60026040518663ffffffff1660e01b81526004016123b6959493929190613bcd565b600060405180830381600087803b1580156123d057600080fd5b505af11580156123e4573d6000803e3d6000fd5b5050505084896123f49190613ba8565b6040516370a0823160e01b81526001600160a01b0385811660048301528391908716906370a082319060240160206040518083038186803b15801561243857600080fd5b505afa15801561244c573d6000803e3d6000fd5b505050506040513d601f19601f820116820180604052508101906124709190613842565b61247a9190613ba8565b146124c75760405162461bcd60e51b815260206004820152601860248201527f4552433230206e6f74207472616e7366657272656420696e00000000000000006044820152606401610a14565b6040516312d15b4360e21b81526001600160a01b03831690634b456d0c906124fc9087908b908b908b90600290600401613bcd565b600060405180830381600087803b15801561251657600080fd5b505af115801561252a573d6000803e3d6000fd5b505050505050612571565b6125563382612544868b613ba8565b6001600160a01b038616929190612fd2565b8215612571576125716001600160a01b038316338686612fd2565b50505050505050565b6040516370a0823160e01b81523060048201526000906001906001600160a01b038616906370a082319060240160206040518083038186803b1580156125bf57600080fd5b505afa1580156125d3573d6000803e3d6000fd5b505050506040513d601f19601f820116820180604052508101906125f79190613842565b6126019190613ba8565b905060005b82811015610abc57604051632f745c5960e01b8152306004820152602481018390526000906001600160a01b03871690632f745c599060440160206040518083038186803b15801561265757600080fd5b505afa15801561266b573d6000803e3d6000fd5b505050506040513d601f19601f8201168201806040525081019061268f9190613842565b604051632142170760e11b81529091506001600160a01b038716906342842e0e906126c29030908990869060040161390d565b600060405180830381600087803b1580156126dc57600080fd5b505af11580156126f0573d6000803e3d6000fd5b505060001990940193505050600101612606565b8060005b8181101561279557856001600160a01b03166342842e0e3087878786818110612733576127336138f7565b905060200201356040518463ffffffff1660e01b81526004016127589392919061390d565b600060405180830381600087803b15801561277257600080fd5b505af1158015612786573d6000803e3d6000fd5b50505050806001019050612708565b505050505050565b600060405163a9059cbb60e01b8152836004820152826024820152602060006044836000895af13d15601f3d11600160005114161716915050806128155760405162461bcd60e51b815260206004820152600f60248201526e1514905394d1915497d19052531151608a1b6044820152606401610a14565b50505050565b600080600080600260009054906101000a90046001600160801b03169050600080600260109054906101000a90046001600160801b031690506000886001600160a01b031663097cc63d85848e600360009054906101000a90046001600160601b03168d6001600160a01b0316631ce4c78b6040518163ffffffff1660e01b815260040160206040518083038186803b1580156128b757600080fd5b505afa1580156128cb573d6000803e3d6000fd5b505050506040513d601f19601f820116820180604052508101906128ef9190613842565b6040518663ffffffff1660e01b815260040161290f95949392919061385b565b60a06040518083038186803b15801561292757600080fd5b505afa15801561293b573d6000803e3d6000fd5b505050506040513d601f19601f8201168201806040525081019061295f9190613895565b9a50985091965093509050600085600281111561297e5761297e61309f565b1461299e578460405163393cb16b60e21b8152600401610a14919061361d565b898610156120de5760405162461bcd60e51b81526020600482015260156024820152744f757420746f6f206c6974746c6520746f6b656e7360581b6044820152606401610a14565b80156111285761112860131936013560601c838361279d565b801561112857600036601319013560601c6040516370a0823160e01b81523060048201529091506000906001600160a01b038316906370a082319060240160206040518083038186803b158015612a5557600080fd5b505afa158015612a69573d6000803e3d6000fd5b505050506040513d601f19601f82011682018060405250810190612a8d9190613842565b905080831115612a9b578092505b8215612815576128156001600160a01b038316858561279d565b6000612abf6113e0565b9050848315612ef05760405163a93ec68b60e01b81523360048201819052906000906001600160a01b0388169063a93ec68b90602401604080518083038186803b158015612b0c57600080fd5b505afa158015612b20573d6000803e3d6000fd5b505050506040513d601f19601f82011682018060405250810190612b449190613b6e565b50905080612b815760405162461bcd60e51b815260206004820152600a6024820152692737ba103937baba32b960b11b6044820152606401610a14565b6001831115612d76576040516370a0823160e01b81526001600160a01b038581166004830152600091908c16906370a082319060240160206040518083038186803b158015612bcf57600080fd5b505afa158015612be3573d6000803e3d6000fd5b505050506040513d601f19601f82011682018060405250810190612c079190613842565b905060005b84811015612ca457836001600160a01b031663748ff3398d89898f8f87818110612c3857612c386138f7565b90506020020135612c47600290565b6040518663ffffffff1660e01b8152600401612c67959493929190613bcd565b600060405180830381600087803b158015612c8157600080fd5b505af1158015612c95573d6000803e3d6000fd5b50505050806001019050612c0c565b506040516370a0823160e01b81526001600160a01b038681166004830152859183918e16906370a082319060240160206040518083038186803b158015612cea57600080fd5b505afa158015612cfe573d6000803e3d6000fd5b505050506040513d601f19601f82011682018060405250810190612d229190613842565b612d2c9190613ba8565b14612d705760405162461bcd60e51b81526020600482015260146024820152731391951cc81b9bdd081d1c985b9cd9995c9c995960621b6044820152606401610a14565b50612ee9565b816001600160a01b031663748ff3398b87878d8d6000818110612d9b57612d9b6138f7565b90506020020135612daa600290565b6040518663ffffffff1660e01b8152600401612dca959493929190613bcd565b600060405180830381600087803b158015612de457600080fd5b505af1158015612df8573d6000803e3d6000fd5b50505050836001600160a01b03168a6001600160a01b0316636352211e8b8b6000818110612e2857612e286138f7565b905060200201356040518263ffffffff1660e01b8152600401612e4d91815260200190565b60206040518083038186803b158015612e6557600080fd5b505afa158015612e79573d6000803e3d6000fd5b505050506040513d601f19601f82011682018060405250810190612e9d9190613c0b565b6001600160a01b031614612ee95760405162461bcd60e51b8152602060048201526013602482015272139195081b9bdd081d1c985b9cd9995c9c9959606a1b6044820152606401610a14565b5050612f80565b60005b818110156115ae57886001600160a01b03166342842e0e33858b8b86818110612f1e57612f1e6138f7565b905060200201356040518463ffffffff1660e01b8152600401612f439392919061390d565b600060405180830381600087803b158015612f5d57600080fd5b505af1158015612f71573d6000803e3d6000fd5b50505050806001019050612ef3565b5050505050505050565b600080546001600160a01b0319166001600160a01b038316908117825560405190917f04dba622d284ed0014ee4b9a6a68386be1a4c08a4913ae272de89199cc68616391a250565b60006040516323b872dd60e01b81528460048201528360248201528260448201526020600060648360008a5af13d15601f3d1160016000511416171691505080610abc5760405162461bcd60e51b81526020600482015260146024820152731514905394d1915497d19493d357d1905253115160621b6044820152606401610a14565b60006020828403121561306757600080fd5b81356001600160e01b03198116811461307f57600080fd5b9392505050565b60006020828403121561309857600080fd5b5035919050565b634e487b7160e01b600052602160045260246000fd5b600381106119a4576119a461309f565b60a081016130d2876130b5565b95815260208101949094526040840192909252606083015260809091015290565b6001600160a01b03811681146119a457600080fd5b60008083601f84011261311a57600080fd5b5081356001600160401b0381111561313157600080fd5b6020830191508360208260051b850101111561314c57600080fd5b9250929050565b60008060006040848603121561316857600080fd5b8335613173816130f3565b925060208401356001600160401b0381111561318e57600080fd5b61319a86828701613108565b9497909650939450505050565b634e487b7160e01b600052604160045260246000fd5b604051601f8201601f191681016001600160401b03811182821017156131e5576131e56131a7565b604052919050565b60006001600160401b03821115613206576132066131a7565b50601f01601f191660200190565b600082601f83011261322557600080fd5b8135613238613233826131ed565b6131bd565b81815284602083860101111561324d57600080fd5b816020850160208301376000918101602001919091529392505050565b6000806000806080858703121561328057600080fd5b843561328b816130f3565b9350602085013561329b816130f3565b92506040850135915060608501356001600160401b038111156132bd57600080fd5b6132c987828801613214565b91505092959194509250565b6000806000604084860312156132ea57600080fd5b83356132f5816130f3565b925060208401356001600160401b038082111561331157600080fd5b818601915086601f83011261332557600080fd5b81358181111561333457600080fd5b87602082850101111561334657600080fd5b6020830194508093505050509250925092565b80151581146119a457600080fd5b60008060006040848603121561337c57600080fd5b83356001600160401b0381111561339257600080fd5b61339e86828701613108565b90945092505060208401356133b281613359565b809150509250925092565b600080600080600060a086880312156133d557600080fd5b853594506020860135935060408601356133ee816130f3565b925060608601356133fe81613359565b9150608086013561340e816130f3565b809150509295509295909350565b6020808252825182820181905260009190848201906040850190845b8181101561345457835183529284019291840191600101613438565b50909695505050505050565b600481106134705761347061309f565b9052565b602081016106b88284613460565b6001600160801b03811681146119a457600080fd5b6000602082840312156134a957600080fd5b813561307f81613482565b80356001600160601b03811681146134cb57600080fd5b919050565b6000602082840312156134e257600080fd5b61307f826134b4565b60008060008060008060a0878903121561350457600080fd5b86356001600160401b0381111561351a57600080fd5b61352689828a01613108565b909750955050602087013593506040870135613541816130f3565b9250606087013561355181613359565b91506080870135613561816130f3565b809150509295509295509295565b6000806040838503121561358257600080fd5b823561358d816130f3565b946020939093013593505050565b6000806000806000606086880312156135b357600080fd5b85356135be816130f3565b945060208601356001600160401b03808211156135da57600080fd5b6135e689838a01613108565b909650945060408801359150808211156135ff57600080fd5b5061360c88828901613108565b969995985093965092949392505050565b6020810161362a836130b5565b91905290565b600082601f83011261364157600080fd5b813560206001600160401b0382111561365c5761365c6131a7565b8160051b61366b8282016131bd565b928352848101820192828101908785111561368557600080fd5b83870192505b848310156136a45782358252918301919083019061368b565b979650505050505050565b600080600080600060a086880312156136c757600080fd5b85356136d2816130f3565b945060208601356136e2816130f3565b935060408601356001600160401b03808211156136fe57600080fd5b61370a89838a01613630565b9450606088013591508082111561372057600080fd5b61372c89838a01613630565b9350608088013591508082111561374257600080fd5b5061374f88828901613214565b9150509295509295909350565b600080600080600060a0868803121561377457600080fd5b853561377f816130f3565b9450602086013561378f816130f3565b9350604086013592506060860135915060808601356001600160401b038111156137b857600080fd5b61374f88828901613214565b6000602082840312156137d657600080fd5b813561307f816130f3565b600080600080600060a086880312156137f957600080fd5b8535613804816130f3565b94506020860135613814816130f3565b9350604086013561382481613482565b9250613832606087016134b4565b9150608086013561340e81613482565b60006020828403121561385457600080fd5b5051919050565b6001600160801b03958616815293909416602084015260408301919091526001600160601b03166060820152608081019190915260a00190565b600080600080600060a086880312156138ad57600080fd5b8551600381106138bc57600080fd5b60208701519095506138cd81613482565b60408701519094506138de81613482565b6060870151608090970151959894975095949392505050565b634e487b7160e01b600052603260045260246000fd5b6001600160a01b039384168152919092166020820152604081019190915260600190565b60006020828403121561394357600080fd5b815161307f81613359565b8183823760009101908152919050565b6000808335601e1984360301811261397557600080fd5b8301803591506001600160401b0382111561398f57600080fd5b60200191503681900382131561314c57600080fd5b60005b838110156139bf5781810151838201526020016139a7565b838111156128155750506000910152565b60208152600082518060208401526139ef8160408501602087016139a4565b601f01601f19169190910160400192915050565b6020808252601f908201527f5265656e7472616e637947756172643a207265656e7472616e742063616c6c00604082015260600190565b6020808252600f908201526e57726f6e6720506f6f6c207479706560881b604082015260600190565b81835260006001600160fb1b03831115613a7c57600080fd5b8260051b8083602087013760009401602001938452509192915050565b6001600160a01b0387811682528616602082015260a060408201819052600090613ac69083018688613a63565b8281036060840152613ad9818587613a63565b8381036080909401939093525050600081526020019695505050505050565b600060208284031215613b0a57600080fd5b81516001600160401b03811115613b2057600080fd5b8201601f81018413613b3157600080fd5b8051613b3f613233826131ed565b818152856020838501011115613b5457600080fd5b613b658260208301602086016139a4565b95945050505050565b60008060408385031215613b8157600080fd5b8251613b8c81613359565b6020840151909250613b9d81613359565b809150509250929050565b600082821015613bc857634e487b7160e01b600052601160045260246000fd5b500390565b6001600160a01b0386811682528581166020830152841660408201526060810183905260a08101613c016080830184613460565b9695505050505050565b600060208284031215613c1d57600080fd5b815161307f816130f356fea264697066735822122086c3ecfcfb5df784ffcdba4c6dccdd91e097ebda95d48402ec7b76b84d913a0264736f6c63430008090033",
  "linkReferences": {},
  "deployedLinkReferences": {}
}