{
  "_format": "hh-sol-artifact-1",
  "contractName": "LSSVMRouter",
  "sourceName": "contracts/LSSVMRouter.sol",
  "abi": [
    {
      "inputs": [
        {
          "internalType": "contract ILSSVMPairFactoryLike",
          "name": "_factory",
          "type": "address"
        }
      ],
      "stateMutability": "nonpayable",
      "type": "constructor"
    },
    {
      "inputs": [],
      "name": "factory",
      "outputs": [
        {
          "internalType": "contract ILSSVMPairFactoryLike",
          "name": "",
          "type": "address"
        }
      ],
      "stateMutability": "view",
      "type": "function"
    },
    {
      "inputs": [
        {
          "internalType": "contract ERC20",
          "name": "token",
          "type": "address"
        },
        {
          "internalType": "address",
          "name": "from",
          "type": "address"
        },
        {
          "internalType": "address",
          "name": "to",
          "type": "address"
        },
        {
          "internalType": "uint256",
          "name": "amount",
          "type": "uint256"
        },
        {
          "internalType": "enum ILSSVMPairFactoryLike.PairVariant",
          "name": "variant",
          "type": "uint8"
        }
      ],
      "name": "pairTransferERC20From",
      "outputs": [],
      "stateMutability": "nonpayable",
      "type": "function"
    },
    {
      "inputs": [
        {
          "internalType": "contract IERC721",
          "name": "nft",
          "type": "address"
        },
        {
          "internalType": "address",
          "name": "from",
          "type": "address"
        },
        {
          "internalType": "address",
          "name": "to",
          "type": "address"
        },
        {
          "internalType": "uint256",
          "name": "id",
          "type": "uint256"
        },
        {
          "internalType": "enum ILSSVMPairFactoryLike.PairVariant",
          "name": "variant",
          "type": "uint8"
        }
      ],
      "name": "pairTransferNFTFrom",
      "outputs": [],
      "stateMutability": "nonpayable",
      "type": "function"
    },
    {
      "inputs": [
        {
          "components": [
            {
              "components": [
                {
                  "internalType": "contract LSSVMPair",
                  "name": "pair",
                  "type": "address"
                },
                {
                  "internalType": "uint256",
                  "name": "numItems",
                  "type": "uint256"
                }
              ],
              "internalType": "struct LSSVMRouter.PairSwapAny",
              "name": "swapInfo",
              "type": "tuple"
            },
            {
              "internalType": "uint256",
              "name": "maxCost",
              "type": "uint256"
            }
          ],
          "internalType": "struct LSSVMRouter.RobustPairSwapAny[]",
          "name": "swapList",
          "type": "tuple[]"
        },
        {
          "internalType": "uint256",
          "name": "inputAmount",
          "type": "uint256"
        },
        {
          "internalType": "address",
          "name": "nftRecipient",
          "type": "address"
        },
        {
          "internalType": "uint256",
          "name": "deadline",
          "type": "uint256"
        }
      ],
      "name": "robustSwapERC20ForAnyNFTs",
      "outputs": [
        {
          "internalType": "uint256",
          "name": "remainingValue",
          "type": "uint256"
        }
      ],
      "stateMutability": "nonpayable",
      "type": "function"
    },
    {
      "inputs": [
        {
          "components": [
            {
              "components": [
                {
                  "internalType": "contract LSSVMPair",
                  "name": "pair",
                  "type": "address"
                },
                {
                  "internalType": "uint256[]",
                  "name": "nftIds",
                  "type": "uint256[]"
                }
              ],
              "internalType": "struct LSSVMRouter.PairSwapSpecific",
              "name": "swapInfo",
              "type": "tuple"
            },
            {
              "internalType": "uint256",
              "name": "maxCost",
              "type": "uint256"
            }
          ],
          "internalType": "struct LSSVMRouter.RobustPairSwapSpecific[]",
          "name": "swapList",
          "type": "tuple[]"
        },
        {
          "internalType": "uint256",
          "name": "inputAmount",
          "type": "uint256"
        },
        {
          "internalType": "address",
          "name": "nftRecipient",
          "type": "address"
        },
        {
          "internalType": "uint256",
          "name": "deadline",
          "type": "uint256"
        }
      ],
      "name": "robustSwapERC20ForSpecificNFTs",
      "outputs": [
        {
          "internalType": "uint256",
          "name": "remainingValue",
          "type": "uint256"
        }
      ],
      "stateMutability": "nonpayable",
      "type": "function"
    },
    {
      "inputs": [
        {
          "components": [
            {
              "components": [
                {
                  "components": [
                    {
                      "internalType": "contract LSSVMPair",
                      "name": "pair",
                      "type": "address"
                    },
                    {
                      "internalType": "uint256[]",
                      "name": "nftIds",
                      "type": "uint256[]"
                    }
                  ],
                  "internalType": "struct LSSVMRouter.PairSwapSpecific",
                  "name": "swapInfo",
                  "type": "tuple"
                },
                {
                  "internalType": "uint256",
                  "name": "maxCost",
                  "type": "uint256"
                }
              ],
              "internalType": "struct LSSVMRouter.RobustPairSwapSpecific[]",
              "name": "tokenToNFTTrades",
              "type": "tuple[]"
            },
            {
              "components": [
                {
                  "components": [
                    {
                      "internalType": "contract LSSVMPair",
                      "name": "pair",
                      "type": "address"
                    },
                    {
                      "internalType": "uint256[]",
                      "name": "nftIds",
                      "type": "uint256[]"
                    }
                  ],
                  "internalType": "struct LSSVMRouter.PairSwapSpecific",
                  "name": "swapInfo",
                  "type": "tuple"
                },
                {
                  "internalType": "uint256",
                  "name": "minOutput",
                  "type": "uint256"
                }
              ],
              "internalType": "struct LSSVMRouter.RobustPairSwapSpecificForToken[]",
              "name": "nftToTokenTrades",
              "type": "tuple[]"
            },
            {
              "internalType": "uint256",
              "name": "inputAmount",
              "type": "uint256"
            },
            {
              "internalType": "address payable",
              "name": "tokenRecipient",
              "type": "address"
            },
            {
              "internalType": "address",
              "name": "nftRecipient",
              "type": "address"
            }
          ],
          "internalType": "struct LSSVMRouter.RobustPairNFTsFoTokenAndTokenforNFTsTrade",
          "name": "params",
          "type": "tuple"
        }
      ],
      "name": "robustSwapERC20ForSpecificNFTsAndNFTsToToken",
      "outputs": [
        {
          "internalType": "uint256",
          "name": "remainingValue",
          "type": "uint256"
        },
        {
          "internalType": "uint256",
          "name": "outputAmount",
          "type": "uint256"
        }
      ],
      "stateMutability": "payable",
      "type": "function"
    },
    {
      "inputs": [
        {
          "components": [
            {
              "components": [
                {
                  "internalType": "contract LSSVMPair",
                  "name": "pair",
                  "type": "address"
                },
                {
                  "internalType": "uint256",
                  "name": "numItems",
                  "type": "uint256"
                }
              ],
              "internalType": "struct LSSVMRouter.PairSwapAny",
              "name": "swapInfo",
              "type": "tuple"
            },
            {
              "internalType": "uint256",
              "name": "maxCost",
              "type": "uint256"
            }
          ],
          "internalType": "struct LSSVMRouter.RobustPairSwapAny[]",
          "name": "swapList",
          "type": "tuple[]"
        },
        {
          "internalType": "address payable",
          "name": "ethRecipient",
          "type": "address"
        },
        {
          "internalType": "address",
          "name": "nftRecipient",
          "type": "address"
        },
        {
          "internalType": "uint256",
          "name": "deadline",
          "type": "uint256"
        }
      ],
      "name": "robustSwapETHForAnyNFTs",
      "outputs": [
        {
          "internalType": "uint256",
          "name": "remainingValue",
          "type": "uint256"
        }
      ],
      "stateMutability": "payable",
      "type": "function"
    },
    {
      "inputs": [
        {
          "components": [
            {
              "components": [
                {
                  "internalType": "contract LSSVMPair",
                  "name": "pair",
                  "type": "address"
                },
                {
                  "internalType": "uint256[]",
                  "name": "nftIds",
                  "type": "uint256[]"
                }
              ],
              "internalType": "struct LSSVMRouter.PairSwapSpecific",
              "name": "swapInfo",
              "type": "tuple"
            },
            {
              "internalType": "uint256",
              "name": "maxCost",
              "type": "uint256"
            }
          ],
          "internalType": "struct LSSVMRouter.RobustPairSwapSpecific[]",
          "name": "swapList",
          "type": "tuple[]"
        },
        {
          "internalType": "address payable",
          "name": "ethRecipient",
          "type": "address"
        },
        {
          "internalType": "address",
          "name": "nftRecipient",
          "type": "address"
        },
        {
          "internalType": "uint256",
          "name": "deadline",
          "type": "uint256"
        }
      ],
      "name": "robustSwapETHForSpecificNFTs",
      "outputs": [
        {
          "internalType": "uint256",
          "name": "remainingValue",
          "type": "uint256"
        }
      ],
      "stateMutability": "payable",
      "type": "function"
    },
    {
      "inputs": [
        {
          "components": [
            {
              "components": [
                {
                  "components": [
                    {
                      "internalType": "contract LSSVMPair",
                      "name": "pair",
                      "type": "address"
                    },
                    {
                      "internalType": "uint256[]",
                      "name": "nftIds",
                      "type": "uint256[]"
                    }
                  ],
                  "internalType": "struct LSSVMRouter.PairSwapSpecific",
                  "name": "swapInfo",
                  "type": "tuple"
                },
                {
                  "internalType": "uint256",
                  "name": "maxCost",
                  "type": "uint256"
                }
              ],
              "internalType": "struct LSSVMRouter.RobustPairSwapSpecific[]",
              "name": "tokenToNFTTrades",
              "type": "tuple[]"
            },
            {
              "components": [
                {
                  "components": [
                    {
                      "internalType": "contract LSSVMPair",
                      "name": "pair",
                      "type": "address"
                    },
                    {
                      "internalType": "uint256[]",
                      "name": "nftIds",
                      "type": "uint256[]"
                    }
                  ],
                  "internalType": "struct LSSVMRouter.PairSwapSpecific",
                  "name": "swapInfo",
                  "type": "tuple"
                },
                {
                  "internalType": "uint256",
                  "name": "minOutput",
                  "type": "uint256"
                }
              ],
              "internalType": "struct LSSVMRouter.RobustPairSwapSpecificForToken[]",
              "name": "nftToTokenTrades",
              "type": "tuple[]"
            },
            {
              "internalType": "uint256",
              "name": "inputAmount",
              "type": "uint256"
            },
            {
              "internalType": "address payable",
              "name": "tokenRecipient",
              "type": "address"
            },
            {
              "internalType": "address",
              "name": "nftRecipient",
              "type": "address"
            }
          ],
          "internalType": "struct LSSVMRouter.RobustPairNFTsFoTokenAndTokenforNFTsTrade",
          "name": "params",
          "type": "tuple"
        }
      ],
      "name": "robustSwapETHForSpecificNFTsAndNFTsToToken",
      "outputs": [
        {
          "internalType": "uint256",
          "name": "remainingValue",
          "type": "uint256"
        },
        {
          "internalType": "uint256",
          "name": "outputAmount",
          "type": "uint256"
        }
      ],
      "stateMutability": "payable",
      "type": "function"
    },
    {
      "inputs": [
        {
          "components": [
            {
              "components": [
                {
                  "internalType": "contract LSSVMPair",
                  "name": "pair",
                  "type": "address"
                },
                {
                  "internalType": "uint256[]",
                  "name": "nftIds",
                  "type": "uint256[]"
                }
              ],
              "internalType": "struct LSSVMRouter.PairSwapSpecific",
              "name": "swapInfo",
              "type": "tuple"
            },
            {
              "internalType": "uint256",
              "name": "minOutput",
              "type": "uint256"
            }
          ],
          "internalType": "struct LSSVMRouter.RobustPairSwapSpecificForToken[]",
          "name": "swapList",
          "type": "tuple[]"
        },
        {
          "internalType": "address payable",
          "name": "tokenRecipient",
          "type": "address"
        },
        {
          "internalType": "uint256",
          "name": "deadline",
          "type": "uint256"
        }
      ],
      "name": "robustSwapNFTsForToken",
      "outputs": [
        {
          "internalType": "uint256",
          "name": "outputAmount",
          "type": "uint256"
        }
      ],
      "stateMutability": "nonpayable",
      "type": "function"
    },
    {
      "inputs": [
        {
          "components": [
            {
              "internalType": "contract LSSVMPair",
              "name": "pair",
              "type": "address"
            },
            {
              "internalType": "uint256",
              "name": "numItems",
              "type": "uint256"
            }
          ],
          "internalType": "struct LSSVMRouter.PairSwapAny[]",
          "name": "swapList",
          "type": "tuple[]"
        },
        {
          "internalType": "uint256",
          "name": "inputAmount",
          "type": "uint256"
        },
        {
          "internalType": "address",
          "name": "nftRecipient",
          "type": "address"
        },
        {
          "internalType": "uint256",
          "name": "deadline",
          "type": "uint256"
        }
      ],
      "name": "swapERC20ForAnyNFTs",
      "outputs": [
        {
          "internalType": "uint256",
          "name": "remainingValue",
          "type": "uint256"
        }
      ],
      "stateMutability": "nonpayable",
      "type": "function"
    },
    {
      "inputs": [
        {
          "components": [
            {
              "internalType": "contract LSSVMPair",
              "name": "pair",
              "type": "address"
            },
            {
              "internalType": "uint256[]",
              "name": "nftIds",
              "type": "uint256[]"
            }
          ],
          "internalType": "struct LSSVMRouter.PairSwapSpecific[]",
          "name": "swapList",
          "type": "tuple[]"
        },
        {
          "internalType": "uint256",
          "name": "inputAmount",
          "type": "uint256"
        },
        {
          "internalType": "address",
          "name": "nftRecipient",
          "type": "address"
        },
        {
          "internalType": "uint256",
          "name": "deadline",
          "type": "uint256"
        }
      ],
      "name": "swapERC20ForSpecificNFTs",
      "outputs": [
        {
          "internalType": "uint256",
          "name": "remainingValue",
          "type": "uint256"
        }
      ],
      "stateMutability": "nonpayable",
      "type": "function"
    },
    {
      "inputs": [
        {
          "components": [
            {
              "internalType": "contract LSSVMPair",
              "name": "pair",
              "type": "address"
            },
            {
              "internalType": "uint256",
              "name": "numItems",
              "type": "uint256"
            }
          ],
          "internalType": "struct LSSVMRouter.PairSwapAny[]",
          "name": "swapList",
          "type": "tuple[]"
        },
        {
          "internalType": "address payable",
          "name": "ethRecipient",
          "type": "address"
        },
        {
          "internalType": "address",
          "name": "nftRecipient",
          "type": "address"
        },
        {
          "internalType": "uint256",
          "name": "deadline",
          "type": "uint256"
        }
      ],
      "name": "swapETHForAnyNFTs",
      "outputs": [
        {
          "internalType": "uint256",
          "name": "remainingValue",
          "type": "uint256"
        }
      ],
      "stateMutability": "payable",
      "type": "function"
    },
    {
      "inputs": [
        {
          "components": [
            {
              "internalType": "contract LSSVMPair",
              "name": "pair",
              "type": "address"
            },
            {
              "internalType": "uint256[]",
              "name": "nftIds",
              "type": "uint256[]"
            }
          ],
          "internalType": "struct LSSVMRouter.PairSwapSpecific[]",
          "name": "swapList",
          "type": "tuple[]"
        },
        {
          "internalType": "address payable",
          "name": "ethRecipient",
          "type": "address"
        },
        {
          "internalType": "address",
          "name": "nftRecipient",
          "type": "address"
        },
        {
          "internalType": "uint256",
          "name": "deadline",
          "type": "uint256"
        }
      ],
      "name": "swapETHForSpecificNFTs",
      "outputs": [
        {
          "internalType": "uint256",
          "name": "remainingValue",
          "type": "uint256"
        }
      ],
      "stateMutability": "payable",
      "type": "function"
    },
    {
      "inputs": [
        {
          "components": [
            {
              "components": [
                {
                  "internalType": "contract LSSVMPair",
                  "name": "pair",
                  "type": "address"
                },
                {
                  "internalType": "uint256[]",
                  "name": "nftIds",
                  "type": "uint256[]"
                }
              ],
              "internalType": "struct LSSVMRouter.PairSwapSpecific[]",
              "name": "nftToTokenTrades",
              "type": "tuple[]"
            },
            {
              "components": [
                {
                  "internalType": "contract LSSVMPair",
                  "name": "pair",
                  "type": "address"
                },
                {
                  "internalType": "uint256",
                  "name": "numItems",
                  "type": "uint256"
                }
              ],
              "internalType": "struct LSSVMRouter.PairSwapAny[]",
              "name": "tokenToNFTTrades",
              "type": "tuple[]"
            }
          ],
          "internalType": "struct LSSVMRouter.NFTsForAnyNFTsTrade",
          "name": "trade",
          "type": "tuple"
        },
        {
          "internalType": "uint256",
          "name": "inputAmount",
          "type": "uint256"
        },
        {
          "internalType": "uint256",
          "name": "minOutput",
          "type": "uint256"
        },
        {
          "internalType": "address",
          "name": "nftRecipient",
          "type": "address"
        },
        {
          "internalType": "uint256",
          "name": "deadline",
          "type": "uint256"
        }
      ],
      "name": "swapNFTsForAnyNFTsThroughERC20",
      "outputs": [
        {
          "internalType": "uint256",
          "name": "outputAmount",
          "type": "uint256"
        }
      ],
      "stateMutability": "nonpayable",
      "type": "function"
    },
    {
      "inputs": [
        {
          "components": [
            {
              "components": [
                {
                  "internalType": "contract LSSVMPair",
                  "name": "pair",
                  "type": "address"
                },
                {
                  "internalType": "uint256[]",
                  "name": "nftIds",
                  "type": "uint256[]"
                }
              ],
              "internalType": "struct LSSVMRouter.PairSwapSpecific[]",
              "name": "nftToTokenTrades",
              "type": "tuple[]"
            },
            {
              "components": [
                {
                  "internalType": "contract LSSVMPair",
                  "name": "pair",
                  "type": "address"
                },
                {
                  "internalType": "uint256",
                  "name": "numItems",
                  "type": "uint256"
                }
              ],
              "internalType": "struct LSSVMRouter.PairSwapAny[]",
              "name": "tokenToNFTTrades",
              "type": "tuple[]"
            }
          ],
          "internalType": "struct LSSVMRouter.NFTsForAnyNFTsTrade",
          "name": "trade",
          "type": "tuple"
        },
        {
          "internalType": "uint256",
          "name": "minOutput",
          "type": "uint256"
        },
        {
          "internalType": "address payable",
          "name": "ethRecipient",
          "type": "address"
        },
        {
          "internalType": "address",
          "name": "nftRecipient",
          "type": "address"
        },
        {
          "internalType": "uint256",
          "name": "deadline",
          "type": "uint256"
        }
      ],
      "name": "swapNFTsForAnyNFTsThroughETH",
      "outputs": [
        {
          "internalType": "uint256",
          "name": "outputAmount",
          "type": "uint256"
        }
      ],
      "stateMutability": "payable",
      "type": "function"
    },
    {
      "inputs": [
        {
          "components": [
            {
              "components": [
                {
                  "internalType": "contract LSSVMPair",
                  "name": "pair",
                  "type": "address"
                },
                {
                  "internalType": "uint256[]",
                  "name": "nftIds",
                  "type": "uint256[]"
                }
              ],
              "internalType": "struct LSSVMRouter.PairSwapSpecific[]",
              "name": "nftToTokenTrades",
              "type": "tuple[]"
            },
            {
              "components": [
                {
                  "internalType": "contract LSSVMPair",
                  "name": "pair",
                  "type": "address"
                },
                {
                  "internalType": "uint256[]",
                  "name": "nftIds",
                  "type": "uint256[]"
                }
              ],
              "internalType": "struct LSSVMRouter.PairSwapSpecific[]",
              "name": "tokenToNFTTrades",
              "type": "tuple[]"
            }
          ],
          "internalType": "struct LSSVMRouter.NFTsForSpecificNFTsTrade",
          "name": "trade",
          "type": "tuple"
        },
        {
          "internalType": "uint256",
          "name": "inputAmount",
          "type": "uint256"
        },
        {
          "internalType": "uint256",
          "name": "minOutput",
          "type": "uint256"
        },
        {
          "internalType": "address",
          "name": "nftRecipient",
          "type": "address"
        },
        {
          "internalType": "uint256",
          "name": "deadline",
          "type": "uint256"
        }
      ],
      "name": "swapNFTsForSpecificNFTsThroughERC20",
      "outputs": [
        {
          "internalType": "uint256",
          "name": "outputAmount",
          "type": "uint256"
        }
      ],
      "stateMutability": "nonpayable",
      "type": "function"
    },
    {
      "inputs": [
        {
          "components": [
            {
              "components": [
                {
                  "internalType": "contract LSSVMPair",
                  "name": "pair",
                  "type": "address"
                },
                {
                  "internalType": "uint256[]",
                  "name": "nftIds",
                  "type": "uint256[]"
                }
              ],
              "internalType": "struct LSSVMRouter.PairSwapSpecific[]",
              "name": "nftToTokenTrades",
              "type": "tuple[]"
            },
            {
              "components": [
                {
                  "internalType": "contract LSSVMPair",
                  "name": "pair",
                  "type": "address"
                },
                {
                  "internalType": "uint256[]",
                  "name": "nftIds",
                  "type": "uint256[]"
                }
              ],
              "internalType": "struct LSSVMRouter.PairSwapSpecific[]",
              "name": "tokenToNFTTrades",
              "type": "tuple[]"
            }
          ],
          "internalType": "struct LSSVMRouter.NFTsForSpecificNFTsTrade",
          "name": "trade",
          "type": "tuple"
        },
        {
          "internalType": "uint256",
          "name": "minOutput",
          "type": "uint256"
        },
        {
          "internalType": "address payable",
          "name": "ethRecipient",
          "type": "address"
        },
        {
          "internalType": "address",
          "name": "nftRecipient",
          "type": "address"
        },
        {
          "internalType": "uint256",
          "name": "deadline",
          "type": "uint256"
        }
      ],
      "name": "swapNFTsForSpecificNFTsThroughETH",
      "outputs": [
        {
          "internalType": "uint256",
          "name": "outputAmount",
          "type": "uint256"
        }
      ],
      "stateMutability": "payable",
      "type": "function"
    },
    {
      "inputs": [
        {
          "components": [
            {
              "internalType": "contract LSSVMPair",
              "name": "pair",
              "type": "address"
            },
            {
              "internalType": "uint256[]",
              "name": "nftIds",
              "type": "uint256[]"
            }
          ],
          "internalType": "struct LSSVMRouter.PairSwapSpecific[]",
          "name": "swapList",
          "type": "tuple[]"
        },
        {
          "internalType": "uint256",
          "name": "minOutput",
          "type": "uint256"
        },
        {
          "internalType": "address",
          "name": "tokenRecipient",
          "type": "address"
        },
        {
          "internalType": "uint256",
          "name": "deadline",
          "type": "uint256"
        }
      ],
      "name": "swapNFTsForToken",
      "outputs": [
        {
          "internalType": "uint256",
          "name": "outputAmount",
          "type": "uint256"
        }
      ],
      "stateMutability": "nonpayable",
      "type": "function"
    },
    {
      "stateMutability": "payable",
      "type": "receive"
    }
  ],
  "bytecode": "0x60a06040523480156200001157600080fd5b506040516200304c3803806200304c833981016040819052620000349162000046565b6001600160a01b031660805262000078565b6000602082840312156200005957600080fd5b81516001600160a01b03811681146200007157600080fd5b9392505050565b608051612faa620000a26000396000818161029201528181610b130152610c770152612faa6000f3fe6080604052600436106101185760003560e01c8063a833d43a116100a0578063d89bb2b511610064578063d89bb2b5146102ec578063dabf67d7146102ff578063db42312a1461031f578063db6ddb2614610332578063f138513a1461035257600080fd5b8063a833d43a1461023a578063ab5c0da21461024d578063ad13445014610260578063c45a015514610280578063c5cf5704146102cc57600080fd5b80633efd9e71116100e75780633efd9e711461019d5780634b456d0c146101b0578063748ff339146101d257806384a4c8c4146101f25780638c1daa2b1461021257600080fd5b8063111320001461012457806314db37841461014a5780632b997f8e1461016a5780632f9b9d4e1461018a57600080fd5b3661011f57005b600080fd5b61013761013236600461289c565b610372565b6040519081526020015b60405180910390f35b34801561015657600080fd5b5061013761016536600461290b565b610396565b34801561017657600080fd5b50610137610185366004612960565b6103ae565b610137610198366004612a00565b610645565b6101376101ab36600461289c565b610879565b3480156101bc57600080fd5b506101d06101cb366004612a4e565b610afc565b005b3480156101de57600080fd5b506101d06101ed366004612a4e565b610c60565b3480156101fe57600080fd5b5061013761020d366004612aca565b610da6565b610225610220366004612b34565b610e00565b60408051928352602083019190915201610141565b610137610248366004612b75565b6113a4565b61022561025b366004612b34565b6113f5565b34801561026c57600080fd5b5061013761027b366004612c1b565b6119b8565b34801561028c57600080fd5b506102b47f000000000000000000000000000000000000000000000000000000000000000081565b6040516001600160a01b039091168152602001610141565b3480156102d857600080fd5b506101376102e7366004612c55565b6119d0565b6101376102fa366004612b75565b611bea565b34801561030b57600080fd5b5061013761031a36600461290b565b611c33565b61013761032d366004612c8f565b611c4b565b34801561033e57600080fd5b5061013761034d36600461290b565b611c64565b34801561035e57600080fd5b5061013761036d366004612aca565b611ee6565b60008161037e81611f2e565b61038b8787348888611f73565b979650505050505050565b6000816103a281611f2e565b61038b878787876121f4565b6000816103ba81611f2e565b8460005b8181101561063a576000808989848181106103db576103db612cc9565b90506020028101906103ed9190612cdf565b6103f79080612cdf565b610405906020810190612cff565b6001600160a01b0316630c295e568b8b8681811061042557610425612cc9565b90506020028101906104379190612cdf565b6104419080612cdf565b61044f906020810190612d1c565b6040516001600160e01b031960e085901b168152610474925060040190815260200190565b60a06040518083038186803b15801561048c57600080fd5b505afa1580156104a0573d6000803e3d6000fd5b505050506040513d601f19601f820116820180604052508101906104c49190612d65565b509450919250600091506104d59050565b8160028111156104e7576104e7612db2565b146104f65750506001016103be565b5088888381811061050957610509612cc9565b905060200281019061051b9190612cdf565b6020013581106106315788888381811061053757610537612cc9565b90506020028101906105499190612cdf565b6105539080612cdf565b610561906020810190612cff565b6001600160a01b031663b1d3f1c18a8a8581811061058157610581612cc9565b90506020028101906105939190612cdf565b61059d9080612cdf565b6105ab906020810190612d1c565b60008b6001336040518763ffffffff1660e01b81526004016105d296959493929190612dfe565b602060405180830381600087803b1580156105ec57600080fd5b505af1158015610600573d6000803e3d6000fd5b505050506040513d601f19601f820116820180604052508101906106249190612e42565b61062e9086612e71565b94505b506001016103be565b505050949350505050565b60008161065181611f2e565b34915060008087815b81811015610852578a8a8281811061067457610674612cc9565b61068a9260206060909202019081019150612cff565b6001600160a01b031663a5cb2b918c8c848181106106aa576106aa612cc9565b905060600201600001602001356040518263ffffffff1660e01b81526004016106d591815260200190565b60a06040518083038186803b1580156106ed57600080fd5b505afa158015610701573d6000803e3d6000fd5b505050506040513d601f19601f820116820180604052508101906107259190612d65565b5096509194508c91508b90508281811061074157610741612cc9565b90506060020160400135841115801561076b5750600083600281111561076957610769612db2565b145b1561084a578a8a8281811061078257610782612cc9565b6107989260206060909202019081019150612cff565b6001600160a01b03166328b8aee1858d8d858181106107b9576107b9612cc9565b90506060020160000160200135878c6001336040518763ffffffff1660e01b81526004016107eb959493929190612e89565b6020604051808303818588803b15801561080457600080fd5b505af1158015610818573d6000803e3d6000fd5b50505050506040513d601f19601f8201168201806040525081019061083d9190612e42565b6108479087612eb7565b95505b60010161065a565b50841561086c5761086c6001600160a01b03891686612309565b5050505095945050505050565b60008161088581611f2e565b34915060008087815b81811015610852578a8a828181106108a8576108a8612cc9565b90506020028101906108ba9190612cdf565b6108c49080612cdf565b6108d2906020810190612cff565b6001600160a01b031663a5cb2b918c8c848181106108f2576108f2612cc9565b90506020028101906109049190612cdf565b61090e9080612cdf565b61091c906020810190612d1c565b6040516001600160e01b031960e085901b168152610941925060040190815260200190565b60a06040518083038186803b15801561095957600080fd5b505afa15801561096d573d6000803e3d6000fd5b505050506040513d601f19601f820116820180604052508101906109919190612d65565b5096509194508c91508b9050828181106109ad576109ad612cc9565b90506020028101906109bf9190612cdf565b6020013584111580156109e3575060008360028111156109e1576109e1612db2565b145b15610af4578a8a828181106109fa576109fa612cc9565b9050602002810190610a0c9190612cdf565b610a169080612cdf565b610a24906020810190612cff565b6001600160a01b0316636d8b99f7858d8d85818110610a4557610a45612cc9565b9050602002810190610a579190612cdf565b610a619080612cdf565b610a6f906020810190612d1c565b888d6001336040518863ffffffff1660e01b8152600401610a9596959493929190612dfe565b6020604051808303818588803b158015610aae57600080fd5b505af1158015610ac2573d6000803e3d6000fd5b50505050506040513d601f19601f82011682018060405250810190610ae79190612e42565b610af19087612eb7565b95505b60010161088e565b6040516308f25a8f60e01b81526001600160a01b037f000000000000000000000000000000000000000000000000000000000000000016906308f25a8f90610b4a9033908590600401612ece565b60206040518083038186803b158015610b6257600080fd5b505afa158015610b76573d6000803e3d6000fd5b505050506040513d601f19601f82011682018060405250810190610b9a9190612f09565b610bd65760405162461bcd60e51b81526020600482015260086024820152672737ba103830b4b960c11b60448201526064015b60405180910390fd5b6002816003811115610bea57610bea612db2565b1480610c0757506003816003811115610c0557610c05612db2565b145b610c445760405162461bcd60e51b815260206004820152600e60248201526d2737ba1022a9219918103830b4b960911b6044820152606401610bcd565b610c596001600160a01b03861685858561235f565b5050505050565b6040516308f25a8f60e01b81526001600160a01b037f000000000000000000000000000000000000000000000000000000000000000016906308f25a8f90610cae9033908590600401612ece565b60206040518083038186803b158015610cc657600080fd5b505afa158015610cda573d6000803e3d6000fd5b505050506040513d601f19601f82011682018060405250810190610cfe9190612f09565b610d355760405162461bcd60e51b81526020600482015260086024820152672737ba103830b4b960c11b6044820152606401610bcd565b604051632142170760e11b81526001600160a01b0385811660048301528481166024830152604482018490528616906342842e0e90606401600060405180830381600087803b158015610d8757600080fd5b505af1158015610d9b573d6000803e3d6000fd5b505050505050505050565b600081610db281611f2e565b610dc7610dbf8880612d1c565b6000336123e2565b9150610dd38683612e71565b915084610df6610de660208a018a612d1c565b610df08987612eb7565b886121f4565b61038b9190612e71565b60408101356000808080610e148680612d1c565b9050905060005b818110156110bf57610e2d8780612d1c565b82818110610e3d57610e3d612cc9565b9050602002810190610e4f9190612cdf565b610e599080612cdf565b610e67906020810190612cff565b6001600160a01b031663a5cb2b91610e7f8980612d1c565b84818110610e8f57610e8f612cc9565b9050602002810190610ea19190612cdf565b610eab9080612cdf565b610eb9906020810190612d1c565b6040516001600160e01b031960e085901b168152610ede925060040190815260200190565b60a06040518083038186803b158015610ef657600080fd5b505afa158015610f0a573d6000803e3d6000fd5b505050506040513d601f19601f82011682018060405250810190610f2e9190612d65565b509650919450610f42915088905080612d1c565b82818110610f5257610f52612cc9565b9050602002810190610f649190612cdf565b602001358411158015610f8857506000836002811115610f8657610f86612db2565b145b156110b757610f978780612d1c565b82818110610fa757610fa7612cc9565b9050602002810190610fb99190612cdf565b610fc39080612cdf565b610fd1906020810190612cff565b6001600160a01b0316636d8b99f7610fe98980612d1c565b84818110610ff957610ff9612cc9565b905060200281019061100b9190612cdf565b6110159080612cdf565b611023906020810190612d1c565b8761103460a08d0160808e01612cff565b6001336040518763ffffffff1660e01b815260040161105896959493929190612dfe565b602060405180830381600087803b15801561107257600080fd5b505af1158015611086573d6000803e3d6000fd5b505050506040513d601f19601f820116820180604052508101906110aa9190612e42565b6110b49087612eb7565b95505b600101610e1b565b50600092506110d49150506020850185612d1c565b9050905060005b8181101561139d576000806110f36020880188612d1c565b8481811061110357611103612cc9565b90506020028101906111159190612cdf565b61111f9080612cdf565b61112d906020810190612cff565b6001600160a01b0316630c295e5661114860208a018a612d1c565b8681811061115857611158612cc9565b905060200281019061116a9190612cdf565b6111749080612cdf565b611182906020810190612d1c565b6040516001600160e01b031960e085901b1681526111a7925060040190815260200190565b60a06040518083038186803b1580156111bf57600080fd5b505afa1580156111d3573d6000803e3d6000fd5b505050506040513d601f19601f820116820180604052508101906111f79190612d65565b509450919250600091506112089050565b81600281111561121a5761121a612db2565b146112295750506001016110db565b506112376020870187612d1c565b8381811061124757611247612cc9565b90506020028101906112599190612cdf565b602001358110611394576112706020870187612d1c565b8381811061128057611280612cc9565b90506020028101906112929190612cdf565b61129c9080612cdf565b6112aa906020810190612cff565b6001600160a01b031663b1d3f1c16112c56020890189612d1c565b858181106112d5576112d5612cc9565b90506020028101906112e79190612cdf565b6112f19080612cdf565b6112ff906020810190612d1c565b600061131160808c0160608d01612cff565b6001336040518763ffffffff1660e01b815260040161133596959493929190612dfe565b602060405180830381600087803b15801561134f57600080fd5b505af1158015611363573d6000803e3d6000fd5b505050506040513d601f19601f820116820180604052508101906113879190612e42565b6113919085612e71565b93505b506001016110db565b5050915091565b6000816113b081611f2e565b6113c56113bd8880612d1c565b6000306123e2565b91506113d13483612e71565b915085610df66113e460208a018a612d1c565b6113ee8a87612eb7565b8989611f73565b3460008080806114058680612d1c565b9050905060005b818110156116b15761141e8780612d1c565b8281811061142e5761142e612cc9565b90506020028101906114409190612cdf565b61144a9080612cdf565b611458906020810190612cff565b6001600160a01b031663a5cb2b916114708980612d1c565b8481811061148057611480612cc9565b90506020028101906114929190612cdf565b61149c9080612cdf565b6114aa906020810190612d1c565b6040516001600160e01b031960e085901b1681526114cf925060040190815260200190565b60a06040518083038186803b1580156114e757600080fd5b505afa1580156114fb573d6000803e3d6000fd5b505050506040513d601f19601f8201168201806040525081019061151f9190612d65565b509650919450611533915088905080612d1c565b8281811061154357611543612cc9565b90506020028101906115559190612cdf565b6020013584111580156115795750600083600281111561157757611577612db2565b145b156116a9576115888780612d1c565b8281811061159857611598612cc9565b90506020028101906115aa9190612cdf565b6115b49080612cdf565b6115c2906020810190612cff565b6001600160a01b0316636d8b99f7856115db8a80612d1c565b858181106115eb576115eb612cc9565b90506020028101906115fd9190612cdf565b6116079080612cdf565b611615906020810190612d1c565b8861162660a08e0160808f01612cff565b6001336040518863ffffffff1660e01b815260040161164a96959493929190612dfe565b6020604051808303818588803b15801561166357600080fd5b505af1158015611677573d6000803e3d6000fd5b50505050506040513d601f19601f8201168201806040525081019061169c9190612e42565b6116a69087612eb7565b95505b60010161140c565b5084156116db576116db856116cc6080890160608a01612cff565b6001600160a01b031690612309565b50600091506116ef90506020850185612d1c565b9050905060005b8181101561139d5760008061170e6020880188612d1c565b8481811061171e5761171e612cc9565b90506020028101906117309190612cdf565b61173a9080612cdf565b611748906020810190612cff565b6001600160a01b0316630c295e5661176360208a018a612d1c565b8681811061177357611773612cc9565b90506020028101906117859190612cdf565b61178f9080612cdf565b61179d906020810190612d1c565b6040516001600160e01b031960e085901b1681526117c2925060040190815260200190565b60a06040518083038186803b1580156117da57600080fd5b505afa1580156117ee573d6000803e3d6000fd5b505050506040513d601f19601f820116820180604052508101906118129190612d65565b509450919250600091506118239050565b81600281111561183557611835612db2565b146118445750506001016116f6565b506118526020870187612d1c565b8381811061186257611862612cc9565b90506020028101906118749190612cdf565b6020013581106119af5761188b6020870187612d1c565b8381811061189b5761189b612cc9565b90506020028101906118ad9190612cdf565b6118b79080612cdf565b6118c5906020810190612cff565b6001600160a01b031663b1d3f1c16118e06020890189612d1c565b858181106118f0576118f0612cc9565b90506020028101906119029190612cdf565b61190c9080612cdf565b61191a906020810190612d1c565b600061192c60808c0160608d01612cff565b6001336040518763ffffffff1660e01b815260040161195096959493929190612dfe565b602060405180830381600087803b15801561196a57600080fd5b505af115801561197e573d6000803e3d6000fd5b505050506040513d601f19601f820116820180604052508101906119a29190612e42565b6119ac9085612e71565b93505b506001016116f6565b6000816119c481611f2e565b61038b8787878761253f565b6000816119dc81611f2e565b84915060008087815b81811015611bdc578a8a828181106119ff576119ff612cc9565b611a159260206060909202019081019150612cff565b6001600160a01b031663a5cb2b918c8c84818110611a3557611a35612cc9565b905060600201600001602001356040518263ffffffff1660e01b8152600401611a6091815260200190565b60a06040518083038186803b158015611a7857600080fd5b505afa158015611a8c573d6000803e3d6000fd5b505050506040513d601f19601f82011682018060405250810190611ab09190612d65565b5096509194508c91508b905082818110611acc57611acc612cc9565b905060600201604001358411158015611af657506000836002811115611af457611af4612db2565b145b15611bd4578a8a82818110611b0d57611b0d612cc9565b611b239260206060909202019081019150612cff565b6001600160a01b03166328b8aee18c8c84818110611b4357611b43612cc9565b90506060020160000160200135868b6001336040518663ffffffff1660e01b8152600401611b75959493929190612e89565b602060405180830381600087803b158015611b8f57600080fd5b505af1158015611ba3573d6000803e3d6000fd5b505050506040513d601f19601f82011682018060405250810190611bc79190612e42565b611bd19087612eb7565b95505b6001016119e5565b505050505095945050505050565b600081611bf681611f2e565b611c036113bd8880612d1c565b9150611c0f3483612e71565b915085610df6611c2260208a018a612f2b565b611c2c8a87612eb7565b8989612629565b600081611c3f81611f2e565b61038b878787876123e2565b600081611c5781611f2e565b61038b8787348888612629565b600081611c7081611f2e565b84915060008087815b81811015611bdc578a8a82818110611c9357611c93612cc9565b9050602002810190611ca59190612cdf565b611caf9080612cdf565b611cbd906020810190612cff565b6001600160a01b031663a5cb2b918c8c84818110611cdd57611cdd612cc9565b9050602002810190611cef9190612cdf565b611cf99080612cdf565b611d07906020810190612d1c565b6040516001600160e01b031960e085901b168152611d2c925060040190815260200190565b60a06040518083038186803b158015611d4457600080fd5b505afa158015611d58573d6000803e3d6000fd5b505050506040513d601f19601f82011682018060405250810190611d7c9190612d65565b5096509194508c91508b905082818110611d9857611d98612cc9565b9050602002810190611daa9190612cdf565b602001358411158015611dce57506000836002811115611dcc57611dcc612db2565b145b15611ede578a8a82818110611de557611de5612cc9565b9050602002810190611df79190612cdf565b611e019080612cdf565b611e0f906020810190612cff565b6001600160a01b0316636d8b99f78c8c84818110611e2f57611e2f612cc9565b9050602002810190611e419190612cdf565b611e4b9080612cdf565b611e59906020810190612d1c565b878c6001336040518763ffffffff1660e01b8152600401611e7f96959493929190612dfe565b602060405180830381600087803b158015611e9957600080fd5b505af1158015611ead573d6000803e3d6000fd5b505050506040513d601f19601f82011682018060405250810190611ed19190612e42565b611edb9087612eb7565b95505b600101611c79565b600081611ef281611f2e565b611eff610dbf8880612d1c565b9150611f0b8683612e71565b915084610df6611f1e60208a018a612f2b565b611f288987612eb7565b8861253f565b80421115611f705760405162461bcd60e51b815260206004820152600f60248201526e111958591b1a5b99481c185cdcd959608a1b6044820152606401610bcd565b50565b8260008086815b818110156121ce57898982818110611f9457611f94612cc9565b9050602002810190611fa69190612cdf565b611fb4906020810190612cff565b6001600160a01b031663a5cb2b918b8b84818110611fd457611fd4612cc9565b9050602002810190611fe69190612cdf565b611ff4906020810190612d1c565b6040516001600160e01b031960e085901b168152612019925060040190815260200190565b60a06040518083038186803b15801561203157600080fd5b505afa158015612045573d6000803e3d6000fd5b505050506040513d601f19601f820116820180604052508101906120699190612d65565b5096509194506000915061207a9050565b83600281111561208c5761208c612db2565b146120cf5760405162461bcd60e51b81526020600482015260136024820152722137b73234b7339031bab93b329032b93937b960691b6044820152606401610bcd565b8989828181106120e1576120e1612cc9565b90506020028101906120f39190612cdf565b612101906020810190612cff565b6001600160a01b0316636d8b99f7858c8c8581811061212257612122612cc9565b90506020028101906121349190612cdf565b612142906020810190612d1c565b898b6001336040518863ffffffff1660e01b815260040161216896959493929190612dfe565b6020604051808303818588803b15801561218157600080fd5b505af1158015612195573d6000803e3d6000fd5b50505050506040513d601f19601f820116820180604052508101906121ba9190612e42565b6121c49086612eb7565b9450600101611f7a565b5083156121e8576121e86001600160a01b03871685612309565b50505095945050505050565b818360005b818110156122ff5786868281811061221357612213612cc9565b90506020028101906122259190612cdf565b612233906020810190612cff565b6001600160a01b0316636d8b99f788888481811061225357612253612cc9565b90506020028101906122659190612cdf565b612273906020810190612d1c565b86886001336040518763ffffffff1660e01b815260040161229996959493929190612dfe565b602060405180830381600087803b1580156122b357600080fd5b505af11580156122c7573d6000803e3d6000fd5b505050506040513d601f19601f820116820180604052508101906122eb9190612e42565b6122f59084612eb7565b92506001016121f9565b5050949350505050565b600080600080600085875af190508061235a5760405162461bcd60e51b815260206004820152601360248201527211551217d514905394d1915497d19052531151606a1b6044820152606401610bcd565b505050565b60006040516323b872dd60e01b81528460048201528360248201528260448201526020600060648360008a5af13d15601f3d1160016000511416171691505080610c595760405162461bcd60e51b81526020600482015260146024820152731514905394d1915497d19493d357d1905253115160621b6044820152606401610bcd565b600083815b818110156124ee5786868281811061240157612401612cc9565b90506020028101906124139190612cdf565b612421906020810190612cff565b6001600160a01b031663b1d3f1c188888481811061244157612441612cc9565b90506020028101906124539190612cdf565b612461906020810190612d1c565b6000886001336040518763ffffffff1660e01b815260040161248896959493929190612dfe565b602060405180830381600087803b1580156124a257600080fd5b505af11580156124b6573d6000803e3d6000fd5b505050506040513d601f19601f820116820180604052508101906124da9190612e42565b6124e49084612e71565b92506001016123e7565b50838210156125365760405162461bcd60e51b81526020600482015260146024820152736f7574707574416d6f756e7420746f6f206c6f7760601b6044820152606401610bcd565b50949350505050565b818360005b818110156122ff5786868281811061255e5761255e612cc9565b6125749260206040909202019081019150612cff565b6001600160a01b03166328b8aee188888481811061259457612594612cc9565b9050604002016020013585876001336040518663ffffffff1660e01b81526004016125c3959493929190612e89565b602060405180830381600087803b1580156125dd57600080fd5b505af11580156125f1573d6000803e3d6000fd5b505050506040513d601f19601f820116820180604052508101906126159190612e42565b61261f9084612eb7565b9250600101612544565b8260008086815b818110156121ce5789898281811061264a5761264a612cc9565b6126609260206040909202019081019150612cff565b6001600160a01b031663a5cb2b918b8b8481811061268057612680612cc9565b905060400201602001356040518263ffffffff1660e01b81526004016126a891815260200190565b60a06040518083038186803b1580156126c057600080fd5b505afa1580156126d4573d6000803e3d6000fd5b505050506040513d601f19601f820116820180604052508101906126f89190612d65565b509650919450600091506127099050565b83600281111561271b5761271b612db2565b1461275e5760405162461bcd60e51b81526020600482015260136024820152722137b73234b7339031bab93b329032b93937b960691b6044820152606401610bcd565b89898281811061277057612770612cc9565b6127869260206040909202019081019150612cff565b6001600160a01b03166328b8aee1858c8c858181106127a7576127a7612cc9565b90506040020160200135888a6001336040518763ffffffff1660e01b81526004016127d6959493929190612e89565b6020604051808303818588803b1580156127ef57600080fd5b505af1158015612803573d6000803e3d6000fd5b50505050506040513d601f19601f820116820180604052508101906128289190612e42565b6128329086612eb7565b9450600101612630565b60008083601f84011261284e57600080fd5b5081356001600160401b0381111561286557600080fd5b6020830191508360208260051b850101111561288057600080fd5b9250929050565b6001600160a01b0381168114611f7057600080fd5b6000806000806000608086880312156128b457600080fd5b85356001600160401b038111156128ca57600080fd5b6128d68882890161283c565b90965094505060208601356128ea81612887565b925060408601356128fa81612887565b949793965091946060013592915050565b60008060008060006080868803121561292357600080fd5b85356001600160401b0381111561293957600080fd5b6129458882890161283c565b9096509450506020860135925060408601356128fa81612887565b6000806000806060858703121561297657600080fd5b84356001600160401b0381111561298c57600080fd5b6129988782880161283c565b90955093505060208501356129ac81612887565b9396929550929360400135925050565b60008083601f8401126129ce57600080fd5b5081356001600160401b038111156129e557600080fd5b60208301915083602060608302850101111561288057600080fd5b600080600080600060808688031215612a1857600080fd5b85356001600160401b03811115612a2e57600080fd5b6128d6888289016129bc565b803560048110612a4957600080fd5b919050565b600080600080600060a08688031215612a6657600080fd5b8535612a7181612887565b94506020860135612a8181612887565b93506040860135612a9181612887565b925060608601359150612aa660808701612a3a565b90509295509295909350565b600060408284031215612ac457600080fd5b50919050565b600080600080600060a08688031215612ae257600080fd5b85356001600160401b03811115612af857600080fd5b612b0488828901612ab2565b95505060208601359350604086013592506060860135612b2381612887565b949793965091946080013592915050565b600060208284031215612b4657600080fd5b81356001600160401b03811115612b5c57600080fd5b820160a08185031215612b6e57600080fd5b9392505050565b600080600080600060a08688031215612b8d57600080fd5b85356001600160401b03811115612ba357600080fd5b612baf88828901612ab2565b955050602086013593506040860135612bc781612887565b92506060860135612b2381612887565b60008083601f840112612be957600080fd5b5081356001600160401b03811115612c0057600080fd5b6020830191508360208260061b850101111561288057600080fd5b600080600080600060808688031215612c3357600080fd5b85356001600160401b03811115612c4957600080fd5b61294588828901612bd7565b600080600080600060808688031215612c6d57600080fd5b85356001600160401b03811115612c8357600080fd5b612945888289016129bc565b600080600080600060808688031215612ca757600080fd5b85356001600160401b03811115612cbd57600080fd5b6128d688828901612bd7565b634e487b7160e01b600052603260045260246000fd5b60008235603e19833603018112612cf557600080fd5b9190910192915050565b600060208284031215612d1157600080fd5b8135612b6e81612887565b6000808335601e19843603018112612d3357600080fd5b8301803591506001600160401b03821115612d4d57600080fd5b6020019150600581901b360382131561288057600080fd5b600080600080600060a08688031215612d7d57600080fd5b855160038110612d8c57600080fd5b602087015160408801516060890151608090990151929a91995097965090945092505050565b634e487b7160e01b600052602160045260246000fd5b81835260006001600160fb1b03831115612de157600080fd5b8260051b8083602087013760009401602001938452509192915050565b60a081526000612e1260a08301888a612dc8565b6020830196909652506001600160a01b039384166040820152911515606083015290911660809091015292915050565b600060208284031215612e5457600080fd5b5051919050565b634e487b7160e01b600052601160045260246000fd5b60008219821115612e8457612e84612e5b565b500190565b94855260208501939093526001600160a01b0391821660408501521515606084015216608082015260a00190565b600082821015612ec957612ec9612e5b565b500390565b6001600160a01b03831681526040810160048310612efc57634e487b7160e01b600052602160045260246000fd5b8260208301529392505050565b600060208284031215612f1b57600080fd5b81518015158114612b6e57600080fd5b6000808335601e19843603018112612f4257600080fd5b8301803591506001600160401b03821115612f5c57600080fd5b6020019150600681901b360382131561288057600080fdfea26469706673582212202d220fdb9dbac781a3694aafca45a281eef99ad3915f2e307369b7a8b8a3bfca64736f6c63430008090033",
  "linkReferences": {},
  "deployedLinkReferences": {}
}