{
  "_format": "hh-sol-artifact-1",
  "contractName": "LSSVMPairEnumerableETH",
  "sourceName": "contracts/LSSVMPairEnumerableETH.sol",
  "abi": [
    {
      "inputs": [
        {
          "internalType": "enum CurveErrorCodes.Error",
          "name": "error",
          "type": "uint8"
        }
      ],
      "name": "BondingCurveError",
      "type": "error"
    },
    {
      "inputs": [],
      "name": "Ownable_NewOwnerZeroAddress",
      "type": "error"
    },
    {
      "inputs": [],
      "name": "Ownable_NotOwner",
      "type": "error"
    },
    {
      "anonymous": false,
      "inputs": [
        {
          "indexed": false,
          "internalType": "address",
          "name": "a",
          "type": "address"
        }
      ],
      "name": "AssetRecipientChange",
      "type": "event"
    },
    {
      "anonymous": false,
      "inputs": [
        {
          "indexed": false,
          "internalType": "uint128",
          "name": "newDelta",
          "type": "uint128"
        }
      ],
      "name": "DeltaUpdate",
      "type": "event"
    },
    {
      "anonymous": false,
      "inputs": [
        {
          "indexed": false,
          "internalType": "uint96",
          "name": "newFee",
          "type": "uint96"
        }
      ],
      "name": "FeeUpdate",
      "type": "event"
    },
    {
      "anonymous": false,
      "inputs": [],
      "name": "NFTWithdrawal",
      "type": "event"
    },
    {
      "anonymous": false,
      "inputs": [
        {
          "indexed": true,
          "internalType": "address",
          "name": "newOwner",
          "type": "address"
        }
      ],
      "name": "OwnershipTransferred",
      "type": "event"
    },
    {
      "anonymous": false,
      "inputs": [
        {
          "indexed": false,
          "internalType": "uint128",
          "name": "newSpotPrice",
          "type": "uint128"
        }
      ],
      "name": "SpotPriceUpdate",
      "type": "event"
    },
    {
      "anonymous": false,
      "inputs": [],
      "name": "SwapNFTInPair",
      "type": "event"
    },
    {
      "anonymous": false,
      "inputs": [],
      "name": "SwapNFTOutPair",
      "type": "event"
    },
    {
      "anonymous": false,
      "inputs": [
        {
          "indexed": false,
          "internalType": "uint256",
          "name": "amount",
          "type": "uint256"
        }
      ],
      "name": "TokenDeposit",
      "type": "event"
    },
    {
      "anonymous": false,
      "inputs": [
        {
          "indexed": false,
          "internalType": "uint256",
          "name": "amount",
          "type": "uint256"
        }
      ],
      "name": "TokenWithdrawal",
      "type": "event"
    },
    {
      "stateMutability": "payable",
      "type": "fallback"
    },
    {
      "inputs": [],
      "name": "assetRecipient",
      "outputs": [
        {
          "internalType": "address payable",
          "name": "",
          "type": "address"
        }
      ],
      "stateMutability": "view",
      "type": "function"
    },
    {
      "inputs": [],
      "name": "bondingCurve",
      "outputs": [
        {
          "internalType": "contract ICurve",
          "name": "_bondingCurve",
          "type": "address"
        }
      ],
      "stateMutability": "pure",
      "type": "function"
    },
    {
      "inputs": [
        {
          "internalType": "address payable",
          "name": "target",
          "type": "address"
        },
        {
          "internalType": "bytes",
          "name": "data",
          "type": "bytes"
        }
      ],
      "name": "call",
      "outputs": [],
      "stateMutability": "nonpayable",
      "type": "function"
    },
    {
      "inputs": [
        {
          "internalType": "address payable",
          "name": "newRecipient",
          "type": "address"
        }
      ],
      "name": "changeAssetRecipient",
      "outputs": [],
      "stateMutability": "nonpayable",
      "type": "function"
    },
    {
      "inputs": [
        {
          "internalType": "uint128",
          "name": "newDelta",
          "type": "uint128"
        }
      ],
      "name": "changeDelta",
      "outputs": [],
      "stateMutability": "nonpayable",
      "type": "function"
    },
    {
      "inputs": [
        {
          "internalType": "uint96",
          "name": "newFee",
          "type": "uint96"
        }
      ],
      "name": "changeFee",
      "outputs": [],
      "stateMutability": "nonpayable",
      "type": "function"
    },
    {
      "inputs": [
        {
          "internalType": "uint128",
          "name": "newSpotPrice",
          "type": "uint128"
        }
      ],
      "name": "changeSpotPrice",
      "outputs": [],
      "stateMutability": "nonpayable",
      "type": "function"
    },
    {
      "inputs": [],
      "name": "delta",
      "outputs": [
        {
          "internalType": "uint128",
          "name": "",
          "type": "uint128"
        }
      ],
      "stateMutability": "view",
      "type": "function"
    },
    {
      "inputs": [],
      "name": "factory",
      "outputs": [
        {
          "internalType": "contract ILSSVMPairFactoryLike",
          "name": "_factory",
          "type": "address"
        }
      ],
      "stateMutability": "pure",
      "type": "function"
    },
    {
      "inputs": [],
      "name": "fee",
      "outputs": [
        {
          "internalType": "uint96",
          "name": "",
          "type": "uint96"
        }
      ],
      "stateMutability": "view",
      "type": "function"
    },
    {
      "inputs": [],
      "name": "getAllHeldIds",
      "outputs": [
        {
          "internalType": "uint256[]",
          "name": "",
          "type": "uint256[]"
        }
      ],
      "stateMutability": "view",
      "type": "function"
    },
    {
      "inputs": [],
      "name": "getAssetRecipient",
      "outputs": [
        {
          "internalType": "address payable",
          "name": "_assetRecipient",
          "type": "address"
        }
      ],
      "stateMutability": "view",
      "type": "function"
    },
    {
      "inputs": [
        {
          "internalType": "uint256",
          "name": "numNFTs",
          "type": "uint256"
        }
      ],
      "name": "getBuyNFTQuote",
      "outputs": [
        {
          "internalType": "enum CurveErrorCodes.Error",
          "name": "error",
          "type": "uint8"
        },
        {
          "internalType": "uint256",
          "name": "newSpotPrice",
          "type": "uint256"
        },
        {
          "internalType": "uint256",
          "name": "newDelta",
          "type": "uint256"
        },
        {
          "internalType": "uint256",
          "name": "inputAmount",
          "type": "uint256"
        },
        {
          "internalType": "uint256",
          "name": "protocolFee",
          "type": "uint256"
        }
      ],
      "stateMutability": "view",
      "type": "function"
    },
    {
      "inputs": [
        {
          "internalType": "uint256",
          "name": "numNFTs",
          "type": "uint256"
        }
      ],
      "name": "getSellNFTQuote",
      "outputs": [
        {
          "internalType": "enum CurveErrorCodes.Error",
          "name": "error",
          "type": "uint8"
        },
        {
          "internalType": "uint256",
          "name": "newSpotPrice",
          "type": "uint256"
        },
        {
          "internalType": "uint256",
          "name": "newDelta",
          "type": "uint256"
        },
        {
          "internalType": "uint256",
          "name": "outputAmount",
          "type": "uint256"
        },
        {
          "internalType": "uint256",
          "name": "protocolFee",
          "type": "uint256"
        }
      ],
      "stateMutability": "view",
      "type": "function"
    },
    {
      "inputs": [
        {
          "internalType": "address",
          "name": "_owner",
          "type": "address"
        },
        {
          "internalType": "address payable",
          "name": "_assetRecipient",
          "type": "address"
        },
        {
          "internalType": "uint128",
          "name": "_delta",
          "type": "uint128"
        },
        {
          "internalType": "uint96",
          "name": "_fee",
          "type": "uint96"
        },
        {
          "internalType": "uint128",
          "name": "_spotPrice",
          "type": "uint128"
        }
      ],
      "name": "initialize",
      "outputs": [],
      "stateMutability": "payable",
      "type": "function"
    },
    {
      "inputs": [
        {
          "internalType": "bytes[]",
          "name": "calls",
          "type": "bytes[]"
        },
        {
          "internalType": "bool",
          "name": "revertOnFail",
          "type": "bool"
        }
      ],
      "name": "multicall",
      "outputs": [],
      "stateMutability": "nonpayable",
      "type": "function"
    },
    {
      "inputs": [],
      "name": "nft",
      "outputs": [
        {
          "internalType": "contract IERC721",
          "name": "_nft",
          "type": "address"
        }
      ],
      "stateMutability": "pure",
      "type": "function"
    },
    {
      "inputs": [
        {
          "internalType": "address",
          "name": "",
          "type": "address"
        },
        {
          "internalType": "address",
          "name": "",
          "type": "address"
        },
        {
          "internalType": "uint256[]",
          "name": "",
          "type": "uint256[]"
        },
        {
          "internalType": "uint256[]",
          "name": "",
          "type": "uint256[]"
        },
        {
          "internalType": "bytes",
          "name": "",
          "type": "bytes"
        }
      ],
      "name": "onERC1155BatchReceived",
      "outputs": [
        {
          "internalType": "bytes4",
          "name": "",
          "type": "bytes4"
        }
      ],
      "stateMutability": "nonpayable",
      "type": "function"
    },
    {
      "inputs": [
        {
          "internalType": "address",
          "name": "",
          "type": "address"
        },
        {
          "internalType": "address",
          "name": "",
          "type": "address"
        },
        {
          "internalType": "uint256",
          "name": "",
          "type": "uint256"
        },
        {
          "internalType": "uint256",
          "name": "",
          "type": "uint256"
        },
        {
          "internalType": "bytes",
          "name": "",
          "type": "bytes"
        }
      ],
      "name": "onERC1155Received",
      "outputs": [
        {
          "internalType": "bytes4",
          "name": "",
          "type": "bytes4"
        }
      ],
      "stateMutability": "nonpayable",
      "type": "function"
    },
    {
      "inputs": [
        {
          "internalType": "address",
          "name": "",
          "type": "address"
        },
        {
          "internalType": "address",
          "name": "",
          "type": "address"
        },
        {
          "internalType": "uint256",
          "name": "",
          "type": "uint256"
        },
        {
          "internalType": "bytes",
          "name": "",
          "type": "bytes"
        }
      ],
      "name": "onERC721Received",
      "outputs": [
        {
          "internalType": "bytes4",
          "name": "",
          "type": "bytes4"
        }
      ],
      "stateMutability": "nonpayable",
      "type": "function"
    },
    {
      "inputs": [],
      "name": "owner",
      "outputs": [
        {
          "internalType": "address",
          "name": "",
          "type": "address"
        }
      ],
      "stateMutability": "view",
      "type": "function"
    },
    {
      "inputs": [],
      "name": "pairVariant",
      "outputs": [
        {
          "internalType": "enum ILSSVMPairFactoryLike.PairVariant",
          "name": "",
          "type": "uint8"
        }
      ],
      "stateMutability": "pure",
      "type": "function"
    },
    {
      "inputs": [],
      "name": "poolType",
      "outputs": [
        {
          "internalType": "enum LSSVMPair.PoolType",
          "name": "_poolType",
          "type": "uint8"
        }
      ],
      "stateMutability": "pure",
      "type": "function"
    },
    {
      "inputs": [],
      "name": "spotPrice",
      "outputs": [
        {
          "internalType": "uint128",
          "name": "",
          "type": "uint128"
        }
      ],
      "stateMutability": "view",
      "type": "function"
    },
    {
      "inputs": [
        {
          "internalType": "bytes4",
          "name": "interfaceId",
          "type": "bytes4"
        }
      ],
      "name": "supportsInterface",
      "outputs": [
        {
          "internalType": "bool",
          "name": "",
          "type": "bool"
        }
      ],
      "stateMutability": "view",
      "type": "function"
    },
    {
      "inputs": [
        {
          "internalType": "uint256[]",
          "name": "nftIds",
          "type": "uint256[]"
        },
        {
          "internalType": "uint256",
          "name": "minExpectedTokenOutput",
          "type": "uint256"
        },
        {
          "internalType": "address payable",
          "name": "tokenRecipient",
          "type": "address"
        },
        {
          "internalType": "bool",
          "name": "isRouter",
          "type": "bool"
        },
        {
          "internalType": "address",
          "name": "routerCaller",
          "type": "address"
        }
      ],
      "name": "swapNFTsForToken",
      "outputs": [
        {
          "internalType": "uint256",
          "name": "outputAmount",
          "type": "uint256"
        }
      ],
      "stateMutability": "nonpayable",
      "type": "function"
    },
    {
      "inputs": [
        {
          "internalType": "uint256",
          "name": "numNFTs",
          "type": "uint256"
        },
        {
          "internalType": "uint256",
          "name": "maxExpectedTokenInput",
          "type": "uint256"
        },
        {
          "internalType": "address",
          "name": "nftRecipient",
          "type": "address"
        },
        {
          "internalType": "bool",
          "name": "isRouter",
          "type": "bool"
        },
        {
          "internalType": "address",
          "name": "routerCaller",
          "type": "address"
        }
      ],
      "name": "swapTokenForAnyNFTs",
      "outputs": [
        {
          "internalType": "uint256",
          "name": "inputAmount",
          "type": "uint256"
        }
      ],
      "stateMutability": "payable",
      "type": "function"
    },
    {
      "inputs": [
        {
          "internalType": "uint256[]",
          "name": "nftIds",
          "type": "uint256[]"
        },
        {
          "internalType": "uint256",
          "name": "maxExpectedTokenInput",
          "type": "uint256"
        },
        {
          "internalType": "address",
          "name": "nftRecipient",
          "type": "address"
        },
        {
          "internalType": "bool",
          "name": "isRouter",
          "type": "bool"
        },
        {
          "internalType": "address",
          "name": "routerCaller",
          "type": "address"
        }
      ],
      "name": "swapTokenForSpecificNFTs",
      "outputs": [
        {
          "internalType": "uint256",
          "name": "inputAmount",
          "type": "uint256"
        }
      ],
      "stateMutability": "payable",
      "type": "function"
    },
    {
      "inputs": [
        {
          "internalType": "address",
          "name": "newOwner",
          "type": "address"
        }
      ],
      "name": "transferOwnership",
      "outputs": [],
      "stateMutability": "nonpayable",
      "type": "function"
    },
    {
      "inputs": [],
      "name": "withdrawAllETH",
      "outputs": [],
      "stateMutability": "nonpayable",
      "type": "function"
    },
    {
      "inputs": [
        {
          "internalType": "contract IERC1155",
          "name": "a",
          "type": "address"
        },
        {
          "internalType": "uint256[]",
          "name": "ids",
          "type": "uint256[]"
        },
        {
          "internalType": "uint256[]",
          "name": "amounts",
          "type": "uint256[]"
        }
      ],
      "name": "withdrawERC1155",
      "outputs": [],
      "stateMutability": "nonpayable",
      "type": "function"
    },
    {
      "inputs": [
        {
          "internalType": "contract ERC20",
          "name": "a",
          "type": "address"
        },
        {
          "internalType": "uint256",
          "name": "amount",
          "type": "uint256"
        }
      ],
      "name": "withdrawERC20",
      "outputs": [],
      "stateMutability": "nonpayable",
      "type": "function"
    },
    {
      "inputs": [
        {
          "internalType": "contract IERC721",
          "name": "a",
          "type": "address"
        },
        {
          "internalType": "uint256[]",
          "name": "nftIds",
          "type": "uint256[]"
        }
      ],
      "name": "withdrawERC721",
      "outputs": [],
      "stateMutability": "nonpayable",
      "type": "function"
    },
    {
      "inputs": [
        {
          "internalType": "uint256",
          "name": "amount",
          "type": "uint256"
        }
      ],
      "name": "withdrawETH",
      "outputs": [],
      "stateMutability": "nonpayable",
      "type": "function"
    },
    {
      "stateMutability": "payable",
      "type": "receive"
    }
  ],
  "bytecode": "0x608060405234801561001057600080fd5b50613a13806100206000396000f3fe6080604052600436106101fd5760003560e01c80638da5cb5b1161010d578063c45a0155116100a0578063f14210a61161006f578063f14210a614610684578063f23a6e61146106a4578063f2fde38b146106d0578063f4629549146106f0578063fd17aef91461071057610238565b8063c45a015514610602578063d8a1890c14610617578063ddca3f4314610637578063eff1d50e1461066f57610238565b8063a5ceac99116100dc578063a5ceac9914610574578063b1d3f1c114610594578063b1dd61b6146105b4578063bc197c81146105d657610238565b80638da5cb5b1461050157806390386bbf1461051f578063a1db978214610534578063a5cb2b911461055457610238565b80632f4fefaf1161019057806347ccca021161015f57806347ccca021461047e5780636809f664146104995780636b7a2200146104b95780636d8b99f7146104d957806379eac6c2146104ec57610238565b80632f4fefaf146103e15780633053fc5814610403578063398482d81461041f5780633bfa67fe1461043f57610238565b8063150b7a02116101cc578063150b7a021461033c5780631b8b921d146103805780631e9701d4146103a057806328b8aee1146103c057610238565b806301ffc9a7146102755780630c295e56146102aa57806312b495a8146102db57806313edab811461031a57610238565b36610238576040513481527ff1b3be8dace0fecfbdb6fb0fa1cc014c612bcb1b46db027c1ece5fc11fff09d6906020015b60405180910390a1005b603d361461024557600080fd5b6040513481527ff1b3be8dace0fecfbdb6fb0fa1cc014c612bcb1b46db027c1ece5fc11fff09d69060200161022e565b34801561028157600080fd5b50610295610290366004612e0a565b610723565b60405190151581526020015b60405180910390f35b3480156102b657600080fd5b506102ca6102c5366004612e3b565b61075a565b6040516102a1959493929190612e7a565b3480156102e757600080fd5b5060025461030290600160801b90046001600160801b031681565b6040516001600160801b0390911681526020016102a1565b34801561032657600080fd5b5061033a610335366004612f08565b6108ac565b005b34801561034857600080fd5b5061036761035736600461301f565b630a85bd0160e11b949350505050565b6040516001600160e01b031990911681526020016102a1565b34801561038c57600080fd5b5061033a61039b36600461308a565b6109a7565b3480156103ac57600080fd5b5061033a6103bb36600461311c565b610b5f565b6103d36103ce366004613172565b610cdb565b6040519081526020016102a1565b3480156103ed57600080fd5b506103f6610eca565b6040516102a191906131d1565b34801561040f57600080fd5b5060006040516102a19190613229565b34801561042b57600080fd5b50600254610302906001600160801b031681565b34801561044b57600080fd5b5060035461046690600160601b90046001600160a01b031681565b6040516001600160a01b0390911681526020016102a1565b34801561048a57600080fd5b5036601419013560601c610466565b3480156104a557600080fd5b5061033a6104b436600461324c565b611051565b3480156104c557600080fd5b5061033a6104d4366004613285565b6111d1565b6103d36104e73660046132a0565b611337565b3480156104f857600080fd5b5061046661148e565b34801561050d57600080fd5b506000546001600160a01b0316610466565b34801561052b57600080fd5b5061033a6114d5565b34801561054057600080fd5b5061033a61054f366004613324565b61151a565b34801561056057600080fd5b506102ca61056f366004612e3b565b611568565b34801561058057600080fd5b5061033a61058f366004613350565b6115ba565b3480156105a057600080fd5b506103d36105af3660046132a0565b611663565b3480156105c057600080fd5b506105c96117ba565b6040516102a191906133d2565b3480156105e257600080fd5b506103676105f1366004613464565b63bc197c8160e01b95945050505050565b34801561060e57600080fd5b506104666117c6565b34801561062357600080fd5b5061033a61063236600461324c565b6117d2565b34801561064357600080fd5b50600354610657906001600160601b031681565b6040516001600160601b0390911681526020016102a1565b34801561067b57600080fd5b50610466611948565b34801561069057600080fd5b5061033a61069f366004612e3b565b611954565b3480156106b057600080fd5b506103676106bf366004613511565b63f23a6e6160e01b95945050505050565b3480156106dc57600080fd5b5061033a6106eb366004613579565b6119e9565b3480156106fc57600080fd5b5061033a61070b366004613579565b611ae6565b61033a61071e366004613596565b611bf6565b60006001600160e01b03198216630271189760e51b148061075457506301ffc9a760e01b6001600160e01b03198316145b92915050565b600080600080600061076a611948565b6002546003546001600160a01b03929092169163097cc63d916001600160801b0380821692600160801b90920416908a906001600160601b03166107ac6117c6565b6001600160a01b0316631ce4c78b6040518163ffffffff1660e01b815260040160206040518083038186803b1580156107e457600080fd5b505afa1580156107f8573d6000803e3d6000fd5b505050506040513d601f19601f8201168201806040525081019061081c91906135f7565b6040518663ffffffff1660e01b815260040161083c959493929190613610565b60a06040518083038186803b15801561085457600080fd5b505afa158015610868573d6000803e3d6000fd5b505050506040513d601f19601f8201168201806040525081019061088c919061364a565b939a6001600160801b039384169a50919092169750909550909350915050565b336108bf6000546001600160a01b031690565b6001600160a01b0316146108e657604051635eee3ad160e01b815260040160405180910390fd5b8060005b8181101561097757846001600160a01b03166342842e0e3033878786818110610915576109156136ac565b905060200201356040518463ffffffff1660e01b815260040161093a939291906136c2565b600060405180830381600087803b15801561095457600080fd5b505af1158015610968573d6000803e3d6000fd5b505050508060010190506108ea565b506040517f242b9b8fb5c0e6298454fcf80a0fbcbb7308620133d92b50091a1f64cee790e890600090a150505050565b336109ba6000546001600160a01b031690565b6001600160a01b0316146109e157604051635eee3ad160e01b815260040160405180910390fd5b60006109eb6117c6565b6040516303f752bd60e31b81526001600160a01b03868116600483015291925090821690631fba95e89060240160206040518083038186803b158015610a3057600080fd5b505afa158015610a44573d6000803e3d6000fd5b505050506040513d601f19601f82011682018060405250810190610a6891906136e6565b610ab95760405162461bcd60e51b815260206004820152601a60248201527f546172676574206d7573742062652077686974656c697374656400000000000060448201526064015b60405180910390fd5b6000846001600160a01b031660008585604051610ad7929190613703565b60006040518083038185875af1925050503d8060008114610b14576040519150601f19603f3d011682016040523d82523d6000602084013e610b19565b606091505b5050905080610b585760405162461bcd60e51b815260206004820152600b60248201526a10d85b1b0819985a5b195960aa1b6044820152606401610ab0565b5050505050565b33610b726000546001600160a01b031690565b6001600160a01b031614610b9957604051635eee3ad160e01b815260040160405180910390fd5b60005b82811015610c5b5760008030868685818110610bba57610bba6136ac565b9050602002810190610bcc9190613713565b604051610bda929190613703565b600060405180830381855af49150503d8060008114610c15576040519150601f19603f3d011682016040523d82523d6000602084013e610c1a565b606091505b509150915081158015610c2a5750835b15610c5157610c3881611ff6565b60405162461bcd60e51b8152600401610ab09190613785565b5050600101610b9c565b5033610c6f6000546001600160a01b031690565b6001600160a01b031614610cd65760405162461bcd60e51b815260206004820152602860248201527f4f776e6572736869702063616e6e6f74206265206368616e67656420696e206d6044820152671d5b1d1a58d85b1b60c21b6064820152608401610ab0565b505050565b600060026001541415610d005760405162461bcd60e51b8152600401610ab0906137b8565b60026001556000610d0f6117c6565b90506000610d1b611948565b905060141936013560601c6000610d306117ba565b90506001816002811115610d4657610d46612e54565b1480610d6357506002816002811115610d6157610d61612e54565b145b610d7f5760405162461bcd60e51b8152600401610ab0906137ef565b60008a118015610e0557506040516370a0823160e01b81523060048201526001600160a01b038316906370a082319060240160206040518083038186803b158015610dc957600080fd5b505afa158015610ddd573d6000803e3d6000fd5b505050506040513d601f19601f82011682018060405250810190610e0191906135f7565b8a11155b610e5b5760405162461bcd60e51b815260206004820152602160248201527f41736b20666f72203e203020616e64203c3d2062616c616e63654f66204e46546044820152607360f81b6064820152608401610ab0565b506000610e6a8a8a8587612055565b95509050610e7b8588888785612328565b610e8682898c6123da565b610e8f85612564565b6040517fbc479dfc6cb9c1a9d880f987ee4b30fa43dd7f06aec121db685b67d587c93c9390600090a150506001805550909695505050505050565b60606000366014190135821c6040516370a0823160e01b81523060048201529091506000906001600160a01b038316906370a082319060240160206040518083038186803b158015610f1b57600080fd5b505afa158015610f2f573d6000803e3d6000fd5b505050506040513d601f19601f82011682018060405250810190610f5391906135f7565b90506000816001600160401b03811115610f6f57610f6f612f5c565b604051908082528060200260200182016040528015610f98578160200160208202803683370190505b50905060005b8281101561104957604051632f745c5960e01b8152306004820152602481018290526001600160a01b03851690632f745c599060440160206040518083038186803b158015610fec57600080fd5b505afa158015611000573d6000803e3d6000fd5b505050506040513d601f19601f8201168201806040525081019061102491906135f7565b828281518110611036576110366136ac565b6020908102919091010152600101610f9e565b509392505050565b336110646000546001600160a01b031690565b6001600160a01b03161461108b57604051635eee3ad160e01b815260040160405180910390fd5b6000611095611948565b6040516302b99f3360e21b81526001600160801b03841660048201529091506001600160a01b03821690630ae67ccc9060240160206040518083038186803b1580156110e057600080fd5b505afa1580156110f4573d6000803e3d6000fd5b505050506040513d601f19601f8201168201806040525081019061111891906136e6565b61115e5760405162461bcd60e51b8152602060048201526017602482015276496e76616c69642064656c746120666f7220637572766560481b6044820152606401610ab0565b6002546001600160801b03838116600160801b90920416146111cd57600280546001600160801b03908116600160801b918516918202179091556040519081527fc958ae052d28f8d17bc2c4ddbabb699a3cab5cccefd034d0fc971efdadc01da5906020015b60405180910390a15b5050565b336111e46000546001600160a01b031690565b6001600160a01b03161461120b57604051635eee3ad160e01b815260040160405180910390fd5b60006112156117ba565b9050600281600281111561122b5761122b612e54565b1461126f5760405162461bcd60e51b81526020600482015260146024820152734f6e6c7920666f7220547261646520706f6f6c7360601b6044820152606401610ab0565b670c7d713b49da0000826001600160601b0316106112cf5760405162461bcd60e51b815260206004820152601f60248201527f547261646520666565206d757374206265206c657373207468616e20393025006044820152606401610ab0565b6003546001600160601b038381169116146111cd57600380546bffffffffffffffffffffffff19166001600160601b0384169081179091556040519081527f66c55c30868c51e7ad52e3d85d1403576a9967614e67c48e25b55a10baa650c0906020016111c4565b60006002600154141561135c5760405162461bcd60e51b8152600401610ab0906137b8565b6002600155600061136b6117c6565b90506000611377611948565b905060006113836117ba565b9050600181600281111561139957611399612e54565b14806113b6575060028160028111156113b4576113b4612e54565b145b6113d25760405162461bcd60e51b8152600401610ab0906137ef565b886114175760405162461bcd60e51b81526020600482015260156024820152744d7573742061736b20666f72203e2030204e46547360581b6044820152606401610ab0565b50600061142689898486612055565b945090506114378487878685612328565b61144b36601419013560601c888c8c612580565b61145484612564565b6040517fbc479dfc6cb9c1a9d880f987ee4b30fa43dd7f06aec121db685b67d587c93c9390600090a1505060018055509695505050505050565b6000600261149a6117ba565b60028111156114ab576114ab612e54565b14156114b657503090565b50600354600160601b90046001600160a01b0316806114d25750305b90565b336114e86000546001600160a01b031690565b6001600160a01b03161461150f57604051635eee3ad160e01b815260040160405180910390fd5b61151847611954565b565b3361152d6000546001600160a01b031690565b6001600160a01b03161461155457604051635eee3ad160e01b815260040160405180910390fd5b6111cd6001600160a01b0383163383612611565b6000806000806000611578611948565b6002546003546001600160a01b039290921691637ca542ac916001600160801b0380821692600160801b90920416908a906001600160601b03166107ac6117c6565b336115cd6000546001600160a01b031690565b6001600160a01b0316146115f457604051635eee3ad160e01b815260040160405180910390fd5b604051631759616b60e11b81526001600160a01b03861690632eb2c2d69061162a9030903390899089908990899060040161384e565b600060405180830381600087803b15801561164457600080fd5b505af1158015611658573d6000803e3d6000fd5b505050505050505050565b6000600260015414156116885760405162461bcd60e51b8152600401610ab0906137b8565b600260015560006116976117c6565b905060006116a3611948565b905060006116af6117ba565b905060008160028111156116c5576116c5612e54565b14806116e2575060028160028111156116e0576116e0612e54565b145b6116fe5760405162461bcd60e51b8152600401610ab0906137ef565b886117435760405162461bcd60e51b81526020600482015260156024820152744d7573742061736b20666f72203e2030204e46547360581b6044820152606401610ab0565b5060006117528989848661268f565b94509050611760878561285a565b61176a8382612873565b61178036601419013560601c8b8b868a8a61289c565b6040517f3614eb567740a0ee3897c0e2b11ad6a5720d2e4438f9c8accf6c95c24af3a47090600090a1505060018055509695505050505050565b60001936013560f81c90565b603c1936013560601c90565b336117e56000546001600160a01b031690565b6001600160a01b03161461180c57604051635eee3ad160e01b815260040160405180910390fd5b6000611816611948565b604051631437765d60e31b81526001600160801b03841660048201529091506001600160a01b0382169063a1bbb2e89060240160206040518083038186803b15801561186157600080fd5b505afa158015611875573d6000803e3d6000fd5b505050506040513d601f19601f8201168201806040525081019061189991906136e6565b6118e55760405162461bcd60e51b815260206004820181905260248201527f496e76616c6964206e65772073706f7420707269636520666f722063757276656044820152606401610ab0565b6002546001600160801b038381169116146111cd57600280546001600160801b0319166001600160801b0384169081179091556040519081527ff06180fdbe95e5193df4dcd1352726b1f04cb58599ce58552cc952447af2ffbb906020016111c4565b60281936013560601c90565b336119676000546001600160a01b031690565b6001600160a01b03161461198e57604051635eee3ad160e01b815260040160405180910390fd5b6119b3816119a46000546001600160a01b031690565b6001600160a01b031690612d71565b6040518181527f0e266e8f38544aa1480d73762386eb10df55b1b8453d935762e891c44b69a1e69060200160405180910390a150565b336119fc6000546001600160a01b031690565b6001600160a01b031614611a2357604051635eee3ad160e01b815260040160405180910390fd5b6001600160a01b038116611a4a57604051633b7c6c7f60e21b815260040160405180910390fd5b611a5381612dc2565b6001600160a01b0381163b15611ae3576040516314e8368d60e31b81523360048201526001600160a01b0382169063a741b46890602401600060405180830381600087803b158015611aa457600080fd5b505af1925050508015611ab5575060015b611ae3573d808015610cd6576040519150601f19603f3d011682016040523d82523d6000602084013e505050565b50565b33611af96000546001600160a01b031690565b6001600160a01b031614611b2057604051635eee3ad160e01b815260040160405180910390fd5b6000611b2a6117ba565b90506002816002811115611b4057611b40612e54565b1415611b845760405162461bcd60e51b81526020600482015260136024820152724e6f7420666f7220547261646520706f6f6c7360681b6044820152606401610ab0565b6003546001600160a01b03838116600160601b90920416146111cd57600380546001600160601b0316600160601b6001600160a01b038516908102919091179091556040519081527f678f61dcdee86474eddea0407caf8f1f5130382a90dedabaef94906ed86a27b4906020016111c4565b6000546001600160a01b031615611c3d5760405162461bcd60e51b815260206004820152600b60248201526a125b9a5d1a585b1a5e995960aa1b6044820152606401610ab0565b600080546001600160a01b0319166001600160a01b038716179055611c6160018055565b6000611c6b611948565b90506000611c776117ba565b90506000816002811115611c8d57611c8d612e54565b1480611caa57506001816002811115611ca857611ca8612e54565b145b15611d39576001600160601b03841615611d145760405162461bcd60e51b815260206004820152602560248201527f4f6e6c7920547261646520506f6f6c732063616e2068617665206e6f6e7a65726044820152646f2066656560d81b6064820152608401610ab0565b600380546001600160601b0316600160601b6001600160a01b03891602179055611e39565b6002816002811115611d4d57611d4d612e54565b1415611e3957670c7d713b49da0000846001600160601b031610611db35760405162461bcd60e51b815260206004820152601f60248201527f547261646520666565206d757374206265206c657373207468616e20393025006044820152606401610ab0565b6001600160a01b03861615611e185760405162461bcd60e51b815260206004820152602560248201527f547261646520706f6f6c732063616e27742073657420617373657420726563696044820152641c1a595b9d60da1b6064820152608401610ab0565b600380546bffffffffffffffffffffffff19166001600160601b0386161790555b6040516302b99f3360e21b81526001600160801b03861660048201526001600160a01b03831690630ae67ccc9060240160206040518083038186803b158015611e8157600080fd5b505afa158015611e95573d6000803e3d6000fd5b505050506040513d601f19601f82011682018060405250810190611eb991906136e6565b611eff5760405162461bcd60e51b8152602060048201526017602482015276496e76616c69642064656c746120666f7220637572766560481b6044820152606401610ab0565b604051631437765d60e31b81526001600160801b03841660048201526001600160a01b0383169063a1bbb2e89060240160206040518083038186803b158015611f4757600080fd5b505afa158015611f5b573d6000803e3d6000fd5b505050506040513d601f19601f82011682018060405250810190611f7f91906136e6565b611fcb5760405162461bcd60e51b815260206004820181905260248201527f496e76616c6964206e65772073706f7420707269636520666f722063757276656044820152606401610ab0565b50506001600160801b039081169216600160801b026001600160801b03191691909117600255505050565b606060448251101561203b57505060408051808201909152601d81527f5472616e73616374696f6e2072657665727465642073696c656e746c79000000602082015290565b6004820191508180602001905181019061075491906138ad565b600080600080600260009054906101000a90046001600160801b03169050600080600260109054906101000a90046001600160801b031690506000886001600160a01b0316637ca542ac85848e600360009054906101000a90046001600160601b03168d6001600160a01b0316631ce4c78b6040518163ffffffff1660e01b815260040160206040518083038186803b1580156120f157600080fd5b505afa158015612105573d6000803e3d6000fd5b505050506040513d601f19601f8201168201806040525081019061212991906135f7565b6040518663ffffffff1660e01b8152600401612149959493929190613610565b60a06040518083038186803b15801561216157600080fd5b505afa158015612175573d6000803e3d6000fd5b505050506040513d601f19601f82011682018060405250810190612199919061364a565b9a5098509196509350905060008560028111156121b8576121b8612e54565b146121d8578460405163393cb16b60e21b8152600401610ab091906133d2565b8986111561221d5760405162461bcd60e51b8152602060048201526012602482015271496e20746f6f206d616e7920746f6b656e7360701b6044820152606401610ab0565b826001600160801b0316846001600160801b03161415806122505750806001600160801b0316826001600160801b031614155b1561226e576001600160801b03818116600160801b02908416176002555b826001600160801b0316846001600160801b0316146122c4576040516001600160801b03841681527ff06180fdbe95e5193df4dcd1352726b1f04cb58599ce58552cc952447af2ffbb9060200160405180910390a15b806001600160801b0316826001600160801b03161461231a576040516001600160801b03821681527fc958ae052d28f8d17bc2c4ddbabb699a3cab5cccefd034d0fc971efdadc01da59060200160405180910390a15b505050505094509492505050565b8434101561236e5760405162461bcd60e51b81526020600482015260136024820152720a6cadce840e8dede40d8d2e8e8d8ca408aa89606b1b6044820152606401610ab0565b600061237861148e565b90506001600160a01b03811630146123a7576123a76123978388613923565b6001600160a01b03831690612d71565b81156123d257478211156123b9574791505b81156123d2576123d26001600160a01b03841683612d71565b505050505050565b6040516370a0823160e01b81523060048201526000906001906001600160a01b038616906370a082319060240160206040518083038186803b15801561241f57600080fd5b505afa158015612433573d6000803e3d6000fd5b505050506040513d601f19601f8201168201806040525081019061245791906135f7565b6124619190613923565b905060005b82811015610b5857604051632f745c5960e01b8152306004820152602481018390526000906001600160a01b03871690632f745c599060440160206040518083038186803b1580156124b757600080fd5b505afa1580156124cb573d6000803e3d6000fd5b505050506040513d601f19601f820116820180604052508101906124ef91906135f7565b604051632142170760e11b81529091506001600160a01b038716906342842e0e90612522903090899086906004016136c2565b600060405180830381600087803b15801561253c57600080fd5b505af1158015612550573d6000803e3d6000fd5b505060001990940193505050600101612466565b80341115611ae357611ae36125798234613923565b3390612d71565b8060005b818110156123d257856001600160a01b03166342842e0e30878787868181106125af576125af6136ac565b905060200201356040518463ffffffff1660e01b81526004016125d4939291906136c2565b600060405180830381600087803b1580156125ee57600080fd5b505af1158015612602573d6000803e3d6000fd5b50505050806001019050612584565b600060405163a9059cbb60e01b8152836004820152826024820152602060006044836000895af13d15601f3d11600160005114161716915050806126895760405162461bcd60e51b815260206004820152600f60248201526e1514905394d1915497d19052531151608a1b6044820152606401610ab0565b50505050565b600080600080600260009054906101000a90046001600160801b03169050600080600260109054906101000a90046001600160801b031690506000886001600160a01b031663097cc63d85848e600360009054906101000a90046001600160601b03168d6001600160a01b0316631ce4c78b6040518163ffffffff1660e01b815260040160206040518083038186803b15801561272b57600080fd5b505afa15801561273f573d6000803e3d6000fd5b505050506040513d601f19601f8201168201806040525081019061276391906135f7565b6040518663ffffffff1660e01b8152600401612783959493929190613610565b60a06040518083038186803b15801561279b57600080fd5b505afa1580156127af573d6000803e3d6000fd5b505050506040513d601f19601f820116820180604052508101906127d3919061364a565b9a5098509196509350905060008560028111156127f2576127f2612e54565b14612812578460405163393cb16b60e21b8152600401610ab091906133d2565b8986101561221d5760405162461bcd60e51b81526020600482015260156024820152744f757420746f6f206c6974746c6520746f6b656e7360581b6044820152606401610ab0565b80156111cd576111cd6001600160a01b03831682612d71565b80156111cd574781111561285a57504780156111cd576111cd6001600160a01b03831682612d71565b60006128a661148e565b9050848315612cd75760405163a93ec68b60e01b81523360048201819052906000906001600160a01b0388169063a93ec68b90602401604080518083038186803b1580156128f357600080fd5b505afa158015612907573d6000803e3d6000fd5b505050506040513d601f19601f8201168201806040525081019061292b9190613948565b509050806129685760405162461bcd60e51b815260206004820152600a6024820152692737ba103937baba32b960b11b6044820152606401610ab0565b6001831115612b5d576040516370a0823160e01b81526001600160a01b038581166004830152600091908c16906370a082319060240160206040518083038186803b1580156129b657600080fd5b505afa1580156129ca573d6000803e3d6000fd5b505050506040513d601f19601f820116820180604052508101906129ee91906135f7565b905060005b84811015612a8b57836001600160a01b031663748ff3398d89898f8f87818110612a1f57612a1f6136ac565b90506020020135612a2e600090565b6040518663ffffffff1660e01b8152600401612a4e959493929190613982565b600060405180830381600087803b158015612a6857600080fd5b505af1158015612a7c573d6000803e3d6000fd5b505050508060010190506129f3565b506040516370a0823160e01b81526001600160a01b038681166004830152859183918e16906370a082319060240160206040518083038186803b158015612ad157600080fd5b505afa158015612ae5573d6000803e3d6000fd5b505050506040513d601f19601f82011682018060405250810190612b0991906135f7565b612b139190613923565b14612b575760405162461bcd60e51b81526020600482015260146024820152731391951cc81b9bdd081d1c985b9cd9995c9c995960621b6044820152606401610ab0565b50612cd0565b816001600160a01b031663748ff3398b87878d8d6000818110612b8257612b826136ac565b90506020020135612b91600090565b6040518663ffffffff1660e01b8152600401612bb1959493929190613982565b600060405180830381600087803b158015612bcb57600080fd5b505af1158015612bdf573d6000803e3d6000fd5b50505050836001600160a01b03168a6001600160a01b0316636352211e8b8b6000818110612c0f57612c0f6136ac565b905060200201356040518263ffffffff1660e01b8152600401612c3491815260200190565b60206040518083038186803b158015612c4c57600080fd5b505afa158015612c60573d6000803e3d6000fd5b505050506040513d601f19601f82011682018060405250810190612c8491906139c0565b6001600160a01b031614612cd05760405162461bcd60e51b8152602060048201526013602482015272139195081b9bdd081d1c985b9cd9995c9c9959606a1b6044820152606401610ab0565b5050612d67565b60005b8181101561165857886001600160a01b03166342842e0e33858b8b86818110612d0557612d056136ac565b905060200201356040518463ffffffff1660e01b8152600401612d2a939291906136c2565b600060405180830381600087803b158015612d4457600080fd5b505af1158015612d58573d6000803e3d6000fd5b50505050806001019050612cda565b5050505050505050565b600080600080600085875af1905080610cd65760405162461bcd60e51b815260206004820152601360248201527211551217d514905394d1915497d19052531151606a1b6044820152606401610ab0565b600080546001600160a01b0319166001600160a01b038316908117825560405190917f04dba622d284ed0014ee4b9a6a68386be1a4c08a4913ae272de89199cc68616391a250565b600060208284031215612e1c57600080fd5b81356001600160e01b031981168114612e3457600080fd5b9392505050565b600060208284031215612e4d57600080fd5b5035919050565b634e487b7160e01b600052602160045260246000fd5b60038110611ae357611ae3612e54565b60a08101612e8787612e6a565b95815260208101949094526040840192909252606083015260809091015290565b6001600160a01b0381168114611ae357600080fd5b60008083601f840112612ecf57600080fd5b5081356001600160401b03811115612ee657600080fd5b6020830191508360208260051b8501011115612f0157600080fd5b9250929050565b600080600060408486031215612f1d57600080fd5b8335612f2881612ea8565b925060208401356001600160401b03811115612f4357600080fd5b612f4f86828701612ebd565b9497909650939450505050565b634e487b7160e01b600052604160045260246000fd5b604051601f8201601f191681016001600160401b0381118282101715612f9a57612f9a612f5c565b604052919050565b60006001600160401b03821115612fbb57612fbb612f5c565b50601f01601f191660200190565b600082601f830112612fda57600080fd5b8135612fed612fe882612fa2565b612f72565b81815284602083860101111561300257600080fd5b816020850160208301376000918101602001919091529392505050565b6000806000806080858703121561303557600080fd5b843561304081612ea8565b9350602085013561305081612ea8565b92506040850135915060608501356001600160401b0381111561307257600080fd5b61307e87828801612fc9565b91505092959194509250565b60008060006040848603121561309f57600080fd5b83356130aa81612ea8565b925060208401356001600160401b03808211156130c657600080fd5b818601915086601f8301126130da57600080fd5b8135818111156130e957600080fd5b8760208285010111156130fb57600080fd5b6020830194508093505050509250925092565b8015158114611ae357600080fd5b60008060006040848603121561313157600080fd5b83356001600160401b0381111561314757600080fd5b61315386828701612ebd565b90945092505060208401356131678161310e565b809150509250925092565b600080600080600060a0868803121561318a57600080fd5b853594506020860135935060408601356131a381612ea8565b925060608601356131b38161310e565b915060808601356131c381612ea8565b809150509295509295909350565b6020808252825182820181905260009190848201906040850190845b81811015613209578351835292840192918401916001016131ed565b50909695505050505050565b6004811061322557613225612e54565b9052565b602081016107548284613215565b6001600160801b0381168114611ae357600080fd5b60006020828403121561325e57600080fd5b8135612e3481613237565b80356001600160601b038116811461328057600080fd5b919050565b60006020828403121561329757600080fd5b612e3482613269565b60008060008060008060a087890312156132b957600080fd5b86356001600160401b038111156132cf57600080fd5b6132db89828a01612ebd565b9097509550506020870135935060408701356132f681612ea8565b925060608701356133068161310e565b9150608087013561331681612ea8565b809150509295509295509295565b6000806040838503121561333757600080fd5b823561334281612ea8565b946020939093013593505050565b60008060008060006060868803121561336857600080fd5b853561337381612ea8565b945060208601356001600160401b038082111561338f57600080fd5b61339b89838a01612ebd565b909650945060408801359150808211156133b457600080fd5b506133c188828901612ebd565b969995985093965092949392505050565b602081016133df83612e6a565b91905290565b600082601f8301126133f657600080fd5b813560206001600160401b0382111561341157613411612f5c565b8160051b613420828201612f72565b928352848101820192828101908785111561343a57600080fd5b83870192505b8483101561345957823582529183019190830190613440565b979650505050505050565b600080600080600060a0868803121561347c57600080fd5b853561348781612ea8565b9450602086013561349781612ea8565b935060408601356001600160401b03808211156134b357600080fd5b6134bf89838a016133e5565b945060608801359150808211156134d557600080fd5b6134e189838a016133e5565b935060808801359150808211156134f757600080fd5b5061350488828901612fc9565b9150509295509295909350565b600080600080600060a0868803121561352957600080fd5b853561353481612ea8565b9450602086013561354481612ea8565b9350604086013592506060860135915060808601356001600160401b0381111561356d57600080fd5b61350488828901612fc9565b60006020828403121561358b57600080fd5b8135612e3481612ea8565b600080600080600060a086880312156135ae57600080fd5b85356135b981612ea8565b945060208601356135c981612ea8565b935060408601356135d981613237565b92506135e760608701613269565b915060808601356131c381613237565b60006020828403121561360957600080fd5b5051919050565b6001600160801b03958616815293909416602084015260408301919091526001600160601b03166060820152608081019190915260a00190565b600080600080600060a0868803121561366257600080fd5b85516003811061367157600080fd5b602087015190955061368281613237565b604087015190945061369381613237565b6060870151608090970151959894975095949392505050565b634e487b7160e01b600052603260045260246000fd5b6001600160a01b039384168152919092166020820152604081019190915260600190565b6000602082840312156136f857600080fd5b8151612e348161310e565b8183823760009101908152919050565b6000808335601e1984360301811261372a57600080fd5b8301803591506001600160401b0382111561374457600080fd5b602001915036819003821315612f0157600080fd5b60005b8381101561377457818101518382015260200161375c565b838111156126895750506000910152565b60208152600082518060208401526137a4816040850160208701613759565b601f01601f19169190910160400192915050565b6020808252601f908201527f5265656e7472616e637947756172643a207265656e7472616e742063616c6c00604082015260600190565b6020808252600f908201526e57726f6e6720506f6f6c207479706560881b604082015260600190565b81835260006001600160fb1b0383111561383157600080fd5b8260051b8083602087013760009401602001938452509192915050565b6001600160a01b0387811682528616602082015260a06040820181905260009061387b9083018688613818565b828103606084015261388e818587613818565b8381036080909401939093525050600081526020019695505050505050565b6000602082840312156138bf57600080fd5b81516001600160401b038111156138d557600080fd5b8201601f810184136138e657600080fd5b80516138f4612fe882612fa2565b81815285602083850101111561390957600080fd5b61391a826020830160208601613759565b95945050505050565b60008282101561394357634e487b7160e01b600052601160045260246000fd5b500390565b6000806040838503121561395b57600080fd5b82516139668161310e565b60208401519092506139778161310e565b809150509250929050565b6001600160a01b0386811682528581166020830152841660408201526060810183905260a081016139b66080830184613215565b9695505050505050565b6000602082840312156139d257600080fd5b8151612e3481612ea856fea2646970667358221220b11693ac0505f02a4b41ad81da0e63c4df185c83a368acf93fc3a7d676c0efdd64736f6c63430008090033",
  "linkReferences": {},
  "deployedLinkReferences": {}
}