{
  "_format": "hh-sol-artifact-1",
  "contractName": "QuadraticCurve",
  "sourceName": "contracts/bondingCurves/QuadraticCurve.sol",
  "abi": [
    {
      "inputs": [
        {
          "internalType": "uint128",
          "name": "spotPrice",
          "type": "uint128"
        },
        {
          "internalType": "uint128",
          "name": "delta",
          "type": "uint128"
        },
        {
          "internalType": "uint256",
          "name": "numItems",
          "type": "uint256"
        },
        {
          "internalType": "uint256",
          "name": "feeMultiplier",
          "type": "uint256"
        },
        {
          "internalType": "uint256",
          "name": "protocolFeeMultiplier",
          "type": "uint256"
        }
      ],
      "name": "getBuyInfo",
      "outputs": [
        {
          "internalType": "enum CurveErrorCodes.Error",
          "name": "error",
          "type": "uint8"
        },
        {
          "internalType": "uint128",
          "name": "newSpotPrice",
          "type": "uint128"
        },
        {
          "internalType": "uint128",
          "name": "newDelta",
          "type": "uint128"
        },
        {
          "internalType": "uint256",
          "name": "inputValue",
          "type": "uint256"
        },
        {
          "internalType": "uint256",
          "name": "protocolFee",
          "type": "uint256"
        }
      ],
      "stateMutability": "pure",
      "type": "function"
    },
    {
      "inputs": [
        {
          "internalType": "uint128",
          "name": "spotPrice",
          "type": "uint128"
        },
        {
          "internalType": "uint128",
          "name": "delta",
          "type": "uint128"
        },
        {
          "internalType": "uint256",
          "name": "numItems",
          "type": "uint256"
        },
        {
          "internalType": "uint256",
          "name": "feeMultiplier",
          "type": "uint256"
        },
        {
          "internalType": "uint256",
          "name": "protocolFeeMultiplier",
          "type": "uint256"
        }
      ],
      "name": "getSellInfo",
      "outputs": [
        {
          "internalType": "enum CurveErrorCodes.Error",
          "name": "error",
          "type": "uint8"
        },
        {
          "internalType": "uint128",
          "name": "newSpotPrice",
          "type": "uint128"
        },
        {
          "internalType": "uint128",
          "name": "newDelta",
          "type": "uint128"
        },
        {
          "internalType": "uint256",
          "name": "outputValue",
          "type": "uint256"
        },
        {
          "internalType": "uint256",
          "name": "protocolFee",
          "type": "uint256"
        }
      ],
      "stateMutability": "pure",
      "type": "function"
    },
    {
      "inputs": [
        {
          "internalType": "uint128",
          "name": "",
          "type": "uint128"
        }
      ],
      "name": "validateDelta",
      "outputs": [
        {
          "internalType": "bool",
          "name": "valid",
          "type": "bool"
        }
      ],
      "stateMutability": "pure",
      "type": "function"
    },
    {
      "inputs": [
        {
          "internalType": "uint128",
          "name": "",
          "type": "uint128"
        }
      ],
      "name": "validateSpotPrice",
      "outputs": [
        {
          "internalType": "bool",
          "name": "",
          "type": "bool"
        }
      ],
      "stateMutability": "pure",
      "type": "function"
    }
  ],
  "bytecode": "0x608060405234801561001057600080fd5b506106dc806100206000396000f3fe608060405234801561001057600080fd5b506004361061004c5760003560e01c8063097cc63d146100515780630ae67ccc1461007e5780637ca542ac146100a2578063a1bbb2e81461007e575b600080fd5b61006461005f3660046104b7565b6100b5565b604051610075959493929190610504565b60405180910390f35b61009261008c36600461054e565b50600190565b6040519015158152602001610075565b6100646100b03660046104b7565b610213565b600080808080876100d55750600193506000925082915081905080610206565b6000886100eb816001600160801b038d16610586565b6100f59190610586565b9050808b6001600160801b0316101561013c57600094508461012861011a8c8e6105bb565b6001600160801b03166103a7565b6101339060016105e1565b99506101499050565b610146818c6105f9565b94505b600660016101588b6002610586565b6101629190610621565b61016d60018c610621565b6101808c6001600160801b038f16610586565b61018a9190610586565b6101949190610586565b61019e9190610638565b6101b16001600160801b038d168b610586565b6101bb9190610621565b92506101d08388670de0b6b3a7640000610480565b91506101e58389670de0b6b3a7640000610480565b6101ef9084610621565b92506101fb8284610621565b925089935060009550505b9550955095509550959050565b600080808080876102335750600193506000925082915081905080610206565b600060016102428a6002610586565b61024c9190610621565b61025f906001600160801b038c16610586565b610272906001600160801b038d166105e1565b90506001600160801b0381111561029b5760026000806000809550955095509550955050610206565b93508360006102aa8b8d61064c565b6001600160801b03169050600660016102c48c6002610586565b6102ce9190610621565b6102d960018d610621565b8c6102e48f80610677565b6001600160801b03166102f79190610586565b6103019190610586565b61030b9190610586565b6103159190610638565b6001600160801b038c1661032a60018d610621565b6103349190610586565b61033e90836105e1565b610348908c610586565b61035291906105e1565b93506103678489670de0b6b3a7640000610480565b925061037c848a670de0b6b3a7640000610480565b61038690856105e1565b935061039283856105e1565b60009d969c5099509197509395505050505050565b600181600160801b81106103c05760409190911b9060801c5b6801000000000000000081106103db5760209190911b9060401c5b64010000000081106103f25760109190911b9060201c5b6201000081106104075760089190911b9060101c5b610100811061041b5760049190911b9060081c5b6010811061042e5760029190911b9060041c5b6008811061043d578160011b91505b5080820401600190811c80830401811c80830401811c80830401811c80830401811c80830401811c80830401901c8082048181101561047a578091505b50919050565b828202831584820484141761049457600080fd5b0492915050565b80356001600160801b03811681146104b257600080fd5b919050565b600080600080600060a086880312156104cf57600080fd5b6104d88661049b565b94506104e66020870161049b565b94979496505050506040830135926060810135926080909101359150565b60a081016003871061052657634e487b7160e01b600052602160045260246000fd5b9581526001600160801b03948516602082015292909316604083015260608201526080015290565b60006020828403121561056057600080fd5b6105698261049b565b9392505050565b634e487b7160e01b600052601160045260246000fd5b60008160001904831182151516156105a0576105a0610570565b500290565b634e487b7160e01b600052601260045260246000fd5b60006001600160801b03808416806105d5576105d56105a5565b92169190910492915050565b600082198211156105f4576105f4610570565b500190565b60006001600160801b038381169083168181101561061957610619610570565b039392505050565b60008282101561063357610633610570565b500390565b600082610647576106476105a5565b500490565b60006001600160801b0380831681851680830382111561066e5761066e610570565b01949350505050565b60006001600160801b038083168185168183048111821515161561069d5761069d610570565b0294935050505056fea26469706673582212202b06c687f898a8b2d20ecc84a15f11cd76200fa532c97aa575a81c2e24994ca164736f6c63430008090033",
  "linkReferences": {},
  "deployedLinkReferences": {}
}